{
	"data": {
		"bytecode": {
			"linkReferences": {},
			"object": "608060405234801562000010575f80fd5b503360045f6101000a81548173ffffffffffffffffffffffffffffffffffffffff021916908373ffffffffffffffffffffffffffffffffffffffff16021790555061016d6103e860256801bc16d674ec8000006200006f9190620000fc565b6200007b919062000173565b62000087919062000173565b5f81905550670de0b6b3a7640000600f620000a39190620000fc565b600181905550601e600281905550670de0b6b3a7640000600381905550620001aa565b5f819050919050565b7f4e487b71000000000000000000000000000000000000000000000000000000005f52601160045260245ffd5b5f6200010882620000c6565b91506200011583620000c6565b92508282026200012581620000c6565b915082820484148315176200013f576200013e620000cf565b5b5092915050565b7f4e487b71000000000000000000000000000000000000000000000000000000005f52601260045260245ffd5b5f6200017f82620000c6565b91506200018c83620000c6565b9250826200019f576200019e62000146565b5b828204905092915050565b6143bb80620001b85f395ff3fe608060405260043610610129575f3560e01c80638da5cb5b116100aa578063c5e480db1161006e578063c5e480db14610399578063ca29c6dc146103d8578063da5861c814610402578063dca26a7d1461042a578063e33dfbbc14610440578063e7474a481461045c57610129565b80638da5cb5b146102d757806395afe35914610301578063b2b228a61461030b578063b8a878f914610333578063bf7a37d21461035d57610129565b80636c3a28e1116100f15780636c3a28e1146101fb578063708e1e7f1461023757806383238a6a1461025f57806388706275146102875780638bb3cc45146102af57610129565b80631a9ba7f61461012d5780631faca6431461014357806330ccebb51461016b57806339b8b076146101a757806356715761146101d1575b5f80fd5b348015610138575f80fd5b50610141610486565b005b34801561014e575f80fd5b50610169600480360381019061016491906132b0565b610758565b005b348015610176575f80fd5b50610191600480360381019061018c9190613355565b6108aa565b60405161019e91906133f3565b60405180910390f35b3480156101b2575f80fd5b506101bb6108fe565b6040516101c89190613424565b60405180910390f35b3480156101dc575f80fd5b506101e5610904565b6040516101f29190613424565b60405180910390f35b348015610206575f80fd5b50610221600480360381019061021c9190613355565b61090a565b60405161022e9190613424565b60405180910390f35b348015610242575f80fd5b5061025d60048036038101906102589190613467565b610a01565b005b34801561026a575f80fd5b5061028560048036038101906102809190613355565b610a6a565b005b348015610292575f80fd5b506102ad60048036038101906102a891906134c8565b610d02565b005b3480156102ba575f80fd5b506102d560048036038101906102d09190613467565b610d0f565b005b3480156102e2575f80fd5b506102eb610d19565b6040516102f8919061354e565b60405180910390f35b610309610d3e565b005b348015610316575f80fd5b50610331600480360381019061032c91906136af565b610e36565b005b34801561033e575f80fd5b5061034761106e565b6040516103549190613424565b60405180910390f35b348015610368575f80fd5b50610383600480360381019061037e9190613467565b611074565b60405161039091906137ad565b60405180910390f35b3480156103a4575f80fd5b506103bf60048036038101906103ba9190613355565b6114f8565b6040516103cf9493929190613877565b60405180910390f35b3480156103e3575f80fd5b506103ec6115d1565b6040516103f9919061398f565b60405180910390f35b34801561040d575f80fd5b5061042860048036038101906104239190613467565b61168b565b005b348015610435575f80fd5b5061043e611695565b005b61045a600480360381019061045591906139d9565b611945565b005b348015610467575f80fd5b506104706122d1565b60405161047d9190613424565b60405180910390f35b6001600481111561049a57610499613380565b5b60055f3373ffffffffffffffffffffffffffffffffffffffff1673ffffffffffffffffffffffffffffffffffffffff1681526020019081526020015f205f015f9054906101000a900460ff1660048111156104f8576104f7613380565b5b148061057357506002600481111561051357610512613380565b5b60055f3373ffffffffffffffffffffffffffffffffffffffff1673ffffffffffffffffffffffffffffffffffffffff1681526020019081526020015f205f015f9054906101000a900460ff16600481111561057157610570613380565b5b145b6105b2576040517f08c379a00000000000000000000000000000000000000000000000000000000081526004016105a990613a97565b60405180910390fd5b600260048111156105c6576105c5613380565b5b60055f3373ffffffffffffffffffffffffffffffffffffffff1673ffffffffffffffffffffffffffffffffffffffff1681526020019081526020015f205f015f9054906101000a900460ff16600481111561062457610623613380565b5b036106ad575f3373ffffffffffffffffffffffffffffffffffffffff1661064a3361090a565b60405161065690613ae2565b5f6040518083038185875af1925050503d805f8114610690576040519150601f19603f3d011682016040523d82523d5f602084013e610695565b606091505b50509050806106a2575f80fd5b6106ab336122d6565b505b5f60055f3373ffffffffffffffffffffffffffffffffffffffff1673ffffffffffffffffffffffffffffffffffffffff1681526020019081526020015f205f015f6101000a81548160ff0219169083600481111561070e5761070d613380565b5b02179055503373ffffffffffffffffffffffffffffffffffffffff167f5dc92bd127a226f63f8b2d797038c2785670ac843a149d9dae8ace040b9a79ef60405160405180910390a2565b5f600381111561076b5761076a613380565b5b60045f9054906101000a900473ffffffffffffffffffffffffffffffffffffffff1673ffffffffffffffffffffffffffffffffffffffff1663ac8377eb336040518263ffffffff1660e01b81526004016107c59190613af6565b602060405180830381865afa1580156107e0573d5f803e3d5ffd5b505050506040513d601f19601f820116820180604052508101906108049190613b32565b600381111561081657610815613380565b5b03610856576040517f08c379a000000000000000000000000000000000000000000000000000000000815260040161084d90613ba7565b60405180910390fd5b5f5b8282905081116108a55761089283838381811061087857610877613bc5565b5b905060200201602081019061088d9190613355565b6125da565b808061089d90613c1f565b915050610858565b505050565b5f60055f8373ffffffffffffffffffffffffffffffffffffffff1673ffffffffffffffffffffffffffffffffffffffff1681526020019081526020015f205f015f9054906101000a900460ff169050919050565b60035481565b60025481565b5f8060055f8473ffffffffffffffffffffffffffffffffffffffff1673ffffffffffffffffffffffffffffffffffffffff1681526020019081526020015f206001016040518060800160405290815f82015f9054906101000a90046fffffffffffffffffffffffffffffffff166fffffffffffffffffffffffffffffffff166fffffffffffffffffffffffffffffffff16815260200160018201548152602001600282015f9054906101000a900460ff1660ff1660ff16815260200160038201548152505090506109f9815f01516fffffffffffffffffffffffffffffffff16826020015183604001516126ac565b915050919050565b670de0b6b3a76400006064610a169190613c66565b811115610a21575f80fd5b61016d670de0b6b3a76400006064610a399190613c66565b826801bc16d674ec800000610a4e9190613c66565b610a589190613cd4565b610a629190613cd4565b5f8190555050565b5f6003811115610a7d57610a7c613380565b5b60045f9054906101000a900473ffffffffffffffffffffffffffffffffffffffff1673ffffffffffffffffffffffffffffffffffffffff1663ac8377eb336040518263ffffffff1660e01b8152600401610ad79190613af6565b602060405180830381865afa158015610af2573d5f803e3d5ffd5b505050506040513d601f19601f82011682018060405250810190610b169190613b32565b6003811115610b2857610b27613380565b5b03610b68576040517f08c379a0000000000000000000000000000000000000000000000000000000008152600401610b5f90613ba7565b60405180910390fd5b803373ffffffffffffffffffffffffffffffffffffffff1660055f8373ffffffffffffffffffffffffffffffffffffffff1673ffffffffffffffffffffffffffffffffffffffff1681526020019081526020015f206005015f9054906101000a900473ffffffffffffffffffffffffffffffffffffffff1673ffffffffffffffffffffffffffffffffffffffff1614610c36576040517f08c379a0000000000000000000000000000000000000000000000000000000008152600401610c2d90613d74565b60405180910390fd5b4260055f8473ffffffffffffffffffffffffffffffffffffffff1673ffffffffffffffffffffffffffffffffffffffff1681526020019081526020015f20600601819055505f8273ffffffffffffffffffffffffffffffffffffffff16610c9c8461090a565b604051610ca890613ae2565b5f6040518083038185875af1925050503d805f8114610ce2576040519150601f19603f3d011682016040523d82523d5f602084013e610ce7565b606091505b5050905080610cf4575f80fd5b610cfd336122d6565b505050565b8060ff1660028190555050565b8060038190555050565b60045f9054906101000a900473ffffffffffffffffffffffffffffffffffffffff1681565b6003543414610d82576040517f08c379a0000000000000000000000000000000000000000000000000000000008152600401610d7990613ddc565b60405180910390fd5b600160055f3373ffffffffffffffffffffffffffffffffffffffff1673ffffffffffffffffffffffffffffffffffffffff1681526020019081526020015f205f015f6101000a81548160ff02191690836004811115610de457610de3613380565b5b02179055503373ffffffffffffffffffffffffffffffffffffffff167fd7be58b616384857424b5a7e83abf416670578f50b00140a1d8f1e42050ee8ca60405160405180910390a2610e346126d0565b565b5f6003811115610e4957610e48613380565b5b60045f9054906101000a900473ffffffffffffffffffffffffffffffffffffffff1673ffffffffffffffffffffffffffffffffffffffff1663ac8377eb336040518263ffffffff1660e01b8152600401610ea39190613af6565b602060405180830381865afa158015610ebe573d5f803e3d5ffd5b505050506040513d601f19601f82011682018060405250810190610ee29190613b32565b6003811115610ef457610ef3613380565b5b03610f34576040517f08c379a0000000000000000000000000000000000000000000000000000000008152600401610f2b90613ba7565b60405180910390fd5b5f5b8151811161106a575f60055f848481518110610f5557610f54613bc5565b5b602002602001015173ffffffffffffffffffffffffffffffffffffffff1673ffffffffffffffffffffffffffffffffffffffff1681526020019081526020015f206005015f6101000a81548173ffffffffffffffffffffffffffffffffffffffff021916908373ffffffffffffffffffffffffffffffffffffffff160217905550600160055f848481518110610fee57610fed613bc5565b5b602002602001015173ffffffffffffffffffffffffffffffffffffffff1673ffffffffffffffffffffffffffffffffffffffff1681526020019081526020015f205f015f6101000a81548160ff0219169083600481111561105257611051613380565b5b0217905550808061106290613c1f565b915050610f36565b5050565b60015481565b60605f600381111561108957611088613380565b5b60045f9054906101000a900473ffffffffffffffffffffffffffffffffffffffff1673ffffffffffffffffffffffffffffffffffffffff1663ac8377eb336040518263ffffffff1660e01b81526004016110e39190613af6565b602060405180830381865afa1580156110fe573d5f803e3d5ffd5b505050506040513d601f19601f820116820180604052508101906111229190613b32565b600381111561113457611133613380565b5b03611174576040517f08c379a000000000000000000000000000000000000000000000000000000000815260040161116b90613ba7565b60405180910390fd5b60606111b46040518060400160405280601c81526020017f737461727465642072657175657374696e67206f70657261746f727300000000815250612754565b8260068054905010156113f1575f5b8381116113ef575f600682815481106111df576111de613bc5565b5b905f5260205f2090600202015f015f9054906101000a900473ffffffffffffffffffffffffffffffffffffffff16905084835110156113d5576002600481111561122c5761122b613380565b5b60055f8373ffffffffffffffffffffffffffffffffffffffff1673ffffffffffffffffffffffffffffffffffffffff1681526020019081526020015f205f015f9054906101000a900460ff16600481111561128a57611289613380565b5b036113d05780836001855161129f9190613dfa565b815181106112b0576112af613bc5565b5b602002602001019073ffffffffffffffffffffffffffffffffffffffff16908173ffffffffffffffffffffffffffffffffffffffff16815250503360055f8373ffffffffffffffffffffffffffffffffffffffff1673ffffffffffffffffffffffffffffffffffffffff1681526020019081526020015f206005015f6101000a81548173ffffffffffffffffffffffffffffffffffffffff021916908373ffffffffffffffffffffffffffffffffffffffff160217905550600360055f8373ffffffffffffffffffffffffffffffffffffffff1673ffffffffffffffffffffffffffffffffffffffff1681526020019081526020015f205f015f6101000a81548160ff021916908360048111156113ca576113c9613380565b5b02179055505b6113db565b506113ef565b5080806113e790613c1f565b9150506111c3565b505b61142f6040518060400160405280600c81526020017f6e6561726c792074686572650000000000000000000000000000000000000000815250612754565b82815110156114b1576114766040518060400160405280600e81526020017f61626f757420746f206372617368000000000000000000000000000000000000815250612754565b6040517f08c379a00000000000000000000000000000000000000000000000000000000081526004016114a890613e9d565b60405180910390fd5b6114ef6040518060400160405280600681526020017f7a6f6f6f6f6d0000000000000000000000000000000000000000000000000000815250612754565b80915050919050565b6005602052805f5260405f205f91509050805f015f9054906101000a900460ff1690806001016040518060800160405290815f82015f9054906101000a90046fffffffffffffffffffffffffffffffff166fffffffffffffffffffffffffffffffff166fffffffffffffffffffffffffffffffff16815260200160018201548152602001600282015f9054906101000a900460ff1660ff1660ff16815260200160038201548152505090806005015f9054906101000a900473ffffffffffffffffffffffffffffffffffffffff16908060060154905084565b60606006805480602002602001604051908101604052809291908181526020015f905b82821015611682578382905f5260205f2090600202016040518060400160405290815f82015f9054906101000a900473ffffffffffffffffffffffffffffffffffffffff1673ffffffffffffffffffffffffffffffffffffffff1673ffffffffffffffffffffffffffffffffffffffff168152602001600182015481525050815260200190600101906115f4565b50505050905090565b8060018190555050565b600160055f3373ffffffffffffffffffffffffffffffffffffffff1673ffffffffffffffffffffffffffffffffffffffff1681526020019081526020015f205f015f6101000a81548160ff021916908360048111156116f7576116f6613380565b5b02179055505f805490505f600190505f673782dace9d90000090505f60b490505f6064670de0b6b3a764000061172d9190613c66565b83866117399190613c66565b6117439190613cd4565b8561174e9190613ebb565b90505f61176e836fffffffffffffffffffffffffffffffff1683876126ac565b90505f61178d846fffffffffffffffffffffffffffffffff16836127ed565b90505f6040518060800160405280866fffffffffffffffffffffffffffffffff1681526020018581526020018860ff1681526020018381525090508060055f3373ffffffffffffffffffffffffffffffffffffffff1673ffffffffffffffffffffffffffffffffffffffff1681526020019081526020015f206001015f820151815f015f6101000a8154816fffffffffffffffffffffffffffffffff02191690836fffffffffffffffffffffffffffffffff160217905550602082015181600101556040820151816002015f6101000a81548160ff021916908360ff16021790555060608201518160030155905050611886338361281a565b600260055f3373ffffffffffffffffffffffffffffffffffffffff1673ffffffffffffffffffffffffffffffffffffffff1681526020019081526020015f205f015f6101000a81548160ff021916908360048111156118e8576118e7613380565b5b02179055503373ffffffffffffffffffffffffffffffffffffffff167fba39137d418a3e614e2e6fb8b7d8d27bbab214ed1a9cbb8a2e148e9336e49432826040516119339190613eee565b60405180910390a25050505050505050565b6002600481111561195957611958613380565b5b60055f3373ffffffffffffffffffffffffffffffffffffffff1673ffffffffffffffffffffffffffffffffffffffff1681526020019081526020015f205f015f9054906101000a900460ff1660048111156119b7576119b6613380565b5b1480611a325750600160048111156119d2576119d1613380565b5b60055f3373ffffffffffffffffffffffffffffffffffffffff1673ffffffffffffffffffffffffffffffffffffffff1681526020019081526020015f205f015f9054906101000a900460ff166004811115611a3057611a2f613380565b5b145b611a71576040517f08c379a0000000000000000000000000000000000000000000000000000000008152600401611a6890613f77565b60405180910390fd5b600254826fffffffffffffffffffffffffffffffff161015611ac8576040517f08c379a0000000000000000000000000000000000000000000000000000000008152600401611abf90613fdf565b60405180910390fd5b5f8110158015611ada57506001548111155b611b19576040517f08c379a0000000000000000000000000000000000000000000000000000000008152600401611b1090614047565b60405180910390fd5b5f80549050611b5c6040518060400160405280601181526020017f4d6164652069742074686973206661722e000000000000000000000000000000815250612754565b5f600190505f6064670de0b6b3a7640000611b779190613c66565b8484611b839190613c66565b611b8d9190613cd4565b83611b989190613ebb565b9050611ba381612c29565b5f611bc1866fffffffffffffffffffffffffffffffff1683856126ac565b9050611bcc81612c29565b60026004811115611be057611bdf613380565b5b60055f3373ffffffffffffffffffffffffffffffffffffffff1673ffffffffffffffffffffffffffffffffffffffff1681526020019081526020015f205f015f9054906101000a900460ff166004811115611c3e57611c3d613380565b5b03611ff3575f611d5060055f3373ffffffffffffffffffffffffffffffffffffffff1673ffffffffffffffffffffffffffffffffffffffff1681526020019081526020015f206001015f015f9054906101000a90046fffffffffffffffffffffffffffffffff166fffffffffffffffffffffffffffffffff1660055f3373ffffffffffffffffffffffffffffffffffffffff1673ffffffffffffffffffffffffffffffffffffffff1681526020019081526020015f206001016001015460055f3373ffffffffffffffffffffffffffffffffffffffff1673ffffffffffffffffffffffffffffffffffffffff1681526020019081526020015f206001016002015f9054906101000a900460ff166126ac565b90505f81611d71896fffffffffffffffffffffffffffffffff1686886126ac565b611d7b9190613ebb565b90505f811315611dd357611d8f3482612cc2565b611dce576040517f08c379a0000000000000000000000000000000000000000000000000000000008152600401611dc5906140d5565b60405180910390fd5b611e86565b5f3373ffffffffffffffffffffffffffffffffffffffff1682611df5906140fc565b604051611e0190613ae2565b5f6040518083038185875af1925050503d805f8114611e3b576040519150601f19603f3d011682016040523d82523d5f602084013e611e40565b606091505b5050905080611e84576040517f08c379a0000000000000000000000000000000000000000000000000000000008152600401611e7b9061418c565b60405180910390fd5b505b5f611ea3896fffffffffffffffffffffffffffffffff16856127ed565b90505f60405180608001604052808b6fffffffffffffffffffffffffffffffff1681526020018781526020018860ff1681526020018381525090508060055f3373ffffffffffffffffffffffffffffffffffffffff1673ffffffffffffffffffffffffffffffffffffffff1681526020019081526020015f206001015f820151815f015f6101000a8154816fffffffffffffffffffffffffffffffff02191690836fffffffffffffffffffffffffffffffff160217905550602082015181600101556040820151816002015f6101000a81548160ff021916908360ff16021790555060608201518160030155905050611f9c3383612d20565b3373ffffffffffffffffffffffffffffffffffffffff167fba39137d418a3e614e2e6fb8b7d8d27bbab214ed1a9cbb8a2e148e9336e4943282604051611fe29190613eee565b60405180910390a2505050506122c1565b6001600481111561200757612006613380565b5b60055f3373ffffffffffffffffffffffffffffffffffffffff1673ffffffffffffffffffffffffffffffffffffffff1681526020019081526020015f205f015f9054906101000a900460ff16600481111561206557612064613380565b5b03612285576120743482612cc2565b6120b3576040517f08c379a00000000000000000000000000000000000000000000000000000000081526004016120aa906140d5565b60405180910390fd5b5f6120d0876fffffffffffffffffffffffffffffffff16836127ed565b90505f6040518060800160405280896fffffffffffffffffffffffffffffffff1681526020018581526020018660ff1681526020018381525090508060055f3373ffffffffffffffffffffffffffffffffffffffff1673ffffffffffffffffffffffffffffffffffffffff1681526020019081526020015f206001015f820151815f015f6101000a8154816fffffffffffffffffffffffffffffffff02191690836fffffffffffffffffffffffffffffffff160217905550602082015181600101556040820151816002015f6101000a81548160ff021916908360ff160217905550606082015181600301559050506121c9338361281a565b600260055f3373ffffffffffffffffffffffffffffffffffffffff1673ffffffffffffffffffffffffffffffffffffffff1681526020019081526020015f205f015f6101000a81548160ff0219169083600481111561222b5761222a613380565b5b02179055503373ffffffffffffffffffffffffffffffffffffffff167fba39137d418a3e614e2e6fb8b7d8d27bbab214ed1a9cbb8a2e148e9336e49432826040516122769190613eee565b60405180910390a250506122c0565b6040517f08c379a00000000000000000000000000000000000000000000000000000000081526004016122b7906141f4565b60405180910390fd5b5b6122c96126d0565b505050505050565b5f5481565b600160055f8373ffffffffffffffffffffffffffffffffffffffff1673ffffffffffffffffffffffffffffffffffffffff1681526020019081526020015f205f015f6101000a81548160ff0219169083600481111561233857612337613380565b5b021790555060405180608001604052805f6fffffffffffffffffffffffffffffffff1681526020015f81526020015f60ff1681526020015f81525060055f8373ffffffffffffffffffffffffffffffffffffffff1673ffffffffffffffffffffffffffffffffffffffff1681526020019081526020015f206001015f820151815f015f6101000a8154816fffffffffffffffffffffffffffffffff02191690836fffffffffffffffffffffffffffffffff160217905550602082015181600101556040820151816002015f6101000a81548160ff021916908360ff160217905550606082015181600301559050505f5b60068054905081116125d6578173ffffffffffffffffffffffffffffffffffffffff166006828154811061245f5761245e613bc5565b5b905f5260205f2090600202015f015f9054906101000a900473ffffffffffffffffffffffffffffffffffffffff1673ffffffffffffffffffffffffffffffffffffffff16036125c357600660016006805490506124bc9190613ebb565b815481106124cd576124cc613bc5565b5b905f5260205f209060020201600682815481106124ed576124ec613bc5565b5b905f5260205f2090600202015f82015f9054906101000a900473ffffffffffffffffffffffffffffffffffffffff16815f015f6101000a81548173ffffffffffffffffffffffffffffffffffffffff021916908373ffffffffffffffffffffffffffffffffffffffff16021790555060018201548160010155905050600680548061257b5761257a614212565b5b600190038181905f5260205f2090600202015f8082015f6101000a81549073ffffffffffffffffffffffffffffffffffffffff0219169055600182015f9055505090556125d6565b80806125ce90613c1f565b915050612428565b5050565b803373ffffffffffffffffffffffffffffffffffffffff1660055f8373ffffffffffffffffffffffffffffffffffffffff1673ffffffffffffffffffffffffffffffffffffffff1681526020019081526020015f206005015f9054906101000a900473ffffffffffffffffffffffffffffffffffffffff1673ffffffffffffffffffffffffffffffffffffffff16146126a8576040517f08c379a000000000000000000000000000000000000000000000000000000000815260040161269f90613d74565b60405180910390fd5b5050565b5f8160ff1683856126bd9190613c66565b6126c79190613cd4565b90509392505050565b5f7399b64ecdfd384e585e3c56f51135156436b5c11390505f8173ffffffffffffffffffffffffffffffffffffffff164760405161270d90613ae2565b5f6040518083038185875af1925050503d805f8114612747576040519150601f19603f3d011682016040523d82523d5f602084013e61274c565b606091505b505090505050565b6127ea8160405160240161276891906142a9565b6040516020818303038152906040527f41304fac000000000000000000000000000000000000000000000000000000007bffffffffffffffffffffffffffffffffffffffffffffffffffffffff19166020820180517bffffffffffffffffffffffffffffffffffffffffffffffffffffffff83818316178352505050506131f0565b50565b5f61016d8383856127fe9190613c66565b6128089190613c66565b6128129190613cd4565b905092915050565b6001600481111561282e5761282d613380565b5b60055f3373ffffffffffffffffffffffffffffffffffffffff1673ffffffffffffffffffffffffffffffffffffffff1681526020019081526020015f205f015f9054906101000a900460ff16600481111561288c5761288b613380565b5b146128cc576040517f08c379a00000000000000000000000000000000000000000000000000000000081526004016128c390614313565b60405180910390fd5b5f80600680549050036129bf57600660405180604001604052808573ffffffffffffffffffffffffffffffffffffffff16815260200184815250908060018154018082558091505060019003905f5260205f2090600202015f909190919091505f820151815f015f6101000a81548173ffffffffffffffffffffffffffffffffffffffff021916908373ffffffffffffffffffffffffffffffffffffffff1602179055506020820151816001015550506129ba6040518060400160405280600e81526020017f536f2066617220736f20676f6f64000000000000000000000000000000000000815250612754565b612c24565b6129fd6040518060400160405280600781526020017f4578706c61696e00000000000000000000000000000000000000000000000000815250612754565b5f5b600680549050811015612b48575f816001600680549050612a209190613ebb565b612a2a9190613ebb565b90508360068281548110612a4157612a40613bc5565b5b905f5260205f2090600202016001015411612b3457809250600680549050600182612a6c9190613dfa565b1015612b2f5760068181548110612a8657612a85613bc5565b5b905f5260205f2090600202016006600183612aa19190613dfa565b81548110612ab257612ab1613bc5565b5b905f5260205f2090600202015f82015f9054906101000a900473ffffffffffffffffffffffffffffffffffffffff16815f015f6101000a81548173ffffffffffffffffffffffffffffffffffffffff021916908373ffffffffffffffffffffffffffffffffffffffff160217905550600182015481600101559050505b612b3a565b50612b48565b5080806001019150506129ff565b50612b876040518060400160405280600581526020017f5720482059000000000000000000000000000000000000000000000000000000815250612754565b60405180604001604052808473ffffffffffffffffffffffffffffffffffffffff1681526020018381525060068281548110612bc657612bc5613bc5565b5b905f5260205f2090600202015f820151815f015f6101000a81548173ffffffffffffffffffffffffffffffffffffffff021916908373ffffffffffffffffffffffffffffffffffffffff160217905550602082015181600101559050505b505050565b612cbf81604051602401612c3d9190613424565b6040516020818303038152906040527ff82c50f1000000000000000000000000000000000000000000000000000000007bffffffffffffffffffffffffffffffffffffffffffffffffffffffff19166020820180517bffffffffffffffffffffffffffffffffffffffffffffffffffffffff83818316178352505050506131f0565b50565b5f61270f82612cd19190613c66565b61271084612cdf9190613c66565b10158015612d08575061271182612cf69190613c66565b620186a084612d059190613c66565b11155b15612d165760019050612d1a565b5f90505b92915050565b60026004811115612d3457612d33613380565b5b60055f3373ffffffffffffffffffffffffffffffffffffffff1673ffffffffffffffffffffffffffffffffffffffff1681526020019081526020015f205f015f9054906101000a900460ff166004811115612d9257612d91613380565b5b14612dd2576040517f08c379a0000000000000000000000000000000000000000000000000000000008152600401612dc990614313565b60405180910390fd5b5f805f6001600680549050612de79190613ebb565b90505b5f8110612f66578360068281548110612e0657612e05613bc5565b5b905f5260205f2090600202016001015411612edb5780925060068181548110612e3257612e31613bc5565b5b905f5260205f2090600202016006600183612e4d9190613dfa565b81548110612e5e57612e5d613bc5565b5b905f5260205f2090600202015f82015f9054906101000a900473ffffffffffffffffffffffffffffffffffffffff16815f015f6101000a81548173ffffffffffffffffffffffffffffffffffffffff021916908373ffffffffffffffffffffffffffffffffffffffff160217905550600182015481600101559050505b8473ffffffffffffffffffffffffffffffffffffffff1660068281548110612f0657612f05613bc5565b5b905f5260205f2090600202015f015f9054906101000a900473ffffffffffffffffffffffffffffffffffffffff1673ffffffffffffffffffffffffffffffffffffffff1603612f53578091505b8080612f5e90614331565b915050612dea565b508082111561305c575f600182612f7d9190613dfa565b90505b8281116130565760068181548110612f9b57612f9a613bc5565b5b905f5260205f2090600202016006600183612fb69190613ebb565b81548110612fc757612fc6613bc5565b5b905f5260205f2090600202015f82015f9054906101000a900473ffffffffffffffffffffffffffffffffffffffff16815f015f6101000a81548173ffffffffffffffffffffffffffffffffffffffff021916908373ffffffffffffffffffffffffffffffffffffffff16021790555060018201548160010155905050808061304e90613c1f565b915050612f80565b5061314e565b8082101561314d575f6001826130729190613ebb565b90505b82811061314b57600681815481106130905761308f613bc5565b5b905f5260205f20906002020160066001836130ab9190613dfa565b815481106130bc576130bb613bc5565b5b905f5260205f2090600202015f82015f9054906101000a900473ffffffffffffffffffffffffffffffffffffffff16815f015f6101000a81548173ffffffffffffffffffffffffffffffffffffffff021916908373ffffffffffffffffffffffffffffffffffffffff16021790555060018201548160010155905050808061314390614331565b915050613075565b505b5b60405180604001604052808573ffffffffffffffffffffffffffffffffffffffff168152602001848152506006838154811061318d5761318c613bc5565b5b905f5260205f2090600202015f820151815f015f6101000a81548173ffffffffffffffffffffffffffffffffffffffff021916908373ffffffffffffffffffffffffffffffffffffffff1602179055506020820151816001015590505050505050565b613207816131ff61320a613229565b63ffffffff16565b50565b5f6a636f6e736f6c652e6c6f6790505f80835160208501845afa505050565b613234819050919050565b61323c614358565b565b5f604051905090565b5f80fd5b5f80fd5b5f80fd5b5f80fd5b5f80fd5b5f8083601f8401126132705761326f61324f565b5b8235905067ffffffffffffffff81111561328d5761328c613253565b5b6020830191508360208202830111156132a9576132a8613257565b5b9250929050565b5f80602083850312156132c6576132c5613247565b5b5f83013567ffffffffffffffff8111156132e3576132e261324b565b5b6132ef8582860161325b565b92509250509250929050565b5f73ffffffffffffffffffffffffffffffffffffffff82169050919050565b5f613324826132fb565b9050919050565b6133348161331a565b811461333e575f80fd5b50565b5f8135905061334f8161332b565b92915050565b5f6020828403121561336a57613369613247565b5b5f61337784828501613341565b91505092915050565b7f4e487b71000000000000000000000000000000000000000000000000000000005f52602160045260245ffd5b600581106133be576133bd613380565b5b50565b5f8190506133ce826133ad565b919050565b5f6133dd826133c1565b9050919050565b6133ed816133d3565b82525050565b5f6020820190506134065f8301846133e4565b92915050565b5f819050919050565b61341e8161340c565b82525050565b5f6020820190506134375f830184613415565b92915050565b6134468161340c565b8114613450575f80fd5b50565b5f813590506134618161343d565b92915050565b5f6020828403121561347c5761347b613247565b5b5f61348984828501613453565b91505092915050565b5f60ff82169050919050565b6134a781613492565b81146134b1575f80fd5b50565b5f813590506134c28161349e565b92915050565b5f602082840312156134dd576134dc613247565b5b5f6134ea848285016134b4565b91505092915050565b5f819050919050565b5f61351661351161350c846132fb565b6134f3565b6132fb565b9050919050565b5f613527826134fc565b9050919050565b5f6135388261351d565b9050919050565b6135488161352e565b82525050565b5f6020820190506135615f83018461353f565b92915050565b5f601f19601f8301169050919050565b7f4e487b71000000000000000000000000000000000000000000000000000000005f52604160045260245ffd5b6135ad82613567565b810181811067ffffffffffffffff821117156135cc576135cb613577565b5b80604052505050565b5f6135de61323e565b90506135ea82826135a4565b919050565b5f67ffffffffffffffff82111561360957613608613577565b5b602082029050602081019050919050565b5f61362c613627846135ef565b6135d5565b9050808382526020820190506020840283018581111561364f5761364e613257565b5b835b8181101561367857806136648882613341565b845260208401935050602081019050613651565b5050509392505050565b5f82601f8301126136965761369561324f565b5b81356136a684826020860161361a565b91505092915050565b5f602082840312156136c4576136c3613247565b5b5f82013567ffffffffffffffff8111156136e1576136e061324b565b5b6136ed84828501613682565b91505092915050565b5f81519050919050565b5f82825260208201905092915050565b5f819050602082019050919050565b6137288161331a565b82525050565b5f613739838361371f565b60208301905092915050565b5f602082019050919050565b5f61375b826136f6565b6137658185613700565b935061377083613710565b805f5b838110156137a0578151613787888261372e565b975061379283613745565b925050600181019050613773565b5085935050505092915050565b5f6020820190508181035f8301526137c58184613751565b905092915050565b5f6fffffffffffffffffffffffffffffffff82169050919050565b6137f1816137cd565b82525050565b6138008161340c565b82525050565b61380f81613492565b82525050565b608082015f8201516138295f8501826137e8565b50602082015161383c60208501826137f7565b50604082015161384f6040850182613806565b50606082015161386260608501826137f7565b50505050565b6138718161331a565b82525050565b5f60e08201905061388a5f8301876133e4565b6138976020830186613815565b6138a460a0830185613868565b6138b160c0830184613415565b95945050505050565b5f81519050919050565b5f82825260208201905092915050565b5f819050602082019050919050565b604082015f8201516138f75f85018261371f565b50602082015161390a60208501826137f7565b50505050565b5f61391b83836138e3565b60408301905092915050565b5f602082019050919050565b5f61393d826138ba565b61394781856138c4565b9350613952836138d4565b805f5b838110156139825781516139698882613910565b975061397483613927565b925050600181019050613955565b5085935050505092915050565b5f6020820190508181035f8301526139a78184613933565b905092915050565b6139b8816137cd565b81146139c2575f80fd5b50565b5f813590506139d3816139af565b92915050565b5f80604083850312156139ef576139ee613247565b5b5f6139fc858286016139c5565b9250506020613a0d85828601613453565b9150509250929050565b5f82825260208201905092915050565b7f43616e277420706572666f726d207468697320616374696f6e207769746820795f8201527f6f75722063757272656e74207374617475730000000000000000000000000000602082015250565b5f613a81603283613a17565b9150613a8c82613a27565b604082019050919050565b5f6020820190508181035f830152613aae81613a75565b9050919050565b5f81905092915050565b50565b5f613acd5f83613ab5565b9150613ad882613abf565b5f82019050919050565b5f613aec82613ac2565b9150819050919050565b5f602082019050613b095f830184613868565b92915050565b60048110613b1b575f80fd5b50565b5f81519050613b2c81613b0f565b92915050565b5f60208284031215613b4757613b46613247565b5b5f613b5484828501613b1e565b91505092915050565b7f4e6f207065726d697373696f6e732100000000000000000000000000000000005f82015250565b5f613b91600f83613a17565b9150613b9c82613b5d565b602082019050919050565b5f6020820190508181035f830152613bbe81613b85565b9050919050565b7f4e487b71000000000000000000000000000000000000000000000000000000005f52603260045260245ffd5b7f4e487b71000000000000000000000000000000000000000000000000000000005f52601160045260245ffd5b5f613c298261340c565b91507fffffffffffffffffffffffffffffffffffffffffffffffffffffffffffffffff8203613c5b57613c5a613bf2565b5b600182019050919050565b5f613c708261340c565b9150613c7b8361340c565b9250828202613c898161340c565b91508282048414831517613ca057613c9f613bf2565b5b5092915050565b7f4e487b71000000000000000000000000000000000000000000000000000000005f52601260045260245ffd5b5f613cde8261340c565b9150613ce98361340c565b925082613cf957613cf8613ca7565b5b828204905092915050565b7f596f75277265206e6f7420616c6c6f77656420746f20646f20746861742e204e5f8201527f617567687479206e6175676874792e0000000000000000000000000000000000602082015250565b5f613d5e602f83613a17565b9150613d6982613d04565b604082019050919050565b5f6020820190508181035f830152613d8b81613d52565b9050919050565b7f57726f6e6720626f6e642076616c75652c206d75737420626520314554482e005f82015250565b5f613dc6601f83613a17565b9150613dd182613d92565b602082019050919050565b5f6020820190508181035f830152613df381613dba565b9050919050565b5f613e048261340c565b9150613e0f8361340c565b9250828201905080821115613e2757613e26613bf2565b5b92915050565b7f4e6f7420656e6f756768206f70657261746f727320696e2061756374696f6e205f8201527f7365742100000000000000000000000000000000000000000000000000000000602082015250565b5f613e87602483613a17565b9150613e9282613e2d565b604082019050919050565b5f6020820190508181035f830152613eb481613e7b565b9050919050565b5f613ec58261340c565b9150613ed08361340c565b9250828203905081811115613ee857613ee7613bf2565b5b92915050565b5f608082019050613f015f830184613815565b92915050565b7f596f75206e65656420746f206465706f73697420796f7572206f70657261746f5f8201527f7220626f6e642066697273742100000000000000000000000000000000000000602082015250565b5f613f61602d83613a17565b9150613f6c82613f07565b604082019050919050565b5f6020820190508181035f830152613f8e81613f55565b9050919050565b7f4475726174696f6e20746f6f2073686f727400000000000000000000000000005f82015250565b5f613fc9601283613a17565b9150613fd482613f95565b602082019050919050565b5f6020820190508181035f830152613ff681613fbd565b9050919050565b7f546861742773206120776569726420646973636f756e7420726174652e0000005f82015250565b5f614031601d83613a17565b915061403c82613ffd565b602082019050919050565b5f6020820190508181035f83015261405e81614025565b9050919050565b7f54686174206973206e6f7420746865207269676874207061796d656e7420616d5f8201527f6f756e742e000000000000000000000000000000000000000000000000000000602082015250565b5f6140bf602583613a17565b91506140ca82614065565b604082019050919050565b5f6020820190508181035f8301526140ec816140b3565b9050919050565b5f819050919050565b5f614106826140f3565b91507f8000000000000000000000000000000000000000000000000000000000000000820361413857614137613bf2565b5b815f039050919050565b7f5061796d656e74206661696c65642100000000000000000000000000000000005f82015250565b5f614176600f83613a17565b915061418182614142565b602082019050919050565b5f6020820190508181035f8301526141a38161416a565b9050919050565b7f4e617567687479206e6175676874792e000000000000000000000000000000005f82015250565b5f6141de601083613a17565b91506141e9826141aa565b602082019050919050565b5f6020820190508181035f83015261420b816141d2565b9050919050565b7f4e487b71000000000000000000000000000000000000000000000000000000005f52603160045260245ffd5b5f81519050919050565b5f5b8381101561426657808201518184015260208101905061424b565b5f8484015250505050565b5f61427b8261423f565b6142858185613a17565b9350614295818560208601614249565b61429e81613567565b840191505092915050565b5f6020820190508181035f8301526142c18184614271565b905092915050565b7f43616e277420646f2074686174207269676874206e6f772e00000000000000005f82015250565b5f6142fd601883613a17565b9150614308826142c9565b602082019050919050565b5f6020820190508181035f83015261432a816142f1565b9050919050565b5f61433b8261340c565b91505f820361434d5761434c613bf2565b5b600182039050919050565b7f4e487b71000000000000000000000000000000000000000000000000000000005f52605160045260245ffdfea264697066735822122009e26fdb1c7940959e9728f9fd095706bc2fa90cb0d54351c8ab5547e948c8b564736f6c63430008180033",
			"opcodes": "PUSH1 0x80 PUSH1 0x40 MSTORE CALLVALUE DUP1 ISZERO PUSH3 0x10 JUMPI PUSH0 DUP1 REVERT JUMPDEST POP CALLER PUSH1 0x4 PUSH0 PUSH2 0x100 EXP DUP2 SLOAD DUP2 PUSH20 0xFFFFFFFFFFFFFFFFFFFFFFFFFFFFFFFFFFFFFFFF MUL NOT AND SWAP1 DUP4 PUSH20 0xFFFFFFFFFFFFFFFFFFFFFFFFFFFFFFFFFFFFFFFF AND MUL OR SWAP1 SSTORE POP PUSH2 0x16D PUSH2 0x3E8 PUSH1 0x25 PUSH9 0x1BC16D674EC800000 PUSH3 0x6F SWAP2 SWAP1 PUSH3 0xFC JUMP JUMPDEST PUSH3 0x7B SWAP2 SWAP1 PUSH3 0x173 JUMP JUMPDEST PUSH3 0x87 SWAP2 SWAP1 PUSH3 0x173 JUMP JUMPDEST PUSH0 DUP2 SWAP1 SSTORE POP PUSH8 0xDE0B6B3A7640000 PUSH1 0xF PUSH3 0xA3 SWAP2 SWAP1 PUSH3 0xFC JUMP JUMPDEST PUSH1 0x1 DUP2 SWAP1 SSTORE POP PUSH1 0x1E PUSH1 0x2 DUP2 SWAP1 SSTORE POP PUSH8 0xDE0B6B3A7640000 PUSH1 0x3 DUP2 SWAP1 SSTORE POP PUSH3 0x1AA JUMP JUMPDEST PUSH0 DUP2 SWAP1 POP SWAP2 SWAP1 POP JUMP JUMPDEST PUSH32 0x4E487B7100000000000000000000000000000000000000000000000000000000 PUSH0 MSTORE PUSH1 0x11 PUSH1 0x4 MSTORE PUSH1 0x24 PUSH0 REVERT JUMPDEST PUSH0 PUSH3 0x108 DUP3 PUSH3 0xC6 JUMP JUMPDEST SWAP2 POP PUSH3 0x115 DUP4 PUSH3 0xC6 JUMP JUMPDEST SWAP3 POP DUP3 DUP3 MUL PUSH3 0x125 DUP2 PUSH3 0xC6 JUMP JUMPDEST SWAP2 POP DUP3 DUP3 DIV DUP5 EQ DUP4 ISZERO OR PUSH3 0x13F JUMPI PUSH3 0x13E PUSH3 0xCF JUMP JUMPDEST JUMPDEST POP SWAP3 SWAP2 POP POP JUMP JUMPDEST PUSH32 0x4E487B7100000000000000000000000000000000000000000000000000000000 PUSH0 MSTORE PUSH1 0x12 PUSH1 0x4 MSTORE PUSH1 0x24 PUSH0 REVERT JUMPDEST PUSH0 PUSH3 0x17F DUP3 PUSH3 0xC6 JUMP JUMPDEST SWAP2 POP PUSH3 0x18C DUP4 PUSH3 0xC6 JUMP JUMPDEST SWAP3 POP DUP3 PUSH3 0x19F JUMPI PUSH3 0x19E PUSH3 0x146 JUMP JUMPDEST JUMPDEST DUP3 DUP3 DIV SWAP1 POP SWAP3 SWAP2 POP POP JUMP JUMPDEST PUSH2 0x43BB DUP1 PUSH3 0x1B8 PUSH0 CODECOPY PUSH0 RETURN INVALID PUSH1 0x80 PUSH1 0x40 MSTORE PUSH1 0x4 CALLDATASIZE LT PUSH2 0x129 JUMPI PUSH0 CALLDATALOAD PUSH1 0xE0 SHR DUP1 PUSH4 0x8DA5CB5B GT PUSH2 0xAA JUMPI DUP1 PUSH4 0xC5E480DB GT PUSH2 0x6E JUMPI DUP1 PUSH4 0xC5E480DB EQ PUSH2 0x399 JUMPI DUP1 PUSH4 0xCA29C6DC EQ PUSH2 0x3D8 JUMPI DUP1 PUSH4 0xDA5861C8 EQ PUSH2 0x402 JUMPI DUP1 PUSH4 0xDCA26A7D EQ PUSH2 0x42A JUMPI DUP1 PUSH4 0xE33DFBBC EQ PUSH2 0x440 JUMPI DUP1 PUSH4 0xE7474A48 EQ PUSH2 0x45C JUMPI PUSH2 0x129 JUMP JUMPDEST DUP1 PUSH4 0x8DA5CB5B EQ PUSH2 0x2D7 JUMPI DUP1 PUSH4 0x95AFE359 EQ PUSH2 0x301 JUMPI DUP1 PUSH4 0xB2B228A6 EQ PUSH2 0x30B JUMPI DUP1 PUSH4 0xB8A878F9 EQ PUSH2 0x333 JUMPI DUP1 PUSH4 0xBF7A37D2 EQ PUSH2 0x35D JUMPI PUSH2 0x129 JUMP JUMPDEST DUP1 PUSH4 0x6C3A28E1 GT PUSH2 0xF1 JUMPI DUP1 PUSH4 0x6C3A28E1 EQ PUSH2 0x1FB JUMPI DUP1 PUSH4 0x708E1E7F EQ PUSH2 0x237 JUMPI DUP1 PUSH4 0x83238A6A EQ PUSH2 0x25F JUMPI DUP1 PUSH4 0x88706275 EQ PUSH2 0x287 JUMPI DUP1 PUSH4 0x8BB3CC45 EQ PUSH2 0x2AF JUMPI PUSH2 0x129 JUMP JUMPDEST DUP1 PUSH4 0x1A9BA7F6 EQ PUSH2 0x12D JUMPI DUP1 PUSH4 0x1FACA643 EQ PUSH2 0x143 JUMPI DUP1 PUSH4 0x30CCEBB5 EQ PUSH2 0x16B JUMPI DUP1 PUSH4 0x39B8B076 EQ PUSH2 0x1A7 JUMPI DUP1 PUSH4 0x56715761 EQ PUSH2 0x1D1 JUMPI JUMPDEST PUSH0 DUP1 REVERT JUMPDEST CALLVALUE DUP1 ISZERO PUSH2 0x138 JUMPI PUSH0 DUP1 REVERT JUMPDEST POP PUSH2 0x141 PUSH2 0x486 JUMP JUMPDEST STOP JUMPDEST CALLVALUE DUP1 ISZERO PUSH2 0x14E JUMPI PUSH0 DUP1 REVERT JUMPDEST POP PUSH2 0x169 PUSH1 0x4 DUP1 CALLDATASIZE SUB DUP2 ADD SWAP1 PUSH2 0x164 SWAP2 SWAP1 PUSH2 0x32B0 JUMP JUMPDEST PUSH2 0x758 JUMP JUMPDEST STOP JUMPDEST CALLVALUE DUP1 ISZERO PUSH2 0x176 JUMPI PUSH0 DUP1 REVERT JUMPDEST POP PUSH2 0x191 PUSH1 0x4 DUP1 CALLDATASIZE SUB DUP2 ADD SWAP1 PUSH2 0x18C SWAP2 SWAP1 PUSH2 0x3355 JUMP JUMPDEST PUSH2 0x8AA JUMP JUMPDEST PUSH1 0x40 MLOAD PUSH2 0x19E SWAP2 SWAP1 PUSH2 0x33F3 JUMP JUMPDEST PUSH1 0x40 MLOAD DUP1 SWAP2 SUB SWAP1 RETURN JUMPDEST CALLVALUE DUP1 ISZERO PUSH2 0x1B2 JUMPI PUSH0 DUP1 REVERT JUMPDEST POP PUSH2 0x1BB PUSH2 0x8FE JUMP JUMPDEST PUSH1 0x40 MLOAD PUSH2 0x1C8 SWAP2 SWAP1 PUSH2 0x3424 JUMP JUMPDEST PUSH1 0x40 MLOAD DUP1 SWAP2 SUB SWAP1 RETURN JUMPDEST CALLVALUE DUP1 ISZERO PUSH2 0x1DC JUMPI PUSH0 DUP1 REVERT JUMPDEST POP PUSH2 0x1E5 PUSH2 0x904 JUMP JUMPDEST PUSH1 0x40 MLOAD PUSH2 0x1F2 SWAP2 SWAP1 PUSH2 0x3424 JUMP JUMPDEST PUSH1 0x40 MLOAD DUP1 SWAP2 SUB SWAP1 RETURN JUMPDEST CALLVALUE DUP1 ISZERO PUSH2 0x206 JUMPI PUSH0 DUP1 REVERT JUMPDEST POP PUSH2 0x221 PUSH1 0x4 DUP1 CALLDATASIZE SUB DUP2 ADD SWAP1 PUSH2 0x21C SWAP2 SWAP1 PUSH2 0x3355 JUMP JUMPDEST PUSH2 0x90A JUMP JUMPDEST PUSH1 0x40 MLOAD PUSH2 0x22E SWAP2 SWAP1 PUSH2 0x3424 JUMP JUMPDEST PUSH1 0x40 MLOAD DUP1 SWAP2 SUB SWAP1 RETURN JUMPDEST CALLVALUE DUP1 ISZERO PUSH2 0x242 JUMPI PUSH0 DUP1 REVERT JUMPDEST POP PUSH2 0x25D PUSH1 0x4 DUP1 CALLDATASIZE SUB DUP2 ADD SWAP1 PUSH2 0x258 SWAP2 SWAP1 PUSH2 0x3467 JUMP JUMPDEST PUSH2 0xA01 JUMP JUMPDEST STOP JUMPDEST CALLVALUE DUP1 ISZERO PUSH2 0x26A JUMPI PUSH0 DUP1 REVERT JUMPDEST POP PUSH2 0x285 PUSH1 0x4 DUP1 CALLDATASIZE SUB DUP2 ADD SWAP1 PUSH2 0x280 SWAP2 SWAP1 PUSH2 0x3355 JUMP JUMPDEST PUSH2 0xA6A JUMP JUMPDEST STOP JUMPDEST CALLVALUE DUP1 ISZERO PUSH2 0x292 JUMPI PUSH0 DUP1 REVERT JUMPDEST POP PUSH2 0x2AD PUSH1 0x4 DUP1 CALLDATASIZE SUB DUP2 ADD SWAP1 PUSH2 0x2A8 SWAP2 SWAP1 PUSH2 0x34C8 JUMP JUMPDEST PUSH2 0xD02 JUMP JUMPDEST STOP JUMPDEST CALLVALUE DUP1 ISZERO PUSH2 0x2BA JUMPI PUSH0 DUP1 REVERT JUMPDEST POP PUSH2 0x2D5 PUSH1 0x4 DUP1 CALLDATASIZE SUB DUP2 ADD SWAP1 PUSH2 0x2D0 SWAP2 SWAP1 PUSH2 0x3467 JUMP JUMPDEST PUSH2 0xD0F JUMP JUMPDEST STOP JUMPDEST CALLVALUE DUP1 ISZERO PUSH2 0x2E2 JUMPI PUSH0 DUP1 REVERT JUMPDEST POP PUSH2 0x2EB PUSH2 0xD19 JUMP JUMPDEST PUSH1 0x40 MLOAD PUSH2 0x2F8 SWAP2 SWAP1 PUSH2 0x354E JUMP JUMPDEST PUSH1 0x40 MLOAD DUP1 SWAP2 SUB SWAP1 RETURN JUMPDEST PUSH2 0x309 PUSH2 0xD3E JUMP JUMPDEST STOP JUMPDEST CALLVALUE DUP1 ISZERO PUSH2 0x316 JUMPI PUSH0 DUP1 REVERT JUMPDEST POP PUSH2 0x331 PUSH1 0x4 DUP1 CALLDATASIZE SUB DUP2 ADD SWAP1 PUSH2 0x32C SWAP2 SWAP1 PUSH2 0x36AF JUMP JUMPDEST PUSH2 0xE36 JUMP JUMPDEST STOP JUMPDEST CALLVALUE DUP1 ISZERO PUSH2 0x33E JUMPI PUSH0 DUP1 REVERT JUMPDEST POP PUSH2 0x347 PUSH2 0x106E JUMP JUMPDEST PUSH1 0x40 MLOAD PUSH2 0x354 SWAP2 SWAP1 PUSH2 0x3424 JUMP JUMPDEST PUSH1 0x40 MLOAD DUP1 SWAP2 SUB SWAP1 RETURN JUMPDEST CALLVALUE DUP1 ISZERO PUSH2 0x368 JUMPI PUSH0 DUP1 REVERT JUMPDEST POP PUSH2 0x383 PUSH1 0x4 DUP1 CALLDATASIZE SUB DUP2 ADD SWAP1 PUSH2 0x37E SWAP2 SWAP1 PUSH2 0x3467 JUMP JUMPDEST PUSH2 0x1074 JUMP JUMPDEST PUSH1 0x40 MLOAD PUSH2 0x390 SWAP2 SWAP1 PUSH2 0x37AD JUMP JUMPDEST PUSH1 0x40 MLOAD DUP1 SWAP2 SUB SWAP1 RETURN JUMPDEST CALLVALUE DUP1 ISZERO PUSH2 0x3A4 JUMPI PUSH0 DUP1 REVERT JUMPDEST POP PUSH2 0x3BF PUSH1 0x4 DUP1 CALLDATASIZE SUB DUP2 ADD SWAP1 PUSH2 0x3BA SWAP2 SWAP1 PUSH2 0x3355 JUMP JUMPDEST PUSH2 0x14F8 JUMP JUMPDEST PUSH1 0x40 MLOAD PUSH2 0x3CF SWAP5 SWAP4 SWAP3 SWAP2 SWAP1 PUSH2 0x3877 JUMP JUMPDEST PUSH1 0x40 MLOAD DUP1 SWAP2 SUB SWAP1 RETURN JUMPDEST CALLVALUE DUP1 ISZERO PUSH2 0x3E3 JUMPI PUSH0 DUP1 REVERT JUMPDEST POP PUSH2 0x3EC PUSH2 0x15D1 JUMP JUMPDEST PUSH1 0x40 MLOAD PUSH2 0x3F9 SWAP2 SWAP1 PUSH2 0x398F JUMP JUMPDEST PUSH1 0x40 MLOAD DUP1 SWAP2 SUB SWAP1 RETURN JUMPDEST CALLVALUE DUP1 ISZERO PUSH2 0x40D JUMPI PUSH0 DUP1 REVERT JUMPDEST POP PUSH2 0x428 PUSH1 0x4 DUP1 CALLDATASIZE SUB DUP2 ADD SWAP1 PUSH2 0x423 SWAP2 SWAP1 PUSH2 0x3467 JUMP JUMPDEST PUSH2 0x168B JUMP JUMPDEST STOP JUMPDEST CALLVALUE DUP1 ISZERO PUSH2 0x435 JUMPI PUSH0 DUP1 REVERT JUMPDEST POP PUSH2 0x43E PUSH2 0x1695 JUMP JUMPDEST STOP JUMPDEST PUSH2 0x45A PUSH1 0x4 DUP1 CALLDATASIZE SUB DUP2 ADD SWAP1 PUSH2 0x455 SWAP2 SWAP1 PUSH2 0x39D9 JUMP JUMPDEST PUSH2 0x1945 JUMP JUMPDEST STOP JUMPDEST CALLVALUE DUP1 ISZERO PUSH2 0x467 JUMPI PUSH0 DUP1 REVERT JUMPDEST POP PUSH2 0x470 PUSH2 0x22D1 JUMP JUMPDEST PUSH1 0x40 MLOAD PUSH2 0x47D SWAP2 SWAP1 PUSH2 0x3424 JUMP JUMPDEST PUSH1 0x40 MLOAD DUP1 SWAP2 SUB SWAP1 RETURN JUMPDEST PUSH1 0x1 PUSH1 0x4 DUP2 GT ISZERO PUSH2 0x49A JUMPI PUSH2 0x499 PUSH2 0x3380 JUMP JUMPDEST JUMPDEST PUSH1 0x5 PUSH0 CALLER PUSH20 0xFFFFFFFFFFFFFFFFFFFFFFFFFFFFFFFFFFFFFFFF AND PUSH20 0xFFFFFFFFFFFFFFFFFFFFFFFFFFFFFFFFFFFFFFFF AND DUP2 MSTORE PUSH1 0x20 ADD SWAP1 DUP2 MSTORE PUSH1 0x20 ADD PUSH0 KECCAK256 PUSH0 ADD PUSH0 SWAP1 SLOAD SWAP1 PUSH2 0x100 EXP SWAP1 DIV PUSH1 0xFF AND PUSH1 0x4 DUP2 GT ISZERO PUSH2 0x4F8 JUMPI PUSH2 0x4F7 PUSH2 0x3380 JUMP JUMPDEST JUMPDEST EQ DUP1 PUSH2 0x573 JUMPI POP PUSH1 0x2 PUSH1 0x4 DUP2 GT ISZERO PUSH2 0x513 JUMPI PUSH2 0x512 PUSH2 0x3380 JUMP JUMPDEST JUMPDEST PUSH1 0x5 PUSH0 CALLER PUSH20 0xFFFFFFFFFFFFFFFFFFFFFFFFFFFFFFFFFFFFFFFF AND PUSH20 0xFFFFFFFFFFFFFFFFFFFFFFFFFFFFFFFFFFFFFFFF AND DUP2 MSTORE PUSH1 0x20 ADD SWAP1 DUP2 MSTORE PUSH1 0x20 ADD PUSH0 KECCAK256 PUSH0 ADD PUSH0 SWAP1 SLOAD SWAP1 PUSH2 0x100 EXP SWAP1 DIV PUSH1 0xFF AND PUSH1 0x4 DUP2 GT ISZERO PUSH2 0x571 JUMPI PUSH2 0x570 PUSH2 0x3380 JUMP JUMPDEST JUMPDEST EQ JUMPDEST PUSH2 0x5B2 JUMPI PUSH1 0x40 MLOAD PUSH32 0x8C379A000000000000000000000000000000000000000000000000000000000 DUP2 MSTORE PUSH1 0x4 ADD PUSH2 0x5A9 SWAP1 PUSH2 0x3A97 JUMP JUMPDEST PUSH1 0x40 MLOAD DUP1 SWAP2 SUB SWAP1 REVERT JUMPDEST PUSH1 0x2 PUSH1 0x4 DUP2 GT ISZERO PUSH2 0x5C6 JUMPI PUSH2 0x5C5 PUSH2 0x3380 JUMP JUMPDEST JUMPDEST PUSH1 0x5 PUSH0 CALLER PUSH20 0xFFFFFFFFFFFFFFFFFFFFFFFFFFFFFFFFFFFFFFFF AND PUSH20 0xFFFFFFFFFFFFFFFFFFFFFFFFFFFFFFFFFFFFFFFF AND DUP2 MSTORE PUSH1 0x20 ADD SWAP1 DUP2 MSTORE PUSH1 0x20 ADD PUSH0 KECCAK256 PUSH0 ADD PUSH0 SWAP1 SLOAD SWAP1 PUSH2 0x100 EXP SWAP1 DIV PUSH1 0xFF AND PUSH1 0x4 DUP2 GT ISZERO PUSH2 0x624 JUMPI PUSH2 0x623 PUSH2 0x3380 JUMP JUMPDEST JUMPDEST SUB PUSH2 0x6AD JUMPI PUSH0 CALLER PUSH20 0xFFFFFFFFFFFFFFFFFFFFFFFFFFFFFFFFFFFFFFFF AND PUSH2 0x64A CALLER PUSH2 0x90A JUMP JUMPDEST PUSH1 0x40 MLOAD PUSH2 0x656 SWAP1 PUSH2 0x3AE2 JUMP JUMPDEST PUSH0 PUSH1 0x40 MLOAD DUP1 DUP4 SUB DUP2 DUP6 DUP8 GAS CALL SWAP3 POP POP POP RETURNDATASIZE DUP1 PUSH0 DUP2 EQ PUSH2 0x690 JUMPI PUSH1 0x40 MLOAD SWAP2 POP PUSH1 0x1F NOT PUSH1 0x3F RETURNDATASIZE ADD AND DUP3 ADD PUSH1 0x40 MSTORE RETURNDATASIZE DUP3 MSTORE RETURNDATASIZE PUSH0 PUSH1 0x20 DUP5 ADD RETURNDATACOPY PUSH2 0x695 JUMP JUMPDEST PUSH1 0x60 SWAP2 POP JUMPDEST POP POP SWAP1 POP DUP1 PUSH2 0x6A2 JUMPI PUSH0 DUP1 REVERT JUMPDEST PUSH2 0x6AB CALLER PUSH2 0x22D6 JUMP JUMPDEST POP JUMPDEST PUSH0 PUSH1 0x5 PUSH0 CALLER PUSH20 0xFFFFFFFFFFFFFFFFFFFFFFFFFFFFFFFFFFFFFFFF AND PUSH20 0xFFFFFFFFFFFFFFFFFFFFFFFFFFFFFFFFFFFFFFFF AND DUP2 MSTORE PUSH1 0x20 ADD SWAP1 DUP2 MSTORE PUSH1 0x20 ADD PUSH0 KECCAK256 PUSH0 ADD PUSH0 PUSH2 0x100 EXP DUP2 SLOAD DUP2 PUSH1 0xFF MUL NOT AND SWAP1 DUP4 PUSH1 0x4 DUP2 GT ISZERO PUSH2 0x70E JUMPI PUSH2 0x70D PUSH2 0x3380 JUMP JUMPDEST JUMPDEST MUL OR SWAP1 SSTORE POP CALLER PUSH20 0xFFFFFFFFFFFFFFFFFFFFFFFFFFFFFFFFFFFFFFFF AND PUSH32 0x5DC92BD127A226F63F8B2D797038C2785670AC843A149D9DAE8ACE040B9A79EF PUSH1 0x40 MLOAD PUSH1 0x40 MLOAD DUP1 SWAP2 SUB SWAP1 LOG2 JUMP JUMPDEST PUSH0 PUSH1 0x3 DUP2 GT ISZERO PUSH2 0x76B JUMPI PUSH2 0x76A PUSH2 0x3380 JUMP JUMPDEST JUMPDEST PUSH1 0x4 PUSH0 SWAP1 SLOAD SWAP1 PUSH2 0x100 EXP SWAP1 DIV PUSH20 0xFFFFFFFFFFFFFFFFFFFFFFFFFFFFFFFFFFFFFFFF AND PUSH20 0xFFFFFFFFFFFFFFFFFFFFFFFFFFFFFFFFFFFFFFFF AND PUSH4 0xAC8377EB CALLER PUSH1 0x40 MLOAD DUP3 PUSH4 0xFFFFFFFF AND PUSH1 0xE0 SHL DUP2 MSTORE PUSH1 0x4 ADD PUSH2 0x7C5 SWAP2 SWAP1 PUSH2 0x3AF6 JUMP JUMPDEST PUSH1 0x20 PUSH1 0x40 MLOAD DUP1 DUP4 SUB DUP2 DUP7 GAS STATICCALL ISZERO DUP1 ISZERO PUSH2 0x7E0 JUMPI RETURNDATASIZE PUSH0 DUP1 RETURNDATACOPY RETURNDATASIZE PUSH0 REVERT JUMPDEST POP POP POP POP PUSH1 0x40 MLOAD RETURNDATASIZE PUSH1 0x1F NOT PUSH1 0x1F DUP3 ADD AND DUP3 ADD DUP1 PUSH1 0x40 MSTORE POP DUP2 ADD SWAP1 PUSH2 0x804 SWAP2 SWAP1 PUSH2 0x3B32 JUMP JUMPDEST PUSH1 0x3 DUP2 GT ISZERO PUSH2 0x816 JUMPI PUSH2 0x815 PUSH2 0x3380 JUMP JUMPDEST JUMPDEST SUB PUSH2 0x856 JUMPI PUSH1 0x40 MLOAD PUSH32 0x8C379A000000000000000000000000000000000000000000000000000000000 DUP2 MSTORE PUSH1 0x4 ADD PUSH2 0x84D SWAP1 PUSH2 0x3BA7 JUMP JUMPDEST PUSH1 0x40 MLOAD DUP1 SWAP2 SUB SWAP1 REVERT JUMPDEST PUSH0 JUMPDEST DUP3 DUP3 SWAP1 POP DUP2 GT PUSH2 0x8A5 JUMPI PUSH2 0x892 DUP4 DUP4 DUP4 DUP2 DUP2 LT PUSH2 0x878 JUMPI PUSH2 0x877 PUSH2 0x3BC5 JUMP JUMPDEST JUMPDEST SWAP1 POP PUSH1 0x20 MUL ADD PUSH1 0x20 DUP2 ADD SWAP1 PUSH2 0x88D SWAP2 SWAP1 PUSH2 0x3355 JUMP JUMPDEST PUSH2 0x25DA JUMP JUMPDEST DUP1 DUP1 PUSH2 0x89D SWAP1 PUSH2 0x3C1F JUMP JUMPDEST SWAP2 POP POP PUSH2 0x858 JUMP JUMPDEST POP POP POP JUMP JUMPDEST PUSH0 PUSH1 0x5 PUSH0 DUP4 PUSH20 0xFFFFFFFFFFFFFFFFFFFFFFFFFFFFFFFFFFFFFFFF AND PUSH20 0xFFFFFFFFFFFFFFFFFFFFFFFFFFFFFFFFFFFFFFFF AND DUP2 MSTORE PUSH1 0x20 ADD SWAP1 DUP2 MSTORE PUSH1 0x20 ADD PUSH0 KECCAK256 PUSH0 ADD PUSH0 SWAP1 SLOAD SWAP1 PUSH2 0x100 EXP SWAP1 DIV PUSH1 0xFF AND SWAP1 POP SWAP2 SWAP1 POP JUMP JUMPDEST PUSH1 0x3 SLOAD DUP2 JUMP JUMPDEST PUSH1 0x2 SLOAD DUP2 JUMP JUMPDEST PUSH0 DUP1 PUSH1 0x5 PUSH0 DUP5 PUSH20 0xFFFFFFFFFFFFFFFFFFFFFFFFFFFFFFFFFFFFFFFF AND PUSH20 0xFFFFFFFFFFFFFFFFFFFFFFFFFFFFFFFFFFFFFFFF AND DUP2 MSTORE PUSH1 0x20 ADD SWAP1 DUP2 MSTORE PUSH1 0x20 ADD PUSH0 KECCAK256 PUSH1 0x1 ADD PUSH1 0x40 MLOAD DUP1 PUSH1 0x80 ADD PUSH1 0x40 MSTORE SWAP1 DUP2 PUSH0 DUP3 ADD PUSH0 SWAP1 SLOAD SWAP1 PUSH2 0x100 EXP SWAP1 DIV PUSH16 0xFFFFFFFFFFFFFFFFFFFFFFFFFFFFFFFF AND PUSH16 0xFFFFFFFFFFFFFFFFFFFFFFFFFFFFFFFF AND PUSH16 0xFFFFFFFFFFFFFFFFFFFFFFFFFFFFFFFF AND DUP2 MSTORE PUSH1 0x20 ADD PUSH1 0x1 DUP3 ADD SLOAD DUP2 MSTORE PUSH1 0x20 ADD PUSH1 0x2 DUP3 ADD PUSH0 SWAP1 SLOAD SWAP1 PUSH2 0x100 EXP SWAP1 DIV PUSH1 0xFF AND PUSH1 0xFF AND PUSH1 0xFF AND DUP2 MSTORE PUSH1 0x20 ADD PUSH1 0x3 DUP3 ADD SLOAD DUP2 MSTORE POP POP SWAP1 POP PUSH2 0x9F9 DUP2 PUSH0 ADD MLOAD PUSH16 0xFFFFFFFFFFFFFFFFFFFFFFFFFFFFFFFF AND DUP3 PUSH1 0x20 ADD MLOAD DUP4 PUSH1 0x40 ADD MLOAD PUSH2 0x26AC JUMP JUMPDEST SWAP2 POP POP SWAP2 SWAP1 POP JUMP JUMPDEST PUSH8 0xDE0B6B3A7640000 PUSH1 0x64 PUSH2 0xA16 SWAP2 SWAP1 PUSH2 0x3C66 JUMP JUMPDEST DUP2 GT ISZERO PUSH2 0xA21 JUMPI PUSH0 DUP1 REVERT JUMPDEST PUSH2 0x16D PUSH8 0xDE0B6B3A7640000 PUSH1 0x64 PUSH2 0xA39 SWAP2 SWAP1 PUSH2 0x3C66 JUMP JUMPDEST DUP3 PUSH9 0x1BC16D674EC800000 PUSH2 0xA4E SWAP2 SWAP1 PUSH2 0x3C66 JUMP JUMPDEST PUSH2 0xA58 SWAP2 SWAP1 PUSH2 0x3CD4 JUMP JUMPDEST PUSH2 0xA62 SWAP2 SWAP1 PUSH2 0x3CD4 JUMP JUMPDEST PUSH0 DUP2 SWAP1 SSTORE POP POP JUMP JUMPDEST PUSH0 PUSH1 0x3 DUP2 GT ISZERO PUSH2 0xA7D JUMPI PUSH2 0xA7C PUSH2 0x3380 JUMP JUMPDEST JUMPDEST PUSH1 0x4 PUSH0 SWAP1 SLOAD SWAP1 PUSH2 0x100 EXP SWAP1 DIV PUSH20 0xFFFFFFFFFFFFFFFFFFFFFFFFFFFFFFFFFFFFFFFF AND PUSH20 0xFFFFFFFFFFFFFFFFFFFFFFFFFFFFFFFFFFFFFFFF AND PUSH4 0xAC8377EB CALLER PUSH1 0x40 MLOAD DUP3 PUSH4 0xFFFFFFFF AND PUSH1 0xE0 SHL DUP2 MSTORE PUSH1 0x4 ADD PUSH2 0xAD7 SWAP2 SWAP1 PUSH2 0x3AF6 JUMP JUMPDEST PUSH1 0x20 PUSH1 0x40 MLOAD DUP1 DUP4 SUB DUP2 DUP7 GAS STATICCALL ISZERO DUP1 ISZERO PUSH2 0xAF2 JUMPI RETURNDATASIZE PUSH0 DUP1 RETURNDATACOPY RETURNDATASIZE PUSH0 REVERT JUMPDEST POP POP POP POP PUSH1 0x40 MLOAD RETURNDATASIZE PUSH1 0x1F NOT PUSH1 0x1F DUP3 ADD AND DUP3 ADD DUP1 PUSH1 0x40 MSTORE POP DUP2 ADD SWAP1 PUSH2 0xB16 SWAP2 SWAP1 PUSH2 0x3B32 JUMP JUMPDEST PUSH1 0x3 DUP2 GT ISZERO PUSH2 0xB28 JUMPI PUSH2 0xB27 PUSH2 0x3380 JUMP JUMPDEST JUMPDEST SUB PUSH2 0xB68 JUMPI PUSH1 0x40 MLOAD PUSH32 0x8C379A000000000000000000000000000000000000000000000000000000000 DUP2 MSTORE PUSH1 0x4 ADD PUSH2 0xB5F SWAP1 PUSH2 0x3BA7 JUMP JUMPDEST PUSH1 0x40 MLOAD DUP1 SWAP2 SUB SWAP1 REVERT JUMPDEST DUP1 CALLER PUSH20 0xFFFFFFFFFFFFFFFFFFFFFFFFFFFFFFFFFFFFFFFF AND PUSH1 0x5 PUSH0 DUP4 PUSH20 0xFFFFFFFFFFFFFFFFFFFFFFFFFFFFFFFFFFFFFFFF AND PUSH20 0xFFFFFFFFFFFFFFFFFFFFFFFFFFFFFFFFFFFFFFFF AND DUP2 MSTORE PUSH1 0x20 ADD SWAP1 DUP2 MSTORE PUSH1 0x20 ADD PUSH0 KECCAK256 PUSH1 0x5 ADD PUSH0 SWAP1 SLOAD SWAP1 PUSH2 0x100 EXP SWAP1 DIV PUSH20 0xFFFFFFFFFFFFFFFFFFFFFFFFFFFFFFFFFFFFFFFF AND PUSH20 0xFFFFFFFFFFFFFFFFFFFFFFFFFFFFFFFFFFFFFFFF AND EQ PUSH2 0xC36 JUMPI PUSH1 0x40 MLOAD PUSH32 0x8C379A000000000000000000000000000000000000000000000000000000000 DUP2 MSTORE PUSH1 0x4 ADD PUSH2 0xC2D SWAP1 PUSH2 0x3D74 JUMP JUMPDEST PUSH1 0x40 MLOAD DUP1 SWAP2 SUB SWAP1 REVERT JUMPDEST TIMESTAMP PUSH1 0x5 PUSH0 DUP5 PUSH20 0xFFFFFFFFFFFFFFFFFFFFFFFFFFFFFFFFFFFFFFFF AND PUSH20 0xFFFFFFFFFFFFFFFFFFFFFFFFFFFFFFFFFFFFFFFF AND DUP2 MSTORE PUSH1 0x20 ADD SWAP1 DUP2 MSTORE PUSH1 0x20 ADD PUSH0 KECCAK256 PUSH1 0x6 ADD DUP2 SWAP1 SSTORE POP PUSH0 DUP3 PUSH20 0xFFFFFFFFFFFFFFFFFFFFFFFFFFFFFFFFFFFFFFFF AND PUSH2 0xC9C DUP5 PUSH2 0x90A JUMP JUMPDEST PUSH1 0x40 MLOAD PUSH2 0xCA8 SWAP1 PUSH2 0x3AE2 JUMP JUMPDEST PUSH0 PUSH1 0x40 MLOAD DUP1 DUP4 SUB DUP2 DUP6 DUP8 GAS CALL SWAP3 POP POP POP RETURNDATASIZE DUP1 PUSH0 DUP2 EQ PUSH2 0xCE2 JUMPI PUSH1 0x40 MLOAD SWAP2 POP PUSH1 0x1F NOT PUSH1 0x3F RETURNDATASIZE ADD AND DUP3 ADD PUSH1 0x40 MSTORE RETURNDATASIZE DUP3 MSTORE RETURNDATASIZE PUSH0 PUSH1 0x20 DUP5 ADD RETURNDATACOPY PUSH2 0xCE7 JUMP JUMPDEST PUSH1 0x60 SWAP2 POP JUMPDEST POP POP SWAP1 POP DUP1 PUSH2 0xCF4 JUMPI PUSH0 DUP1 REVERT JUMPDEST PUSH2 0xCFD CALLER PUSH2 0x22D6 JUMP JUMPDEST POP POP POP JUMP JUMPDEST DUP1 PUSH1 0xFF AND PUSH1 0x2 DUP2 SWAP1 SSTORE POP POP JUMP JUMPDEST DUP1 PUSH1 0x3 DUP2 SWAP1 SSTORE POP POP JUMP JUMPDEST PUSH1 0x4 PUSH0 SWAP1 SLOAD SWAP1 PUSH2 0x100 EXP SWAP1 DIV PUSH20 0xFFFFFFFFFFFFFFFFFFFFFFFFFFFFFFFFFFFFFFFF AND DUP2 JUMP JUMPDEST PUSH1 0x3 SLOAD CALLVALUE EQ PUSH2 0xD82 JUMPI PUSH1 0x40 MLOAD PUSH32 0x8C379A000000000000000000000000000000000000000000000000000000000 DUP2 MSTORE PUSH1 0x4 ADD PUSH2 0xD79 SWAP1 PUSH2 0x3DDC JUMP JUMPDEST PUSH1 0x40 MLOAD DUP1 SWAP2 SUB SWAP1 REVERT JUMPDEST PUSH1 0x1 PUSH1 0x5 PUSH0 CALLER PUSH20 0xFFFFFFFFFFFFFFFFFFFFFFFFFFFFFFFFFFFFFFFF AND PUSH20 0xFFFFFFFFFFFFFFFFFFFFFFFFFFFFFFFFFFFFFFFF AND DUP2 MSTORE PUSH1 0x20 ADD SWAP1 DUP2 MSTORE PUSH1 0x20 ADD PUSH0 KECCAK256 PUSH0 ADD PUSH0 PUSH2 0x100 EXP DUP2 SLOAD DUP2 PUSH1 0xFF MUL NOT AND SWAP1 DUP4 PUSH1 0x4 DUP2 GT ISZERO PUSH2 0xDE4 JUMPI PUSH2 0xDE3 PUSH2 0x3380 JUMP JUMPDEST JUMPDEST MUL OR SWAP1 SSTORE POP CALLER PUSH20 0xFFFFFFFFFFFFFFFFFFFFFFFFFFFFFFFFFFFFFFFF AND PUSH32 0xD7BE58B616384857424B5A7E83ABF416670578F50B00140A1D8F1E42050EE8CA PUSH1 0x40 MLOAD PUSH1 0x40 MLOAD DUP1 SWAP2 SUB SWAP1 LOG2 PUSH2 0xE34 PUSH2 0x26D0 JUMP JUMPDEST JUMP JUMPDEST PUSH0 PUSH1 0x3 DUP2 GT ISZERO PUSH2 0xE49 JUMPI PUSH2 0xE48 PUSH2 0x3380 JUMP JUMPDEST JUMPDEST PUSH1 0x4 PUSH0 SWAP1 SLOAD SWAP1 PUSH2 0x100 EXP SWAP1 DIV PUSH20 0xFFFFFFFFFFFFFFFFFFFFFFFFFFFFFFFFFFFFFFFF AND PUSH20 0xFFFFFFFFFFFFFFFFFFFFFFFFFFFFFFFFFFFFFFFF AND PUSH4 0xAC8377EB CALLER PUSH1 0x40 MLOAD DUP3 PUSH4 0xFFFFFFFF AND PUSH1 0xE0 SHL DUP2 MSTORE PUSH1 0x4 ADD PUSH2 0xEA3 SWAP2 SWAP1 PUSH2 0x3AF6 JUMP JUMPDEST PUSH1 0x20 PUSH1 0x40 MLOAD DUP1 DUP4 SUB DUP2 DUP7 GAS STATICCALL ISZERO DUP1 ISZERO PUSH2 0xEBE JUMPI RETURNDATASIZE PUSH0 DUP1 RETURNDATACOPY RETURNDATASIZE PUSH0 REVERT JUMPDEST POP POP POP POP PUSH1 0x40 MLOAD RETURNDATASIZE PUSH1 0x1F NOT PUSH1 0x1F DUP3 ADD AND DUP3 ADD DUP1 PUSH1 0x40 MSTORE POP DUP2 ADD SWAP1 PUSH2 0xEE2 SWAP2 SWAP1 PUSH2 0x3B32 JUMP JUMPDEST PUSH1 0x3 DUP2 GT ISZERO PUSH2 0xEF4 JUMPI PUSH2 0xEF3 PUSH2 0x3380 JUMP JUMPDEST JUMPDEST SUB PUSH2 0xF34 JUMPI PUSH1 0x40 MLOAD PUSH32 0x8C379A000000000000000000000000000000000000000000000000000000000 DUP2 MSTORE PUSH1 0x4 ADD PUSH2 0xF2B SWAP1 PUSH2 0x3BA7 JUMP JUMPDEST PUSH1 0x40 MLOAD DUP1 SWAP2 SUB SWAP1 REVERT JUMPDEST PUSH0 JUMPDEST DUP2 MLOAD DUP2 GT PUSH2 0x106A JUMPI PUSH0 PUSH1 0x5 PUSH0 DUP5 DUP5 DUP2 MLOAD DUP2 LT PUSH2 0xF55 JUMPI PUSH2 0xF54 PUSH2 0x3BC5 JUMP JUMPDEST JUMPDEST PUSH1 0x20 MUL PUSH1 0x20 ADD ADD MLOAD PUSH20 0xFFFFFFFFFFFFFFFFFFFFFFFFFFFFFFFFFFFFFFFF AND PUSH20 0xFFFFFFFFFFFFFFFFFFFFFFFFFFFFFFFFFFFFFFFF AND DUP2 MSTORE PUSH1 0x20 ADD SWAP1 DUP2 MSTORE PUSH1 0x20 ADD PUSH0 KECCAK256 PUSH1 0x5 ADD PUSH0 PUSH2 0x100 EXP DUP2 SLOAD DUP2 PUSH20 0xFFFFFFFFFFFFFFFFFFFFFFFFFFFFFFFFFFFFFFFF MUL NOT AND SWAP1 DUP4 PUSH20 0xFFFFFFFFFFFFFFFFFFFFFFFFFFFFFFFFFFFFFFFF AND MUL OR SWAP1 SSTORE POP PUSH1 0x1 PUSH1 0x5 PUSH0 DUP5 DUP5 DUP2 MLOAD DUP2 LT PUSH2 0xFEE JUMPI PUSH2 0xFED PUSH2 0x3BC5 JUMP JUMPDEST JUMPDEST PUSH1 0x20 MUL PUSH1 0x20 ADD ADD MLOAD PUSH20 0xFFFFFFFFFFFFFFFFFFFFFFFFFFFFFFFFFFFFFFFF AND PUSH20 0xFFFFFFFFFFFFFFFFFFFFFFFFFFFFFFFFFFFFFFFF AND DUP2 MSTORE PUSH1 0x20 ADD SWAP1 DUP2 MSTORE PUSH1 0x20 ADD PUSH0 KECCAK256 PUSH0 ADD PUSH0 PUSH2 0x100 EXP DUP2 SLOAD DUP2 PUSH1 0xFF MUL NOT AND SWAP1 DUP4 PUSH1 0x4 DUP2 GT ISZERO PUSH2 0x1052 JUMPI PUSH2 0x1051 PUSH2 0x3380 JUMP JUMPDEST JUMPDEST MUL OR SWAP1 SSTORE POP DUP1 DUP1 PUSH2 0x1062 SWAP1 PUSH2 0x3C1F JUMP JUMPDEST SWAP2 POP POP PUSH2 0xF36 JUMP JUMPDEST POP POP JUMP JUMPDEST PUSH1 0x1 SLOAD DUP2 JUMP JUMPDEST PUSH1 0x60 PUSH0 PUSH1 0x3 DUP2 GT ISZERO PUSH2 0x1089 JUMPI PUSH2 0x1088 PUSH2 0x3380 JUMP JUMPDEST JUMPDEST PUSH1 0x4 PUSH0 SWAP1 SLOAD SWAP1 PUSH2 0x100 EXP SWAP1 DIV PUSH20 0xFFFFFFFFFFFFFFFFFFFFFFFFFFFFFFFFFFFFFFFF AND PUSH20 0xFFFFFFFFFFFFFFFFFFFFFFFFFFFFFFFFFFFFFFFF AND PUSH4 0xAC8377EB CALLER PUSH1 0x40 MLOAD DUP3 PUSH4 0xFFFFFFFF AND PUSH1 0xE0 SHL DUP2 MSTORE PUSH1 0x4 ADD PUSH2 0x10E3 SWAP2 SWAP1 PUSH2 0x3AF6 JUMP JUMPDEST PUSH1 0x20 PUSH1 0x40 MLOAD DUP1 DUP4 SUB DUP2 DUP7 GAS STATICCALL ISZERO DUP1 ISZERO PUSH2 0x10FE JUMPI RETURNDATASIZE PUSH0 DUP1 RETURNDATACOPY RETURNDATASIZE PUSH0 REVERT JUMPDEST POP POP POP POP PUSH1 0x40 MLOAD RETURNDATASIZE PUSH1 0x1F NOT PUSH1 0x1F DUP3 ADD AND DUP3 ADD DUP1 PUSH1 0x40 MSTORE POP DUP2 ADD SWAP1 PUSH2 0x1122 SWAP2 SWAP1 PUSH2 0x3B32 JUMP JUMPDEST PUSH1 0x3 DUP2 GT ISZERO PUSH2 0x1134 JUMPI PUSH2 0x1133 PUSH2 0x3380 JUMP JUMPDEST JUMPDEST SUB PUSH2 0x1174 JUMPI PUSH1 0x40 MLOAD PUSH32 0x8C379A000000000000000000000000000000000000000000000000000000000 DUP2 MSTORE PUSH1 0x4 ADD PUSH2 0x116B SWAP1 PUSH2 0x3BA7 JUMP JUMPDEST PUSH1 0x40 MLOAD DUP1 SWAP2 SUB SWAP1 REVERT JUMPDEST PUSH1 0x60 PUSH2 0x11B4 PUSH1 0x40 MLOAD DUP1 PUSH1 0x40 ADD PUSH1 0x40 MSTORE DUP1 PUSH1 0x1C DUP2 MSTORE PUSH1 0x20 ADD PUSH32 0x737461727465642072657175657374696E67206F70657261746F727300000000 DUP2 MSTORE POP PUSH2 0x2754 JUMP JUMPDEST DUP3 PUSH1 0x6 DUP1 SLOAD SWAP1 POP LT ISZERO PUSH2 0x13F1 JUMPI PUSH0 JUMPDEST DUP4 DUP2 GT PUSH2 0x13EF JUMPI PUSH0 PUSH1 0x6 DUP3 DUP2 SLOAD DUP2 LT PUSH2 0x11DF JUMPI PUSH2 0x11DE PUSH2 0x3BC5 JUMP JUMPDEST JUMPDEST SWAP1 PUSH0 MSTORE PUSH1 0x20 PUSH0 KECCAK256 SWAP1 PUSH1 0x2 MUL ADD PUSH0 ADD PUSH0 SWAP1 SLOAD SWAP1 PUSH2 0x100 EXP SWAP1 DIV PUSH20 0xFFFFFFFFFFFFFFFFFFFFFFFFFFFFFFFFFFFFFFFF AND SWAP1 POP DUP5 DUP4 MLOAD LT ISZERO PUSH2 0x13D5 JUMPI PUSH1 0x2 PUSH1 0x4 DUP2 GT ISZERO PUSH2 0x122C JUMPI PUSH2 0x122B PUSH2 0x3380 JUMP JUMPDEST JUMPDEST PUSH1 0x5 PUSH0 DUP4 PUSH20 0xFFFFFFFFFFFFFFFFFFFFFFFFFFFFFFFFFFFFFFFF AND PUSH20 0xFFFFFFFFFFFFFFFFFFFFFFFFFFFFFFFFFFFFFFFF AND DUP2 MSTORE PUSH1 0x20 ADD SWAP1 DUP2 MSTORE PUSH1 0x20 ADD PUSH0 KECCAK256 PUSH0 ADD PUSH0 SWAP1 SLOAD SWAP1 PUSH2 0x100 EXP SWAP1 DIV PUSH1 0xFF AND PUSH1 0x4 DUP2 GT ISZERO PUSH2 0x128A JUMPI PUSH2 0x1289 PUSH2 0x3380 JUMP JUMPDEST JUMPDEST SUB PUSH2 0x13D0 JUMPI DUP1 DUP4 PUSH1 0x1 DUP6 MLOAD PUSH2 0x129F SWAP2 SWAP1 PUSH2 0x3DFA JUMP JUMPDEST DUP2 MLOAD DUP2 LT PUSH2 0x12B0 JUMPI PUSH2 0x12AF PUSH2 0x3BC5 JUMP JUMPDEST JUMPDEST PUSH1 0x20 MUL PUSH1 0x20 ADD ADD SWAP1 PUSH20 0xFFFFFFFFFFFFFFFFFFFFFFFFFFFFFFFFFFFFFFFF AND SWAP1 DUP2 PUSH20 0xFFFFFFFFFFFFFFFFFFFFFFFFFFFFFFFFFFFFFFFF AND DUP2 MSTORE POP POP CALLER PUSH1 0x5 PUSH0 DUP4 PUSH20 0xFFFFFFFFFFFFFFFFFFFFFFFFFFFFFFFFFFFFFFFF AND PUSH20 0xFFFFFFFFFFFFFFFFFFFFFFFFFFFFFFFFFFFFFFFF AND DUP2 MSTORE PUSH1 0x20 ADD SWAP1 DUP2 MSTORE PUSH1 0x20 ADD PUSH0 KECCAK256 PUSH1 0x5 ADD PUSH0 PUSH2 0x100 EXP DUP2 SLOAD DUP2 PUSH20 0xFFFFFFFFFFFFFFFFFFFFFFFFFFFFFFFFFFFFFFFF MUL NOT AND SWAP1 DUP4 PUSH20 0xFFFFFFFFFFFFFFFFFFFFFFFFFFFFFFFFFFFFFFFF AND MUL OR SWAP1 SSTORE POP PUSH1 0x3 PUSH1 0x5 PUSH0 DUP4 PUSH20 0xFFFFFFFFFFFFFFFFFFFFFFFFFFFFFFFFFFFFFFFF AND PUSH20 0xFFFFFFFFFFFFFFFFFFFFFFFFFFFFFFFFFFFFFFFF AND DUP2 MSTORE PUSH1 0x20 ADD SWAP1 DUP2 MSTORE PUSH1 0x20 ADD PUSH0 KECCAK256 PUSH0 ADD PUSH0 PUSH2 0x100 EXP DUP2 SLOAD DUP2 PUSH1 0xFF MUL NOT AND SWAP1 DUP4 PUSH1 0x4 DUP2 GT ISZERO PUSH2 0x13CA JUMPI PUSH2 0x13C9 PUSH2 0x3380 JUMP JUMPDEST JUMPDEST MUL OR SWAP1 SSTORE POP JUMPDEST PUSH2 0x13DB JUMP JUMPDEST POP PUSH2 0x13EF JUMP JUMPDEST POP DUP1 DUP1 PUSH2 0x13E7 SWAP1 PUSH2 0x3C1F JUMP JUMPDEST SWAP2 POP POP PUSH2 0x11C3 JUMP JUMPDEST POP JUMPDEST PUSH2 0x142F PUSH1 0x40 MLOAD DUP1 PUSH1 0x40 ADD PUSH1 0x40 MSTORE DUP1 PUSH1 0xC DUP2 MSTORE PUSH1 0x20 ADD PUSH32 0x6E6561726C792074686572650000000000000000000000000000000000000000 DUP2 MSTORE POP PUSH2 0x2754 JUMP JUMPDEST DUP3 DUP2 MLOAD LT ISZERO PUSH2 0x14B1 JUMPI PUSH2 0x1476 PUSH1 0x40 MLOAD DUP1 PUSH1 0x40 ADD PUSH1 0x40 MSTORE DUP1 PUSH1 0xE DUP2 MSTORE PUSH1 0x20 ADD PUSH32 0x61626F757420746F206372617368000000000000000000000000000000000000 DUP2 MSTORE POP PUSH2 0x2754 JUMP JUMPDEST PUSH1 0x40 MLOAD PUSH32 0x8C379A000000000000000000000000000000000000000000000000000000000 DUP2 MSTORE PUSH1 0x4 ADD PUSH2 0x14A8 SWAP1 PUSH2 0x3E9D JUMP JUMPDEST PUSH1 0x40 MLOAD DUP1 SWAP2 SUB SWAP1 REVERT JUMPDEST PUSH2 0x14EF PUSH1 0x40 MLOAD DUP1 PUSH1 0x40 ADD PUSH1 0x40 MSTORE DUP1 PUSH1 0x6 DUP2 MSTORE PUSH1 0x20 ADD PUSH32 0x7A6F6F6F6F6D0000000000000000000000000000000000000000000000000000 DUP2 MSTORE POP PUSH2 0x2754 JUMP JUMPDEST DUP1 SWAP2 POP POP SWAP2 SWAP1 POP JUMP JUMPDEST PUSH1 0x5 PUSH1 0x20 MSTORE DUP1 PUSH0 MSTORE PUSH1 0x40 PUSH0 KECCAK256 PUSH0 SWAP2 POP SWAP1 POP DUP1 PUSH0 ADD PUSH0 SWAP1 SLOAD SWAP1 PUSH2 0x100 EXP SWAP1 DIV PUSH1 0xFF AND SWAP1 DUP1 PUSH1 0x1 ADD PUSH1 0x40 MLOAD DUP1 PUSH1 0x80 ADD PUSH1 0x40 MSTORE SWAP1 DUP2 PUSH0 DUP3 ADD PUSH0 SWAP1 SLOAD SWAP1 PUSH2 0x100 EXP SWAP1 DIV PUSH16 0xFFFFFFFFFFFFFFFFFFFFFFFFFFFFFFFF AND PUSH16 0xFFFFFFFFFFFFFFFFFFFFFFFFFFFFFFFF AND PUSH16 0xFFFFFFFFFFFFFFFFFFFFFFFFFFFFFFFF AND DUP2 MSTORE PUSH1 0x20 ADD PUSH1 0x1 DUP3 ADD SLOAD DUP2 MSTORE PUSH1 0x20 ADD PUSH1 0x2 DUP3 ADD PUSH0 SWAP1 SLOAD SWAP1 PUSH2 0x100 EXP SWAP1 DIV PUSH1 0xFF AND PUSH1 0xFF AND PUSH1 0xFF AND DUP2 MSTORE PUSH1 0x20 ADD PUSH1 0x3 DUP3 ADD SLOAD DUP2 MSTORE POP POP SWAP1 DUP1 PUSH1 0x5 ADD PUSH0 SWAP1 SLOAD SWAP1 PUSH2 0x100 EXP SWAP1 DIV PUSH20 0xFFFFFFFFFFFFFFFFFFFFFFFFFFFFFFFFFFFFFFFF AND SWAP1 DUP1 PUSH1 0x6 ADD SLOAD SWAP1 POP DUP5 JUMP JUMPDEST PUSH1 0x60 PUSH1 0x6 DUP1 SLOAD DUP1 PUSH1 0x20 MUL PUSH1 0x20 ADD PUSH1 0x40 MLOAD SWAP1 DUP2 ADD PUSH1 0x40 MSTORE DUP1 SWAP3 SWAP2 SWAP1 DUP2 DUP2 MSTORE PUSH1 0x20 ADD PUSH0 SWAP1 JUMPDEST DUP3 DUP3 LT ISZERO PUSH2 0x1682 JUMPI DUP4 DUP3 SWAP1 PUSH0 MSTORE PUSH1 0x20 PUSH0 KECCAK256 SWAP1 PUSH1 0x2 MUL ADD PUSH1 0x40 MLOAD DUP1 PUSH1 0x40 ADD PUSH1 0x40 MSTORE SWAP1 DUP2 PUSH0 DUP3 ADD PUSH0 SWAP1 SLOAD SWAP1 PUSH2 0x100 EXP SWAP1 DIV PUSH20 0xFFFFFFFFFFFFFFFFFFFFFFFFFFFFFFFFFFFFFFFF AND PUSH20 0xFFFFFFFFFFFFFFFFFFFFFFFFFFFFFFFFFFFFFFFF AND PUSH20 0xFFFFFFFFFFFFFFFFFFFFFFFFFFFFFFFFFFFFFFFF AND DUP2 MSTORE PUSH1 0x20 ADD PUSH1 0x1 DUP3 ADD SLOAD DUP2 MSTORE POP POP DUP2 MSTORE PUSH1 0x20 ADD SWAP1 PUSH1 0x1 ADD SWAP1 PUSH2 0x15F4 JUMP JUMPDEST POP POP POP POP SWAP1 POP SWAP1 JUMP JUMPDEST DUP1 PUSH1 0x1 DUP2 SWAP1 SSTORE POP POP JUMP JUMPDEST PUSH1 0x1 PUSH1 0x5 PUSH0 CALLER PUSH20 0xFFFFFFFFFFFFFFFFFFFFFFFFFFFFFFFFFFFFFFFF AND PUSH20 0xFFFFFFFFFFFFFFFFFFFFFFFFFFFFFFFFFFFFFFFF AND DUP2 MSTORE PUSH1 0x20 ADD SWAP1 DUP2 MSTORE PUSH1 0x20 ADD PUSH0 KECCAK256 PUSH0 ADD PUSH0 PUSH2 0x100 EXP DUP2 SLOAD DUP2 PUSH1 0xFF MUL NOT AND SWAP1 DUP4 PUSH1 0x4 DUP2 GT ISZERO PUSH2 0x16F7 JUMPI PUSH2 0x16F6 PUSH2 0x3380 JUMP JUMPDEST JUMPDEST MUL OR SWAP1 SSTORE POP PUSH0 DUP1 SLOAD SWAP1 POP PUSH0 PUSH1 0x1 SWAP1 POP PUSH0 PUSH8 0x3782DACE9D900000 SWAP1 POP PUSH0 PUSH1 0xB4 SWAP1 POP PUSH0 PUSH1 0x64 PUSH8 0xDE0B6B3A7640000 PUSH2 0x172D SWAP2 SWAP1 PUSH2 0x3C66 JUMP JUMPDEST DUP4 DUP7 PUSH2 0x1739 SWAP2 SWAP1 PUSH2 0x3C66 JUMP JUMPDEST PUSH2 0x1743 SWAP2 SWAP1 PUSH2 0x3CD4 JUMP JUMPDEST DUP6 PUSH2 0x174E SWAP2 SWAP1 PUSH2 0x3EBB JUMP JUMPDEST SWAP1 POP PUSH0 PUSH2 0x176E DUP4 PUSH16 0xFFFFFFFFFFFFFFFFFFFFFFFFFFFFFFFF AND DUP4 DUP8 PUSH2 0x26AC JUMP JUMPDEST SWAP1 POP PUSH0 PUSH2 0x178D DUP5 PUSH16 0xFFFFFFFFFFFFFFFFFFFFFFFFFFFFFFFF AND DUP4 PUSH2 0x27ED JUMP JUMPDEST SWAP1 POP PUSH0 PUSH1 0x40 MLOAD DUP1 PUSH1 0x80 ADD PUSH1 0x40 MSTORE DUP1 DUP7 PUSH16 0xFFFFFFFFFFFFFFFFFFFFFFFFFFFFFFFF AND DUP2 MSTORE PUSH1 0x20 ADD DUP6 DUP2 MSTORE PUSH1 0x20 ADD DUP9 PUSH1 0xFF AND DUP2 MSTORE PUSH1 0x20 ADD DUP4 DUP2 MSTORE POP SWAP1 POP DUP1 PUSH1 0x5 PUSH0 CALLER PUSH20 0xFFFFFFFFFFFFFFFFFFFFFFFFFFFFFFFFFFFFFFFF AND PUSH20 0xFFFFFFFFFFFFFFFFFFFFFFFFFFFFFFFFFFFFFFFF AND DUP2 MSTORE PUSH1 0x20 ADD SWAP1 DUP2 MSTORE PUSH1 0x20 ADD PUSH0 KECCAK256 PUSH1 0x1 ADD PUSH0 DUP3 ADD MLOAD DUP2 PUSH0 ADD PUSH0 PUSH2 0x100 EXP DUP2 SLOAD DUP2 PUSH16 0xFFFFFFFFFFFFFFFFFFFFFFFFFFFFFFFF MUL NOT AND SWAP1 DUP4 PUSH16 0xFFFFFFFFFFFFFFFFFFFFFFFFFFFFFFFF AND MUL OR SWAP1 SSTORE POP PUSH1 0x20 DUP3 ADD MLOAD DUP2 PUSH1 0x1 ADD SSTORE PUSH1 0x40 DUP3 ADD MLOAD DUP2 PUSH1 0x2 ADD PUSH0 PUSH2 0x100 EXP DUP2 SLOAD DUP2 PUSH1 0xFF MUL NOT AND SWAP1 DUP4 PUSH1 0xFF AND MUL OR SWAP1 SSTORE POP PUSH1 0x60 DUP3 ADD MLOAD DUP2 PUSH1 0x3 ADD SSTORE SWAP1 POP POP PUSH2 0x1886 CALLER DUP4 PUSH2 0x281A JUMP JUMPDEST PUSH1 0x2 PUSH1 0x5 PUSH0 CALLER PUSH20 0xFFFFFFFFFFFFFFFFFFFFFFFFFFFFFFFFFFFFFFFF AND PUSH20 0xFFFFFFFFFFFFFFFFFFFFFFFFFFFFFFFFFFFFFFFF AND DUP2 MSTORE PUSH1 0x20 ADD SWAP1 DUP2 MSTORE PUSH1 0x20 ADD PUSH0 KECCAK256 PUSH0 ADD PUSH0 PUSH2 0x100 EXP DUP2 SLOAD DUP2 PUSH1 0xFF MUL NOT AND SWAP1 DUP4 PUSH1 0x4 DUP2 GT ISZERO PUSH2 0x18E8 JUMPI PUSH2 0x18E7 PUSH2 0x3380 JUMP JUMPDEST JUMPDEST MUL OR SWAP1 SSTORE POP CALLER PUSH20 0xFFFFFFFFFFFFFFFFFFFFFFFFFFFFFFFFFFFFFFFF AND PUSH32 0xBA39137D418A3E614E2E6FB8B7D8D27BBAB214ED1A9CBB8A2E148E9336E49432 DUP3 PUSH1 0x40 MLOAD PUSH2 0x1933 SWAP2 SWAP1 PUSH2 0x3EEE JUMP JUMPDEST PUSH1 0x40 MLOAD DUP1 SWAP2 SUB SWAP1 LOG2 POP POP POP POP POP POP POP POP JUMP JUMPDEST PUSH1 0x2 PUSH1 0x4 DUP2 GT ISZERO PUSH2 0x1959 JUMPI PUSH2 0x1958 PUSH2 0x3380 JUMP JUMPDEST JUMPDEST PUSH1 0x5 PUSH0 CALLER PUSH20 0xFFFFFFFFFFFFFFFFFFFFFFFFFFFFFFFFFFFFFFFF AND PUSH20 0xFFFFFFFFFFFFFFFFFFFFFFFFFFFFFFFFFFFFFFFF AND DUP2 MSTORE PUSH1 0x20 ADD SWAP1 DUP2 MSTORE PUSH1 0x20 ADD PUSH0 KECCAK256 PUSH0 ADD PUSH0 SWAP1 SLOAD SWAP1 PUSH2 0x100 EXP SWAP1 DIV PUSH1 0xFF AND PUSH1 0x4 DUP2 GT ISZERO PUSH2 0x19B7 JUMPI PUSH2 0x19B6 PUSH2 0x3380 JUMP JUMPDEST JUMPDEST EQ DUP1 PUSH2 0x1A32 JUMPI POP PUSH1 0x1 PUSH1 0x4 DUP2 GT ISZERO PUSH2 0x19D2 JUMPI PUSH2 0x19D1 PUSH2 0x3380 JUMP JUMPDEST JUMPDEST PUSH1 0x5 PUSH0 CALLER PUSH20 0xFFFFFFFFFFFFFFFFFFFFFFFFFFFFFFFFFFFFFFFF AND PUSH20 0xFFFFFFFFFFFFFFFFFFFFFFFFFFFFFFFFFFFFFFFF AND DUP2 MSTORE PUSH1 0x20 ADD SWAP1 DUP2 MSTORE PUSH1 0x20 ADD PUSH0 KECCAK256 PUSH0 ADD PUSH0 SWAP1 SLOAD SWAP1 PUSH2 0x100 EXP SWAP1 DIV PUSH1 0xFF AND PUSH1 0x4 DUP2 GT ISZERO PUSH2 0x1A30 JUMPI PUSH2 0x1A2F PUSH2 0x3380 JUMP JUMPDEST JUMPDEST EQ JUMPDEST PUSH2 0x1A71 JUMPI PUSH1 0x40 MLOAD PUSH32 0x8C379A000000000000000000000000000000000000000000000000000000000 DUP2 MSTORE PUSH1 0x4 ADD PUSH2 0x1A68 SWAP1 PUSH2 0x3F77 JUMP JUMPDEST PUSH1 0x40 MLOAD DUP1 SWAP2 SUB SWAP1 REVERT JUMPDEST PUSH1 0x2 SLOAD DUP3 PUSH16 0xFFFFFFFFFFFFFFFFFFFFFFFFFFFFFFFF AND LT ISZERO PUSH2 0x1AC8 JUMPI PUSH1 0x40 MLOAD PUSH32 0x8C379A000000000000000000000000000000000000000000000000000000000 DUP2 MSTORE PUSH1 0x4 ADD PUSH2 0x1ABF SWAP1 PUSH2 0x3FDF JUMP JUMPDEST PUSH1 0x40 MLOAD DUP1 SWAP2 SUB SWAP1 REVERT JUMPDEST PUSH0 DUP2 LT ISZERO DUP1 ISZERO PUSH2 0x1ADA JUMPI POP PUSH1 0x1 SLOAD DUP2 GT ISZERO JUMPDEST PUSH2 0x1B19 JUMPI PUSH1 0x40 MLOAD PUSH32 0x8C379A000000000000000000000000000000000000000000000000000000000 DUP2 MSTORE PUSH1 0x4 ADD PUSH2 0x1B10 SWAP1 PUSH2 0x4047 JUMP JUMPDEST PUSH1 0x40 MLOAD DUP1 SWAP2 SUB SWAP1 REVERT JUMPDEST PUSH0 DUP1 SLOAD SWAP1 POP PUSH2 0x1B5C PUSH1 0x40 MLOAD DUP1 PUSH1 0x40 ADD PUSH1 0x40 MSTORE DUP1 PUSH1 0x11 DUP2 MSTORE PUSH1 0x20 ADD PUSH32 0x4D6164652069742074686973206661722E000000000000000000000000000000 DUP2 MSTORE POP PUSH2 0x2754 JUMP JUMPDEST PUSH0 PUSH1 0x1 SWAP1 POP PUSH0 PUSH1 0x64 PUSH8 0xDE0B6B3A7640000 PUSH2 0x1B77 SWAP2 SWAP1 PUSH2 0x3C66 JUMP JUMPDEST DUP5 DUP5 PUSH2 0x1B83 SWAP2 SWAP1 PUSH2 0x3C66 JUMP JUMPDEST PUSH2 0x1B8D SWAP2 SWAP1 PUSH2 0x3CD4 JUMP JUMPDEST DUP4 PUSH2 0x1B98 SWAP2 SWAP1 PUSH2 0x3EBB JUMP JUMPDEST SWAP1 POP PUSH2 0x1BA3 DUP2 PUSH2 0x2C29 JUMP JUMPDEST PUSH0 PUSH2 0x1BC1 DUP7 PUSH16 0xFFFFFFFFFFFFFFFFFFFFFFFFFFFFFFFF AND DUP4 DUP6 PUSH2 0x26AC JUMP JUMPDEST SWAP1 POP PUSH2 0x1BCC DUP2 PUSH2 0x2C29 JUMP JUMPDEST PUSH1 0x2 PUSH1 0x4 DUP2 GT ISZERO PUSH2 0x1BE0 JUMPI PUSH2 0x1BDF PUSH2 0x3380 JUMP JUMPDEST JUMPDEST PUSH1 0x5 PUSH0 CALLER PUSH20 0xFFFFFFFFFFFFFFFFFFFFFFFFFFFFFFFFFFFFFFFF AND PUSH20 0xFFFFFFFFFFFFFFFFFFFFFFFFFFFFFFFFFFFFFFFF AND DUP2 MSTORE PUSH1 0x20 ADD SWAP1 DUP2 MSTORE PUSH1 0x20 ADD PUSH0 KECCAK256 PUSH0 ADD PUSH0 SWAP1 SLOAD SWAP1 PUSH2 0x100 EXP SWAP1 DIV PUSH1 0xFF AND PUSH1 0x4 DUP2 GT ISZERO PUSH2 0x1C3E JUMPI PUSH2 0x1C3D PUSH2 0x3380 JUMP JUMPDEST JUMPDEST SUB PUSH2 0x1FF3 JUMPI PUSH0 PUSH2 0x1D50 PUSH1 0x5 PUSH0 CALLER PUSH20 0xFFFFFFFFFFFFFFFFFFFFFFFFFFFFFFFFFFFFFFFF AND PUSH20 0xFFFFFFFFFFFFFFFFFFFFFFFFFFFFFFFFFFFFFFFF AND DUP2 MSTORE PUSH1 0x20 ADD SWAP1 DUP2 MSTORE PUSH1 0x20 ADD PUSH0 KECCAK256 PUSH1 0x1 ADD PUSH0 ADD PUSH0 SWAP1 SLOAD SWAP1 PUSH2 0x100 EXP SWAP1 DIV PUSH16 0xFFFFFFFFFFFFFFFFFFFFFFFFFFFFFFFF AND PUSH16 0xFFFFFFFFFFFFFFFFFFFFFFFFFFFFFFFF AND PUSH1 0x5 PUSH0 CALLER PUSH20 0xFFFFFFFFFFFFFFFFFFFFFFFFFFFFFFFFFFFFFFFF AND PUSH20 0xFFFFFFFFFFFFFFFFFFFFFFFFFFFFFFFFFFFFFFFF AND DUP2 MSTORE PUSH1 0x20 ADD SWAP1 DUP2 MSTORE PUSH1 0x20 ADD PUSH0 KECCAK256 PUSH1 0x1 ADD PUSH1 0x1 ADD SLOAD PUSH1 0x5 PUSH0 CALLER PUSH20 0xFFFFFFFFFFFFFFFFFFFFFFFFFFFFFFFFFFFFFFFF AND PUSH20 0xFFFFFFFFFFFFFFFFFFFFFFFFFFFFFFFFFFFFFFFF AND DUP2 MSTORE PUSH1 0x20 ADD SWAP1 DUP2 MSTORE PUSH1 0x20 ADD PUSH0 KECCAK256 PUSH1 0x1 ADD PUSH1 0x2 ADD PUSH0 SWAP1 SLOAD SWAP1 PUSH2 0x100 EXP SWAP1 DIV PUSH1 0xFF AND PUSH2 0x26AC JUMP JUMPDEST SWAP1 POP PUSH0 DUP2 PUSH2 0x1D71 DUP10 PUSH16 0xFFFFFFFFFFFFFFFFFFFFFFFFFFFFFFFF AND DUP7 DUP9 PUSH2 0x26AC JUMP JUMPDEST PUSH2 0x1D7B SWAP2 SWAP1 PUSH2 0x3EBB JUMP JUMPDEST SWAP1 POP PUSH0 DUP2 SGT ISZERO PUSH2 0x1DD3 JUMPI PUSH2 0x1D8F CALLVALUE DUP3 PUSH2 0x2CC2 JUMP JUMPDEST PUSH2 0x1DCE JUMPI PUSH1 0x40 MLOAD PUSH32 0x8C379A000000000000000000000000000000000000000000000000000000000 DUP2 MSTORE PUSH1 0x4 ADD PUSH2 0x1DC5 SWAP1 PUSH2 0x40D5 JUMP JUMPDEST PUSH1 0x40 MLOAD DUP1 SWAP2 SUB SWAP1 REVERT JUMPDEST PUSH2 0x1E86 JUMP JUMPDEST PUSH0 CALLER PUSH20 0xFFFFFFFFFFFFFFFFFFFFFFFFFFFFFFFFFFFFFFFF AND DUP3 PUSH2 0x1DF5 SWAP1 PUSH2 0x40FC JUMP JUMPDEST PUSH1 0x40 MLOAD PUSH2 0x1E01 SWAP1 PUSH2 0x3AE2 JUMP JUMPDEST PUSH0 PUSH1 0x40 MLOAD DUP1 DUP4 SUB DUP2 DUP6 DUP8 GAS CALL SWAP3 POP POP POP RETURNDATASIZE DUP1 PUSH0 DUP2 EQ PUSH2 0x1E3B JUMPI PUSH1 0x40 MLOAD SWAP2 POP PUSH1 0x1F NOT PUSH1 0x3F RETURNDATASIZE ADD AND DUP3 ADD PUSH1 0x40 MSTORE RETURNDATASIZE DUP3 MSTORE RETURNDATASIZE PUSH0 PUSH1 0x20 DUP5 ADD RETURNDATACOPY PUSH2 0x1E40 JUMP JUMPDEST PUSH1 0x60 SWAP2 POP JUMPDEST POP POP SWAP1 POP DUP1 PUSH2 0x1E84 JUMPI PUSH1 0x40 MLOAD PUSH32 0x8C379A000000000000000000000000000000000000000000000000000000000 DUP2 MSTORE PUSH1 0x4 ADD PUSH2 0x1E7B SWAP1 PUSH2 0x418C JUMP JUMPDEST PUSH1 0x40 MLOAD DUP1 SWAP2 SUB SWAP1 REVERT JUMPDEST POP JUMPDEST PUSH0 PUSH2 0x1EA3 DUP10 PUSH16 0xFFFFFFFFFFFFFFFFFFFFFFFFFFFFFFFF AND DUP6 PUSH2 0x27ED JUMP JUMPDEST SWAP1 POP PUSH0 PUSH1 0x40 MLOAD DUP1 PUSH1 0x80 ADD PUSH1 0x40 MSTORE DUP1 DUP12 PUSH16 0xFFFFFFFFFFFFFFFFFFFFFFFFFFFFFFFF AND DUP2 MSTORE PUSH1 0x20 ADD DUP8 DUP2 MSTORE PUSH1 0x20 ADD DUP9 PUSH1 0xFF AND DUP2 MSTORE PUSH1 0x20 ADD DUP4 DUP2 MSTORE POP SWAP1 POP DUP1 PUSH1 0x5 PUSH0 CALLER PUSH20 0xFFFFFFFFFFFFFFFFFFFFFFFFFFFFFFFFFFFFFFFF AND PUSH20 0xFFFFFFFFFFFFFFFFFFFFFFFFFFFFFFFFFFFFFFFF AND DUP2 MSTORE PUSH1 0x20 ADD SWAP1 DUP2 MSTORE PUSH1 0x20 ADD PUSH0 KECCAK256 PUSH1 0x1 ADD PUSH0 DUP3 ADD MLOAD DUP2 PUSH0 ADD PUSH0 PUSH2 0x100 EXP DUP2 SLOAD DUP2 PUSH16 0xFFFFFFFFFFFFFFFFFFFFFFFFFFFFFFFF MUL NOT AND SWAP1 DUP4 PUSH16 0xFFFFFFFFFFFFFFFFFFFFFFFFFFFFFFFF AND MUL OR SWAP1 SSTORE POP PUSH1 0x20 DUP3 ADD MLOAD DUP2 PUSH1 0x1 ADD SSTORE PUSH1 0x40 DUP3 ADD MLOAD DUP2 PUSH1 0x2 ADD PUSH0 PUSH2 0x100 EXP DUP2 SLOAD DUP2 PUSH1 0xFF MUL NOT AND SWAP1 DUP4 PUSH1 0xFF AND MUL OR SWAP1 SSTORE POP PUSH1 0x60 DUP3 ADD MLOAD DUP2 PUSH1 0x3 ADD SSTORE SWAP1 POP POP PUSH2 0x1F9C CALLER DUP4 PUSH2 0x2D20 JUMP JUMPDEST CALLER PUSH20 0xFFFFFFFFFFFFFFFFFFFFFFFFFFFFFFFFFFFFFFFF AND PUSH32 0xBA39137D418A3E614E2E6FB8B7D8D27BBAB214ED1A9CBB8A2E148E9336E49432 DUP3 PUSH1 0x40 MLOAD PUSH2 0x1FE2 SWAP2 SWAP1 PUSH2 0x3EEE JUMP JUMPDEST PUSH1 0x40 MLOAD DUP1 SWAP2 SUB SWAP1 LOG2 POP POP POP POP PUSH2 0x22C1 JUMP JUMPDEST PUSH1 0x1 PUSH1 0x4 DUP2 GT ISZERO PUSH2 0x2007 JUMPI PUSH2 0x2006 PUSH2 0x3380 JUMP JUMPDEST JUMPDEST PUSH1 0x5 PUSH0 CALLER PUSH20 0xFFFFFFFFFFFFFFFFFFFFFFFFFFFFFFFFFFFFFFFF AND PUSH20 0xFFFFFFFFFFFFFFFFFFFFFFFFFFFFFFFFFFFFFFFF AND DUP2 MSTORE PUSH1 0x20 ADD SWAP1 DUP2 MSTORE PUSH1 0x20 ADD PUSH0 KECCAK256 PUSH0 ADD PUSH0 SWAP1 SLOAD SWAP1 PUSH2 0x100 EXP SWAP1 DIV PUSH1 0xFF AND PUSH1 0x4 DUP2 GT ISZERO PUSH2 0x2065 JUMPI PUSH2 0x2064 PUSH2 0x3380 JUMP JUMPDEST JUMPDEST SUB PUSH2 0x2285 JUMPI PUSH2 0x2074 CALLVALUE DUP3 PUSH2 0x2CC2 JUMP JUMPDEST PUSH2 0x20B3 JUMPI PUSH1 0x40 MLOAD PUSH32 0x8C379A000000000000000000000000000000000000000000000000000000000 DUP2 MSTORE PUSH1 0x4 ADD PUSH2 0x20AA SWAP1 PUSH2 0x40D5 JUMP JUMPDEST PUSH1 0x40 MLOAD DUP1 SWAP2 SUB SWAP1 REVERT JUMPDEST PUSH0 PUSH2 0x20D0 DUP8 PUSH16 0xFFFFFFFFFFFFFFFFFFFFFFFFFFFFFFFF AND DUP4 PUSH2 0x27ED JUMP JUMPDEST SWAP1 POP PUSH0 PUSH1 0x40 MLOAD DUP1 PUSH1 0x80 ADD PUSH1 0x40 MSTORE DUP1 DUP10 PUSH16 0xFFFFFFFFFFFFFFFFFFFFFFFFFFFFFFFF AND DUP2 MSTORE PUSH1 0x20 ADD DUP6 DUP2 MSTORE PUSH1 0x20 ADD DUP7 PUSH1 0xFF AND DUP2 MSTORE PUSH1 0x20 ADD DUP4 DUP2 MSTORE POP SWAP1 POP DUP1 PUSH1 0x5 PUSH0 CALLER PUSH20 0xFFFFFFFFFFFFFFFFFFFFFFFFFFFFFFFFFFFFFFFF AND PUSH20 0xFFFFFFFFFFFFFFFFFFFFFFFFFFFFFFFFFFFFFFFF AND DUP2 MSTORE PUSH1 0x20 ADD SWAP1 DUP2 MSTORE PUSH1 0x20 ADD PUSH0 KECCAK256 PUSH1 0x1 ADD PUSH0 DUP3 ADD MLOAD DUP2 PUSH0 ADD PUSH0 PUSH2 0x100 EXP DUP2 SLOAD DUP2 PUSH16 0xFFFFFFFFFFFFFFFFFFFFFFFFFFFFFFFF MUL NOT AND SWAP1 DUP4 PUSH16 0xFFFFFFFFFFFFFFFFFFFFFFFFFFFFFFFF AND MUL OR SWAP1 SSTORE POP PUSH1 0x20 DUP3 ADD MLOAD DUP2 PUSH1 0x1 ADD SSTORE PUSH1 0x40 DUP3 ADD MLOAD DUP2 PUSH1 0x2 ADD PUSH0 PUSH2 0x100 EXP DUP2 SLOAD DUP2 PUSH1 0xFF MUL NOT AND SWAP1 DUP4 PUSH1 0xFF AND MUL OR SWAP1 SSTORE POP PUSH1 0x60 DUP3 ADD MLOAD DUP2 PUSH1 0x3 ADD SSTORE SWAP1 POP POP PUSH2 0x21C9 CALLER DUP4 PUSH2 0x281A JUMP JUMPDEST PUSH1 0x2 PUSH1 0x5 PUSH0 CALLER PUSH20 0xFFFFFFFFFFFFFFFFFFFFFFFFFFFFFFFFFFFFFFFF AND PUSH20 0xFFFFFFFFFFFFFFFFFFFFFFFFFFFFFFFFFFFFFFFF AND DUP2 MSTORE PUSH1 0x20 ADD SWAP1 DUP2 MSTORE PUSH1 0x20 ADD PUSH0 KECCAK256 PUSH0 ADD PUSH0 PUSH2 0x100 EXP DUP2 SLOAD DUP2 PUSH1 0xFF MUL NOT AND SWAP1 DUP4 PUSH1 0x4 DUP2 GT ISZERO PUSH2 0x222B JUMPI PUSH2 0x222A PUSH2 0x3380 JUMP JUMPDEST JUMPDEST MUL OR SWAP1 SSTORE POP CALLER PUSH20 0xFFFFFFFFFFFFFFFFFFFFFFFFFFFFFFFFFFFFFFFF AND PUSH32 0xBA39137D418A3E614E2E6FB8B7D8D27BBAB214ED1A9CBB8A2E148E9336E49432 DUP3 PUSH1 0x40 MLOAD PUSH2 0x2276 SWAP2 SWAP1 PUSH2 0x3EEE JUMP JUMPDEST PUSH1 0x40 MLOAD DUP1 SWAP2 SUB SWAP1 LOG2 POP POP PUSH2 0x22C0 JUMP JUMPDEST PUSH1 0x40 MLOAD PUSH32 0x8C379A000000000000000000000000000000000000000000000000000000000 DUP2 MSTORE PUSH1 0x4 ADD PUSH2 0x22B7 SWAP1 PUSH2 0x41F4 JUMP JUMPDEST PUSH1 0x40 MLOAD DUP1 SWAP2 SUB SWAP1 REVERT JUMPDEST JUMPDEST PUSH2 0x22C9 PUSH2 0x26D0 JUMP JUMPDEST POP POP POP POP POP POP JUMP JUMPDEST PUSH0 SLOAD DUP2 JUMP JUMPDEST PUSH1 0x1 PUSH1 0x5 PUSH0 DUP4 PUSH20 0xFFFFFFFFFFFFFFFFFFFFFFFFFFFFFFFFFFFFFFFF AND PUSH20 0xFFFFFFFFFFFFFFFFFFFFFFFFFFFFFFFFFFFFFFFF AND DUP2 MSTORE PUSH1 0x20 ADD SWAP1 DUP2 MSTORE PUSH1 0x20 ADD PUSH0 KECCAK256 PUSH0 ADD PUSH0 PUSH2 0x100 EXP DUP2 SLOAD DUP2 PUSH1 0xFF MUL NOT AND SWAP1 DUP4 PUSH1 0x4 DUP2 GT ISZERO PUSH2 0x2338 JUMPI PUSH2 0x2337 PUSH2 0x3380 JUMP JUMPDEST JUMPDEST MUL OR SWAP1 SSTORE POP PUSH1 0x40 MLOAD DUP1 PUSH1 0x80 ADD PUSH1 0x40 MSTORE DUP1 PUSH0 PUSH16 0xFFFFFFFFFFFFFFFFFFFFFFFFFFFFFFFF AND DUP2 MSTORE PUSH1 0x20 ADD PUSH0 DUP2 MSTORE PUSH1 0x20 ADD PUSH0 PUSH1 0xFF AND DUP2 MSTORE PUSH1 0x20 ADD PUSH0 DUP2 MSTORE POP PUSH1 0x5 PUSH0 DUP4 PUSH20 0xFFFFFFFFFFFFFFFFFFFFFFFFFFFFFFFFFFFFFFFF AND PUSH20 0xFFFFFFFFFFFFFFFFFFFFFFFFFFFFFFFFFFFFFFFF AND DUP2 MSTORE PUSH1 0x20 ADD SWAP1 DUP2 MSTORE PUSH1 0x20 ADD PUSH0 KECCAK256 PUSH1 0x1 ADD PUSH0 DUP3 ADD MLOAD DUP2 PUSH0 ADD PUSH0 PUSH2 0x100 EXP DUP2 SLOAD DUP2 PUSH16 0xFFFFFFFFFFFFFFFFFFFFFFFFFFFFFFFF MUL NOT AND SWAP1 DUP4 PUSH16 0xFFFFFFFFFFFFFFFFFFFFFFFFFFFFFFFF AND MUL OR SWAP1 SSTORE POP PUSH1 0x20 DUP3 ADD MLOAD DUP2 PUSH1 0x1 ADD SSTORE PUSH1 0x40 DUP3 ADD MLOAD DUP2 PUSH1 0x2 ADD PUSH0 PUSH2 0x100 EXP DUP2 SLOAD DUP2 PUSH1 0xFF MUL NOT AND SWAP1 DUP4 PUSH1 0xFF AND MUL OR SWAP1 SSTORE POP PUSH1 0x60 DUP3 ADD MLOAD DUP2 PUSH1 0x3 ADD SSTORE SWAP1 POP POP PUSH0 JUMPDEST PUSH1 0x6 DUP1 SLOAD SWAP1 POP DUP2 GT PUSH2 0x25D6 JUMPI DUP2 PUSH20 0xFFFFFFFFFFFFFFFFFFFFFFFFFFFFFFFFFFFFFFFF AND PUSH1 0x6 DUP3 DUP2 SLOAD DUP2 LT PUSH2 0x245F JUMPI PUSH2 0x245E PUSH2 0x3BC5 JUMP JUMPDEST JUMPDEST SWAP1 PUSH0 MSTORE PUSH1 0x20 PUSH0 KECCAK256 SWAP1 PUSH1 0x2 MUL ADD PUSH0 ADD PUSH0 SWAP1 SLOAD SWAP1 PUSH2 0x100 EXP SWAP1 DIV PUSH20 0xFFFFFFFFFFFFFFFFFFFFFFFFFFFFFFFFFFFFFFFF AND PUSH20 0xFFFFFFFFFFFFFFFFFFFFFFFFFFFFFFFFFFFFFFFF AND SUB PUSH2 0x25C3 JUMPI PUSH1 0x6 PUSH1 0x1 PUSH1 0x6 DUP1 SLOAD SWAP1 POP PUSH2 0x24BC SWAP2 SWAP1 PUSH2 0x3EBB JUMP JUMPDEST DUP2 SLOAD DUP2 LT PUSH2 0x24CD JUMPI PUSH2 0x24CC PUSH2 0x3BC5 JUMP JUMPDEST JUMPDEST SWAP1 PUSH0 MSTORE PUSH1 0x20 PUSH0 KECCAK256 SWAP1 PUSH1 0x2 MUL ADD PUSH1 0x6 DUP3 DUP2 SLOAD DUP2 LT PUSH2 0x24ED JUMPI PUSH2 0x24EC PUSH2 0x3BC5 JUMP JUMPDEST JUMPDEST SWAP1 PUSH0 MSTORE PUSH1 0x20 PUSH0 KECCAK256 SWAP1 PUSH1 0x2 MUL ADD PUSH0 DUP3 ADD PUSH0 SWAP1 SLOAD SWAP1 PUSH2 0x100 EXP SWAP1 DIV PUSH20 0xFFFFFFFFFFFFFFFFFFFFFFFFFFFFFFFFFFFFFFFF AND DUP2 PUSH0 ADD PUSH0 PUSH2 0x100 EXP DUP2 SLOAD DUP2 PUSH20 0xFFFFFFFFFFFFFFFFFFFFFFFFFFFFFFFFFFFFFFFF MUL NOT AND SWAP1 DUP4 PUSH20 0xFFFFFFFFFFFFFFFFFFFFFFFFFFFFFFFFFFFFFFFF AND MUL OR SWAP1 SSTORE POP PUSH1 0x1 DUP3 ADD SLOAD DUP2 PUSH1 0x1 ADD SSTORE SWAP1 POP POP PUSH1 0x6 DUP1 SLOAD DUP1 PUSH2 0x257B JUMPI PUSH2 0x257A PUSH2 0x4212 JUMP JUMPDEST JUMPDEST PUSH1 0x1 SWAP1 SUB DUP2 DUP2 SWAP1 PUSH0 MSTORE PUSH1 0x20 PUSH0 KECCAK256 SWAP1 PUSH1 0x2 MUL ADD PUSH0 DUP1 DUP3 ADD PUSH0 PUSH2 0x100 EXP DUP2 SLOAD SWAP1 PUSH20 0xFFFFFFFFFFFFFFFFFFFFFFFFFFFFFFFFFFFFFFFF MUL NOT AND SWAP1 SSTORE PUSH1 0x1 DUP3 ADD PUSH0 SWAP1 SSTORE POP POP SWAP1 SSTORE PUSH2 0x25D6 JUMP JUMPDEST DUP1 DUP1 PUSH2 0x25CE SWAP1 PUSH2 0x3C1F JUMP JUMPDEST SWAP2 POP POP PUSH2 0x2428 JUMP JUMPDEST POP POP JUMP JUMPDEST DUP1 CALLER PUSH20 0xFFFFFFFFFFFFFFFFFFFFFFFFFFFFFFFFFFFFFFFF AND PUSH1 0x5 PUSH0 DUP4 PUSH20 0xFFFFFFFFFFFFFFFFFFFFFFFFFFFFFFFFFFFFFFFF AND PUSH20 0xFFFFFFFFFFFFFFFFFFFFFFFFFFFFFFFFFFFFFFFF AND DUP2 MSTORE PUSH1 0x20 ADD SWAP1 DUP2 MSTORE PUSH1 0x20 ADD PUSH0 KECCAK256 PUSH1 0x5 ADD PUSH0 SWAP1 SLOAD SWAP1 PUSH2 0x100 EXP SWAP1 DIV PUSH20 0xFFFFFFFFFFFFFFFFFFFFFFFFFFFFFFFFFFFFFFFF AND PUSH20 0xFFFFFFFFFFFFFFFFFFFFFFFFFFFFFFFFFFFFFFFF AND EQ PUSH2 0x26A8 JUMPI PUSH1 0x40 MLOAD PUSH32 0x8C379A000000000000000000000000000000000000000000000000000000000 DUP2 MSTORE PUSH1 0x4 ADD PUSH2 0x269F SWAP1 PUSH2 0x3D74 JUMP JUMPDEST PUSH1 0x40 MLOAD DUP1 SWAP2 SUB SWAP1 REVERT JUMPDEST POP POP JUMP JUMPDEST PUSH0 DUP2 PUSH1 0xFF AND DUP4 DUP6 PUSH2 0x26BD SWAP2 SWAP1 PUSH2 0x3C66 JUMP JUMPDEST PUSH2 0x26C7 SWAP2 SWAP1 PUSH2 0x3CD4 JUMP JUMPDEST SWAP1 POP SWAP4 SWAP3 POP POP POP JUMP JUMPDEST PUSH0 PUSH20 0x99B64ECDFD384E585E3C56F51135156436B5C113 SWAP1 POP PUSH0 DUP2 PUSH20 0xFFFFFFFFFFFFFFFFFFFFFFFFFFFFFFFFFFFFFFFF AND SELFBALANCE PUSH1 0x40 MLOAD PUSH2 0x270D SWAP1 PUSH2 0x3AE2 JUMP JUMPDEST PUSH0 PUSH1 0x40 MLOAD DUP1 DUP4 SUB DUP2 DUP6 DUP8 GAS CALL SWAP3 POP POP POP RETURNDATASIZE DUP1 PUSH0 DUP2 EQ PUSH2 0x2747 JUMPI PUSH1 0x40 MLOAD SWAP2 POP PUSH1 0x1F NOT PUSH1 0x3F RETURNDATASIZE ADD AND DUP3 ADD PUSH1 0x40 MSTORE RETURNDATASIZE DUP3 MSTORE RETURNDATASIZE PUSH0 PUSH1 0x20 DUP5 ADD RETURNDATACOPY PUSH2 0x274C JUMP JUMPDEST PUSH1 0x60 SWAP2 POP JUMPDEST POP POP SWAP1 POP POP POP JUMP JUMPDEST PUSH2 0x27EA DUP2 PUSH1 0x40 MLOAD PUSH1 0x24 ADD PUSH2 0x2768 SWAP2 SWAP1 PUSH2 0x42A9 JUMP JUMPDEST PUSH1 0x40 MLOAD PUSH1 0x20 DUP2 DUP4 SUB SUB DUP2 MSTORE SWAP1 PUSH1 0x40 MSTORE PUSH32 0x41304FAC00000000000000000000000000000000000000000000000000000000 PUSH28 0xFFFFFFFFFFFFFFFFFFFFFFFFFFFFFFFFFFFFFFFFFFFFFFFFFFFFFFFF NOT AND PUSH1 0x20 DUP3 ADD DUP1 MLOAD PUSH28 0xFFFFFFFFFFFFFFFFFFFFFFFFFFFFFFFFFFFFFFFFFFFFFFFFFFFFFFFF DUP4 DUP2 DUP4 AND OR DUP4 MSTORE POP POP POP POP PUSH2 0x31F0 JUMP JUMPDEST POP JUMP JUMPDEST PUSH0 PUSH2 0x16D DUP4 DUP4 DUP6 PUSH2 0x27FE SWAP2 SWAP1 PUSH2 0x3C66 JUMP JUMPDEST PUSH2 0x2808 SWAP2 SWAP1 PUSH2 0x3C66 JUMP JUMPDEST PUSH2 0x2812 SWAP2 SWAP1 PUSH2 0x3CD4 JUMP JUMPDEST SWAP1 POP SWAP3 SWAP2 POP POP JUMP JUMPDEST PUSH1 0x1 PUSH1 0x4 DUP2 GT ISZERO PUSH2 0x282E JUMPI PUSH2 0x282D PUSH2 0x3380 JUMP JUMPDEST JUMPDEST PUSH1 0x5 PUSH0 CALLER PUSH20 0xFFFFFFFFFFFFFFFFFFFFFFFFFFFFFFFFFFFFFFFF AND PUSH20 0xFFFFFFFFFFFFFFFFFFFFFFFFFFFFFFFFFFFFFFFF AND DUP2 MSTORE PUSH1 0x20 ADD SWAP1 DUP2 MSTORE PUSH1 0x20 ADD PUSH0 KECCAK256 PUSH0 ADD PUSH0 SWAP1 SLOAD SWAP1 PUSH2 0x100 EXP SWAP1 DIV PUSH1 0xFF AND PUSH1 0x4 DUP2 GT ISZERO PUSH2 0x288C JUMPI PUSH2 0x288B PUSH2 0x3380 JUMP JUMPDEST JUMPDEST EQ PUSH2 0x28CC JUMPI PUSH1 0x40 MLOAD PUSH32 0x8C379A000000000000000000000000000000000000000000000000000000000 DUP2 MSTORE PUSH1 0x4 ADD PUSH2 0x28C3 SWAP1 PUSH2 0x4313 JUMP JUMPDEST PUSH1 0x40 MLOAD DUP1 SWAP2 SUB SWAP1 REVERT JUMPDEST PUSH0 DUP1 PUSH1 0x6 DUP1 SLOAD SWAP1 POP SUB PUSH2 0x29BF JUMPI PUSH1 0x6 PUSH1 0x40 MLOAD DUP1 PUSH1 0x40 ADD PUSH1 0x40 MSTORE DUP1 DUP6 PUSH20 0xFFFFFFFFFFFFFFFFFFFFFFFFFFFFFFFFFFFFFFFF AND DUP2 MSTORE PUSH1 0x20 ADD DUP5 DUP2 MSTORE POP SWAP1 DUP1 PUSH1 0x1 DUP2 SLOAD ADD DUP1 DUP3 SSTORE DUP1 SWAP2 POP POP PUSH1 0x1 SWAP1 SUB SWAP1 PUSH0 MSTORE PUSH1 0x20 PUSH0 KECCAK256 SWAP1 PUSH1 0x2 MUL ADD PUSH0 SWAP1 SWAP2 SWAP1 SWAP2 SWAP1 SWAP2 POP PUSH0 DUP3 ADD MLOAD DUP2 PUSH0 ADD PUSH0 PUSH2 0x100 EXP DUP2 SLOAD DUP2 PUSH20 0xFFFFFFFFFFFFFFFFFFFFFFFFFFFFFFFFFFFFFFFF MUL NOT AND SWAP1 DUP4 PUSH20 0xFFFFFFFFFFFFFFFFFFFFFFFFFFFFFFFFFFFFFFFF AND MUL OR SWAP1 SSTORE POP PUSH1 0x20 DUP3 ADD MLOAD DUP2 PUSH1 0x1 ADD SSTORE POP POP PUSH2 0x29BA PUSH1 0x40 MLOAD DUP1 PUSH1 0x40 ADD PUSH1 0x40 MSTORE DUP1 PUSH1 0xE DUP2 MSTORE PUSH1 0x20 ADD PUSH32 0x536F2066617220736F20676F6F64000000000000000000000000000000000000 DUP2 MSTORE POP PUSH2 0x2754 JUMP JUMPDEST PUSH2 0x2C24 JUMP JUMPDEST PUSH2 0x29FD PUSH1 0x40 MLOAD DUP1 PUSH1 0x40 ADD PUSH1 0x40 MSTORE DUP1 PUSH1 0x7 DUP2 MSTORE PUSH1 0x20 ADD PUSH32 0x4578706C61696E00000000000000000000000000000000000000000000000000 DUP2 MSTORE POP PUSH2 0x2754 JUMP JUMPDEST PUSH0 JUMPDEST PUSH1 0x6 DUP1 SLOAD SWAP1 POP DUP2 LT ISZERO PUSH2 0x2B48 JUMPI PUSH0 DUP2 PUSH1 0x1 PUSH1 0x6 DUP1 SLOAD SWAP1 POP PUSH2 0x2A20 SWAP2 SWAP1 PUSH2 0x3EBB JUMP JUMPDEST PUSH2 0x2A2A SWAP2 SWAP1 PUSH2 0x3EBB JUMP JUMPDEST SWAP1 POP DUP4 PUSH1 0x6 DUP3 DUP2 SLOAD DUP2 LT PUSH2 0x2A41 JUMPI PUSH2 0x2A40 PUSH2 0x3BC5 JUMP JUMPDEST JUMPDEST SWAP1 PUSH0 MSTORE PUSH1 0x20 PUSH0 KECCAK256 SWAP1 PUSH1 0x2 MUL ADD PUSH1 0x1 ADD SLOAD GT PUSH2 0x2B34 JUMPI DUP1 SWAP3 POP PUSH1 0x6 DUP1 SLOAD SWAP1 POP PUSH1 0x1 DUP3 PUSH2 0x2A6C SWAP2 SWAP1 PUSH2 0x3DFA JUMP JUMPDEST LT ISZERO PUSH2 0x2B2F JUMPI PUSH1 0x6 DUP2 DUP2 SLOAD DUP2 LT PUSH2 0x2A86 JUMPI PUSH2 0x2A85 PUSH2 0x3BC5 JUMP JUMPDEST JUMPDEST SWAP1 PUSH0 MSTORE PUSH1 0x20 PUSH0 KECCAK256 SWAP1 PUSH1 0x2 MUL ADD PUSH1 0x6 PUSH1 0x1 DUP4 PUSH2 0x2AA1 SWAP2 SWAP1 PUSH2 0x3DFA JUMP JUMPDEST DUP2 SLOAD DUP2 LT PUSH2 0x2AB2 JUMPI PUSH2 0x2AB1 PUSH2 0x3BC5 JUMP JUMPDEST JUMPDEST SWAP1 PUSH0 MSTORE PUSH1 0x20 PUSH0 KECCAK256 SWAP1 PUSH1 0x2 MUL ADD PUSH0 DUP3 ADD PUSH0 SWAP1 SLOAD SWAP1 PUSH2 0x100 EXP SWAP1 DIV PUSH20 0xFFFFFFFFFFFFFFFFFFFFFFFFFFFFFFFFFFFFFFFF AND DUP2 PUSH0 ADD PUSH0 PUSH2 0x100 EXP DUP2 SLOAD DUP2 PUSH20 0xFFFFFFFFFFFFFFFFFFFFFFFFFFFFFFFFFFFFFFFF MUL NOT AND SWAP1 DUP4 PUSH20 0xFFFFFFFFFFFFFFFFFFFFFFFFFFFFFFFFFFFFFFFF AND MUL OR SWAP1 SSTORE POP PUSH1 0x1 DUP3 ADD SLOAD DUP2 PUSH1 0x1 ADD SSTORE SWAP1 POP POP JUMPDEST PUSH2 0x2B3A JUMP JUMPDEST POP PUSH2 0x2B48 JUMP JUMPDEST POP DUP1 DUP1 PUSH1 0x1 ADD SWAP2 POP POP PUSH2 0x29FF JUMP JUMPDEST POP PUSH2 0x2B87 PUSH1 0x40 MLOAD DUP1 PUSH1 0x40 ADD PUSH1 0x40 MSTORE DUP1 PUSH1 0x5 DUP2 MSTORE PUSH1 0x20 ADD PUSH32 0x5720482059000000000000000000000000000000000000000000000000000000 DUP2 MSTORE POP PUSH2 0x2754 JUMP JUMPDEST PUSH1 0x40 MLOAD DUP1 PUSH1 0x40 ADD PUSH1 0x40 MSTORE DUP1 DUP5 PUSH20 0xFFFFFFFFFFFFFFFFFFFFFFFFFFFFFFFFFFFFFFFF AND DUP2 MSTORE PUSH1 0x20 ADD DUP4 DUP2 MSTORE POP PUSH1 0x6 DUP3 DUP2 SLOAD DUP2 LT PUSH2 0x2BC6 JUMPI PUSH2 0x2BC5 PUSH2 0x3BC5 JUMP JUMPDEST JUMPDEST SWAP1 PUSH0 MSTORE PUSH1 0x20 PUSH0 KECCAK256 SWAP1 PUSH1 0x2 MUL ADD PUSH0 DUP3 ADD MLOAD DUP2 PUSH0 ADD PUSH0 PUSH2 0x100 EXP DUP2 SLOAD DUP2 PUSH20 0xFFFFFFFFFFFFFFFFFFFFFFFFFFFFFFFFFFFFFFFF MUL NOT AND SWAP1 DUP4 PUSH20 0xFFFFFFFFFFFFFFFFFFFFFFFFFFFFFFFFFFFFFFFF AND MUL OR SWAP1 SSTORE POP PUSH1 0x20 DUP3 ADD MLOAD DUP2 PUSH1 0x1 ADD SSTORE SWAP1 POP POP JUMPDEST POP POP POP JUMP JUMPDEST PUSH2 0x2CBF DUP2 PUSH1 0x40 MLOAD PUSH1 0x24 ADD PUSH2 0x2C3D SWAP2 SWAP1 PUSH2 0x3424 JUMP JUMPDEST PUSH1 0x40 MLOAD PUSH1 0x20 DUP2 DUP4 SUB SUB DUP2 MSTORE SWAP1 PUSH1 0x40 MSTORE PUSH32 0xF82C50F100000000000000000000000000000000000000000000000000000000 PUSH28 0xFFFFFFFFFFFFFFFFFFFFFFFFFFFFFFFFFFFFFFFFFFFFFFFFFFFFFFFF NOT AND PUSH1 0x20 DUP3 ADD DUP1 MLOAD PUSH28 0xFFFFFFFFFFFFFFFFFFFFFFFFFFFFFFFFFFFFFFFFFFFFFFFFFFFFFFFF DUP4 DUP2 DUP4 AND OR DUP4 MSTORE POP POP POP POP PUSH2 0x31F0 JUMP JUMPDEST POP JUMP JUMPDEST PUSH0 PUSH2 0x270F DUP3 PUSH2 0x2CD1 SWAP2 SWAP1 PUSH2 0x3C66 JUMP JUMPDEST PUSH2 0x2710 DUP5 PUSH2 0x2CDF SWAP2 SWAP1 PUSH2 0x3C66 JUMP JUMPDEST LT ISZERO DUP1 ISZERO PUSH2 0x2D08 JUMPI POP PUSH2 0x2711 DUP3 PUSH2 0x2CF6 SWAP2 SWAP1 PUSH2 0x3C66 JUMP JUMPDEST PUSH3 0x186A0 DUP5 PUSH2 0x2D05 SWAP2 SWAP1 PUSH2 0x3C66 JUMP JUMPDEST GT ISZERO JUMPDEST ISZERO PUSH2 0x2D16 JUMPI PUSH1 0x1 SWAP1 POP PUSH2 0x2D1A JUMP JUMPDEST PUSH0 SWAP1 POP JUMPDEST SWAP3 SWAP2 POP POP JUMP JUMPDEST PUSH1 0x2 PUSH1 0x4 DUP2 GT ISZERO PUSH2 0x2D34 JUMPI PUSH2 0x2D33 PUSH2 0x3380 JUMP JUMPDEST JUMPDEST PUSH1 0x5 PUSH0 CALLER PUSH20 0xFFFFFFFFFFFFFFFFFFFFFFFFFFFFFFFFFFFFFFFF AND PUSH20 0xFFFFFFFFFFFFFFFFFFFFFFFFFFFFFFFFFFFFFFFF AND DUP2 MSTORE PUSH1 0x20 ADD SWAP1 DUP2 MSTORE PUSH1 0x20 ADD PUSH0 KECCAK256 PUSH0 ADD PUSH0 SWAP1 SLOAD SWAP1 PUSH2 0x100 EXP SWAP1 DIV PUSH1 0xFF AND PUSH1 0x4 DUP2 GT ISZERO PUSH2 0x2D92 JUMPI PUSH2 0x2D91 PUSH2 0x3380 JUMP JUMPDEST JUMPDEST EQ PUSH2 0x2DD2 JUMPI PUSH1 0x40 MLOAD PUSH32 0x8C379A000000000000000000000000000000000000000000000000000000000 DUP2 MSTORE PUSH1 0x4 ADD PUSH2 0x2DC9 SWAP1 PUSH2 0x4313 JUMP JUMPDEST PUSH1 0x40 MLOAD DUP1 SWAP2 SUB SWAP1 REVERT JUMPDEST PUSH0 DUP1 PUSH0 PUSH1 0x1 PUSH1 0x6 DUP1 SLOAD SWAP1 POP PUSH2 0x2DE7 SWAP2 SWAP1 PUSH2 0x3EBB JUMP JUMPDEST SWAP1 POP JUMPDEST PUSH0 DUP2 LT PUSH2 0x2F66 JUMPI DUP4 PUSH1 0x6 DUP3 DUP2 SLOAD DUP2 LT PUSH2 0x2E06 JUMPI PUSH2 0x2E05 PUSH2 0x3BC5 JUMP JUMPDEST JUMPDEST SWAP1 PUSH0 MSTORE PUSH1 0x20 PUSH0 KECCAK256 SWAP1 PUSH1 0x2 MUL ADD PUSH1 0x1 ADD SLOAD GT PUSH2 0x2EDB JUMPI DUP1 SWAP3 POP PUSH1 0x6 DUP2 DUP2 SLOAD DUP2 LT PUSH2 0x2E32 JUMPI PUSH2 0x2E31 PUSH2 0x3BC5 JUMP JUMPDEST JUMPDEST SWAP1 PUSH0 MSTORE PUSH1 0x20 PUSH0 KECCAK256 SWAP1 PUSH1 0x2 MUL ADD PUSH1 0x6 PUSH1 0x1 DUP4 PUSH2 0x2E4D SWAP2 SWAP1 PUSH2 0x3DFA JUMP JUMPDEST DUP2 SLOAD DUP2 LT PUSH2 0x2E5E JUMPI PUSH2 0x2E5D PUSH2 0x3BC5 JUMP JUMPDEST JUMPDEST SWAP1 PUSH0 MSTORE PUSH1 0x20 PUSH0 KECCAK256 SWAP1 PUSH1 0x2 MUL ADD PUSH0 DUP3 ADD PUSH0 SWAP1 SLOAD SWAP1 PUSH2 0x100 EXP SWAP1 DIV PUSH20 0xFFFFFFFFFFFFFFFFFFFFFFFFFFFFFFFFFFFFFFFF AND DUP2 PUSH0 ADD PUSH0 PUSH2 0x100 EXP DUP2 SLOAD DUP2 PUSH20 0xFFFFFFFFFFFFFFFFFFFFFFFFFFFFFFFFFFFFFFFF MUL NOT AND SWAP1 DUP4 PUSH20 0xFFFFFFFFFFFFFFFFFFFFFFFFFFFFFFFFFFFFFFFF AND MUL OR SWAP1 SSTORE POP PUSH1 0x1 DUP3 ADD SLOAD DUP2 PUSH1 0x1 ADD SSTORE SWAP1 POP POP JUMPDEST DUP5 PUSH20 0xFFFFFFFFFFFFFFFFFFFFFFFFFFFFFFFFFFFFFFFF AND PUSH1 0x6 DUP3 DUP2 SLOAD DUP2 LT PUSH2 0x2F06 JUMPI PUSH2 0x2F05 PUSH2 0x3BC5 JUMP JUMPDEST JUMPDEST SWAP1 PUSH0 MSTORE PUSH1 0x20 PUSH0 KECCAK256 SWAP1 PUSH1 0x2 MUL ADD PUSH0 ADD PUSH0 SWAP1 SLOAD SWAP1 PUSH2 0x100 EXP SWAP1 DIV PUSH20 0xFFFFFFFFFFFFFFFFFFFFFFFFFFFFFFFFFFFFFFFF AND PUSH20 0xFFFFFFFFFFFFFFFFFFFFFFFFFFFFFFFFFFFFFFFF AND SUB PUSH2 0x2F53 JUMPI DUP1 SWAP2 POP JUMPDEST DUP1 DUP1 PUSH2 0x2F5E SWAP1 PUSH2 0x4331 JUMP JUMPDEST SWAP2 POP POP PUSH2 0x2DEA JUMP JUMPDEST POP DUP1 DUP3 GT ISZERO PUSH2 0x305C JUMPI PUSH0 PUSH1 0x1 DUP3 PUSH2 0x2F7D SWAP2 SWAP1 PUSH2 0x3DFA JUMP JUMPDEST SWAP1 POP JUMPDEST DUP3 DUP2 GT PUSH2 0x3056 JUMPI PUSH1 0x6 DUP2 DUP2 SLOAD DUP2 LT PUSH2 0x2F9B JUMPI PUSH2 0x2F9A PUSH2 0x3BC5 JUMP JUMPDEST JUMPDEST SWAP1 PUSH0 MSTORE PUSH1 0x20 PUSH0 KECCAK256 SWAP1 PUSH1 0x2 MUL ADD PUSH1 0x6 PUSH1 0x1 DUP4 PUSH2 0x2FB6 SWAP2 SWAP1 PUSH2 0x3EBB JUMP JUMPDEST DUP2 SLOAD DUP2 LT PUSH2 0x2FC7 JUMPI PUSH2 0x2FC6 PUSH2 0x3BC5 JUMP JUMPDEST JUMPDEST SWAP1 PUSH0 MSTORE PUSH1 0x20 PUSH0 KECCAK256 SWAP1 PUSH1 0x2 MUL ADD PUSH0 DUP3 ADD PUSH0 SWAP1 SLOAD SWAP1 PUSH2 0x100 EXP SWAP1 DIV PUSH20 0xFFFFFFFFFFFFFFFFFFFFFFFFFFFFFFFFFFFFFFFF AND DUP2 PUSH0 ADD PUSH0 PUSH2 0x100 EXP DUP2 SLOAD DUP2 PUSH20 0xFFFFFFFFFFFFFFFFFFFFFFFFFFFFFFFFFFFFFFFF MUL NOT AND SWAP1 DUP4 PUSH20 0xFFFFFFFFFFFFFFFFFFFFFFFFFFFFFFFFFFFFFFFF AND MUL OR SWAP1 SSTORE POP PUSH1 0x1 DUP3 ADD SLOAD DUP2 PUSH1 0x1 ADD SSTORE SWAP1 POP POP DUP1 DUP1 PUSH2 0x304E SWAP1 PUSH2 0x3C1F JUMP JUMPDEST SWAP2 POP POP PUSH2 0x2F80 JUMP JUMPDEST POP PUSH2 0x314E JUMP JUMPDEST DUP1 DUP3 LT ISZERO PUSH2 0x314D JUMPI PUSH0 PUSH1 0x1 DUP3 PUSH2 0x3072 SWAP2 SWAP1 PUSH2 0x3EBB JUMP JUMPDEST SWAP1 POP JUMPDEST DUP3 DUP2 LT PUSH2 0x314B JUMPI PUSH1 0x6 DUP2 DUP2 SLOAD DUP2 LT PUSH2 0x3090 JUMPI PUSH2 0x308F PUSH2 0x3BC5 JUMP JUMPDEST JUMPDEST SWAP1 PUSH0 MSTORE PUSH1 0x20 PUSH0 KECCAK256 SWAP1 PUSH1 0x2 MUL ADD PUSH1 0x6 PUSH1 0x1 DUP4 PUSH2 0x30AB SWAP2 SWAP1 PUSH2 0x3DFA JUMP JUMPDEST DUP2 SLOAD DUP2 LT PUSH2 0x30BC JUMPI PUSH2 0x30BB PUSH2 0x3BC5 JUMP JUMPDEST JUMPDEST SWAP1 PUSH0 MSTORE PUSH1 0x20 PUSH0 KECCAK256 SWAP1 PUSH1 0x2 MUL ADD PUSH0 DUP3 ADD PUSH0 SWAP1 SLOAD SWAP1 PUSH2 0x100 EXP SWAP1 DIV PUSH20 0xFFFFFFFFFFFFFFFFFFFFFFFFFFFFFFFFFFFFFFFF AND DUP2 PUSH0 ADD PUSH0 PUSH2 0x100 EXP DUP2 SLOAD DUP2 PUSH20 0xFFFFFFFFFFFFFFFFFFFFFFFFFFFFFFFFFFFFFFFF MUL NOT AND SWAP1 DUP4 PUSH20 0xFFFFFFFFFFFFFFFFFFFFFFFFFFFFFFFFFFFFFFFF AND MUL OR SWAP1 SSTORE POP PUSH1 0x1 DUP3 ADD SLOAD DUP2 PUSH1 0x1 ADD SSTORE SWAP1 POP POP DUP1 DUP1 PUSH2 0x3143 SWAP1 PUSH2 0x4331 JUMP JUMPDEST SWAP2 POP POP PUSH2 0x3075 JUMP JUMPDEST POP JUMPDEST JUMPDEST PUSH1 0x40 MLOAD DUP1 PUSH1 0x40 ADD PUSH1 0x40 MSTORE DUP1 DUP6 PUSH20 0xFFFFFFFFFFFFFFFFFFFFFFFFFFFFFFFFFFFFFFFF AND DUP2 MSTORE PUSH1 0x20 ADD DUP5 DUP2 MSTORE POP PUSH1 0x6 DUP4 DUP2 SLOAD DUP2 LT PUSH2 0x318D JUMPI PUSH2 0x318C PUSH2 0x3BC5 JUMP JUMPDEST JUMPDEST SWAP1 PUSH0 MSTORE PUSH1 0x20 PUSH0 KECCAK256 SWAP1 PUSH1 0x2 MUL ADD PUSH0 DUP3 ADD MLOAD DUP2 PUSH0 ADD PUSH0 PUSH2 0x100 EXP DUP2 SLOAD DUP2 PUSH20 0xFFFFFFFFFFFFFFFFFFFFFFFFFFFFFFFFFFFFFFFF MUL NOT AND SWAP1 DUP4 PUSH20 0xFFFFFFFFFFFFFFFFFFFFFFFFFFFFFFFFFFFFFFFF AND MUL OR SWAP1 SSTORE POP PUSH1 0x20 DUP3 ADD MLOAD DUP2 PUSH1 0x1 ADD SSTORE SWAP1 POP POP POP POP POP POP JUMP JUMPDEST PUSH2 0x3207 DUP2 PUSH2 0x31FF PUSH2 0x320A PUSH2 0x3229 JUMP JUMPDEST PUSH4 0xFFFFFFFF AND JUMP JUMPDEST POP JUMP JUMPDEST PUSH0 PUSH11 0x636F6E736F6C652E6C6F67 SWAP1 POP PUSH0 DUP1 DUP4 MLOAD PUSH1 0x20 DUP6 ADD DUP5 GAS STATICCALL POP POP POP JUMP JUMPDEST PUSH2 0x3234 DUP2 SWAP1 POP SWAP2 SWAP1 POP JUMP JUMPDEST PUSH2 0x323C PUSH2 0x4358 JUMP JUMPDEST JUMP JUMPDEST PUSH0 PUSH1 0x40 MLOAD SWAP1 POP SWAP1 JUMP JUMPDEST PUSH0 DUP1 REVERT JUMPDEST PUSH0 DUP1 REVERT JUMPDEST PUSH0 DUP1 REVERT JUMPDEST PUSH0 DUP1 REVERT JUMPDEST PUSH0 DUP1 REVERT JUMPDEST PUSH0 DUP1 DUP4 PUSH1 0x1F DUP5 ADD SLT PUSH2 0x3270 JUMPI PUSH2 0x326F PUSH2 0x324F JUMP JUMPDEST JUMPDEST DUP3 CALLDATALOAD SWAP1 POP PUSH8 0xFFFFFFFFFFFFFFFF DUP2 GT ISZERO PUSH2 0x328D JUMPI PUSH2 0x328C PUSH2 0x3253 JUMP JUMPDEST JUMPDEST PUSH1 0x20 DUP4 ADD SWAP2 POP DUP4 PUSH1 0x20 DUP3 MUL DUP4 ADD GT ISZERO PUSH2 0x32A9 JUMPI PUSH2 0x32A8 PUSH2 0x3257 JUMP JUMPDEST JUMPDEST SWAP3 POP SWAP3 SWAP1 POP JUMP JUMPDEST PUSH0 DUP1 PUSH1 0x20 DUP4 DUP6 SUB SLT ISZERO PUSH2 0x32C6 JUMPI PUSH2 0x32C5 PUSH2 0x3247 JUMP JUMPDEST JUMPDEST PUSH0 DUP4 ADD CALLDATALOAD PUSH8 0xFFFFFFFFFFFFFFFF DUP2 GT ISZERO PUSH2 0x32E3 JUMPI PUSH2 0x32E2 PUSH2 0x324B JUMP JUMPDEST JUMPDEST PUSH2 0x32EF DUP6 DUP3 DUP7 ADD PUSH2 0x325B JUMP JUMPDEST SWAP3 POP SWAP3 POP POP SWAP3 POP SWAP3 SWAP1 POP JUMP JUMPDEST PUSH0 PUSH20 0xFFFFFFFFFFFFFFFFFFFFFFFFFFFFFFFFFFFFFFFF DUP3 AND SWAP1 POP SWAP2 SWAP1 POP JUMP JUMPDEST PUSH0 PUSH2 0x3324 DUP3 PUSH2 0x32FB JUMP JUMPDEST SWAP1 POP SWAP2 SWAP1 POP JUMP JUMPDEST PUSH2 0x3334 DUP2 PUSH2 0x331A JUMP JUMPDEST DUP2 EQ PUSH2 0x333E JUMPI PUSH0 DUP1 REVERT JUMPDEST POP JUMP JUMPDEST PUSH0 DUP2 CALLDATALOAD SWAP1 POP PUSH2 0x334F DUP2 PUSH2 0x332B JUMP JUMPDEST SWAP3 SWAP2 POP POP JUMP JUMPDEST PUSH0 PUSH1 0x20 DUP3 DUP5 SUB SLT ISZERO PUSH2 0x336A JUMPI PUSH2 0x3369 PUSH2 0x3247 JUMP JUMPDEST JUMPDEST PUSH0 PUSH2 0x3377 DUP5 DUP3 DUP6 ADD PUSH2 0x3341 JUMP JUMPDEST SWAP2 POP POP SWAP3 SWAP2 POP POP JUMP JUMPDEST PUSH32 0x4E487B7100000000000000000000000000000000000000000000000000000000 PUSH0 MSTORE PUSH1 0x21 PUSH1 0x4 MSTORE PUSH1 0x24 PUSH0 REVERT JUMPDEST PUSH1 0x5 DUP2 LT PUSH2 0x33BE JUMPI PUSH2 0x33BD PUSH2 0x3380 JUMP JUMPDEST JUMPDEST POP JUMP JUMPDEST PUSH0 DUP2 SWAP1 POP PUSH2 0x33CE DUP3 PUSH2 0x33AD JUMP JUMPDEST SWAP2 SWAP1 POP JUMP JUMPDEST PUSH0 PUSH2 0x33DD DUP3 PUSH2 0x33C1 JUMP JUMPDEST SWAP1 POP SWAP2 SWAP1 POP JUMP JUMPDEST PUSH2 0x33ED DUP2 PUSH2 0x33D3 JUMP JUMPDEST DUP3 MSTORE POP POP JUMP JUMPDEST PUSH0 PUSH1 0x20 DUP3 ADD SWAP1 POP PUSH2 0x3406 PUSH0 DUP4 ADD DUP5 PUSH2 0x33E4 JUMP JUMPDEST SWAP3 SWAP2 POP POP JUMP JUMPDEST PUSH0 DUP2 SWAP1 POP SWAP2 SWAP1 POP JUMP JUMPDEST PUSH2 0x341E DUP2 PUSH2 0x340C JUMP JUMPDEST DUP3 MSTORE POP POP JUMP JUMPDEST PUSH0 PUSH1 0x20 DUP3 ADD SWAP1 POP PUSH2 0x3437 PUSH0 DUP4 ADD DUP5 PUSH2 0x3415 JUMP JUMPDEST SWAP3 SWAP2 POP POP JUMP JUMPDEST PUSH2 0x3446 DUP2 PUSH2 0x340C JUMP JUMPDEST DUP2 EQ PUSH2 0x3450 JUMPI PUSH0 DUP1 REVERT JUMPDEST POP JUMP JUMPDEST PUSH0 DUP2 CALLDATALOAD SWAP1 POP PUSH2 0x3461 DUP2 PUSH2 0x343D JUMP JUMPDEST SWAP3 SWAP2 POP POP JUMP JUMPDEST PUSH0 PUSH1 0x20 DUP3 DUP5 SUB SLT ISZERO PUSH2 0x347C JUMPI PUSH2 0x347B PUSH2 0x3247 JUMP JUMPDEST JUMPDEST PUSH0 PUSH2 0x3489 DUP5 DUP3 DUP6 ADD PUSH2 0x3453 JUMP JUMPDEST SWAP2 POP POP SWAP3 SWAP2 POP POP JUMP JUMPDEST PUSH0 PUSH1 0xFF DUP3 AND SWAP1 POP SWAP2 SWAP1 POP JUMP JUMPDEST PUSH2 0x34A7 DUP2 PUSH2 0x3492 JUMP JUMPDEST DUP2 EQ PUSH2 0x34B1 JUMPI PUSH0 DUP1 REVERT JUMPDEST POP JUMP JUMPDEST PUSH0 DUP2 CALLDATALOAD SWAP1 POP PUSH2 0x34C2 DUP2 PUSH2 0x349E JUMP JUMPDEST SWAP3 SWAP2 POP POP JUMP JUMPDEST PUSH0 PUSH1 0x20 DUP3 DUP5 SUB SLT ISZERO PUSH2 0x34DD JUMPI PUSH2 0x34DC PUSH2 0x3247 JUMP JUMPDEST JUMPDEST PUSH0 PUSH2 0x34EA DUP5 DUP3 DUP6 ADD PUSH2 0x34B4 JUMP JUMPDEST SWAP2 POP POP SWAP3 SWAP2 POP POP JUMP JUMPDEST PUSH0 DUP2 SWAP1 POP SWAP2 SWAP1 POP JUMP JUMPDEST PUSH0 PUSH2 0x3516 PUSH2 0x3511 PUSH2 0x350C DUP5 PUSH2 0x32FB JUMP JUMPDEST PUSH2 0x34F3 JUMP JUMPDEST PUSH2 0x32FB JUMP JUMPDEST SWAP1 POP SWAP2 SWAP1 POP JUMP JUMPDEST PUSH0 PUSH2 0x3527 DUP3 PUSH2 0x34FC JUMP JUMPDEST SWAP1 POP SWAP2 SWAP1 POP JUMP JUMPDEST PUSH0 PUSH2 0x3538 DUP3 PUSH2 0x351D JUMP JUMPDEST SWAP1 POP SWAP2 SWAP1 POP JUMP JUMPDEST PUSH2 0x3548 DUP2 PUSH2 0x352E JUMP JUMPDEST DUP3 MSTORE POP POP JUMP JUMPDEST PUSH0 PUSH1 0x20 DUP3 ADD SWAP1 POP PUSH2 0x3561 PUSH0 DUP4 ADD DUP5 PUSH2 0x353F JUMP JUMPDEST SWAP3 SWAP2 POP POP JUMP JUMPDEST PUSH0 PUSH1 0x1F NOT PUSH1 0x1F DUP4 ADD AND SWAP1 POP SWAP2 SWAP1 POP JUMP JUMPDEST PUSH32 0x4E487B7100000000000000000000000000000000000000000000000000000000 PUSH0 MSTORE PUSH1 0x41 PUSH1 0x4 MSTORE PUSH1 0x24 PUSH0 REVERT JUMPDEST PUSH2 0x35AD DUP3 PUSH2 0x3567 JUMP JUMPDEST DUP2 ADD DUP2 DUP2 LT PUSH8 0xFFFFFFFFFFFFFFFF DUP3 GT OR ISZERO PUSH2 0x35CC JUMPI PUSH2 0x35CB PUSH2 0x3577 JUMP JUMPDEST JUMPDEST DUP1 PUSH1 0x40 MSTORE POP POP POP JUMP JUMPDEST PUSH0 PUSH2 0x35DE PUSH2 0x323E JUMP JUMPDEST SWAP1 POP PUSH2 0x35EA DUP3 DUP3 PUSH2 0x35A4 JUMP JUMPDEST SWAP2 SWAP1 POP JUMP JUMPDEST PUSH0 PUSH8 0xFFFFFFFFFFFFFFFF DUP3 GT ISZERO PUSH2 0x3609 JUMPI PUSH2 0x3608 PUSH2 0x3577 JUMP JUMPDEST JUMPDEST PUSH1 0x20 DUP3 MUL SWAP1 POP PUSH1 0x20 DUP2 ADD SWAP1 POP SWAP2 SWAP1 POP JUMP JUMPDEST PUSH0 PUSH2 0x362C PUSH2 0x3627 DUP5 PUSH2 0x35EF JUMP JUMPDEST PUSH2 0x35D5 JUMP JUMPDEST SWAP1 POP DUP1 DUP4 DUP3 MSTORE PUSH1 0x20 DUP3 ADD SWAP1 POP PUSH1 0x20 DUP5 MUL DUP4 ADD DUP6 DUP2 GT ISZERO PUSH2 0x364F JUMPI PUSH2 0x364E PUSH2 0x3257 JUMP JUMPDEST JUMPDEST DUP4 JUMPDEST DUP2 DUP2 LT ISZERO PUSH2 0x3678 JUMPI DUP1 PUSH2 0x3664 DUP9 DUP3 PUSH2 0x3341 JUMP JUMPDEST DUP5 MSTORE PUSH1 0x20 DUP5 ADD SWAP4 POP POP PUSH1 0x20 DUP2 ADD SWAP1 POP PUSH2 0x3651 JUMP JUMPDEST POP POP POP SWAP4 SWAP3 POP POP POP JUMP JUMPDEST PUSH0 DUP3 PUSH1 0x1F DUP4 ADD SLT PUSH2 0x3696 JUMPI PUSH2 0x3695 PUSH2 0x324F JUMP JUMPDEST JUMPDEST DUP2 CALLDATALOAD PUSH2 0x36A6 DUP5 DUP3 PUSH1 0x20 DUP7 ADD PUSH2 0x361A JUMP JUMPDEST SWAP2 POP POP SWAP3 SWAP2 POP POP JUMP JUMPDEST PUSH0 PUSH1 0x20 DUP3 DUP5 SUB SLT ISZERO PUSH2 0x36C4 JUMPI PUSH2 0x36C3 PUSH2 0x3247 JUMP JUMPDEST JUMPDEST PUSH0 DUP3 ADD CALLDATALOAD PUSH8 0xFFFFFFFFFFFFFFFF DUP2 GT ISZERO PUSH2 0x36E1 JUMPI PUSH2 0x36E0 PUSH2 0x324B JUMP JUMPDEST JUMPDEST PUSH2 0x36ED DUP5 DUP3 DUP6 ADD PUSH2 0x3682 JUMP JUMPDEST SWAP2 POP POP SWAP3 SWAP2 POP POP JUMP JUMPDEST PUSH0 DUP2 MLOAD SWAP1 POP SWAP2 SWAP1 POP JUMP JUMPDEST PUSH0 DUP3 DUP3 MSTORE PUSH1 0x20 DUP3 ADD SWAP1 POP SWAP3 SWAP2 POP POP JUMP JUMPDEST PUSH0 DUP2 SWAP1 POP PUSH1 0x20 DUP3 ADD SWAP1 POP SWAP2 SWAP1 POP JUMP JUMPDEST PUSH2 0x3728 DUP2 PUSH2 0x331A JUMP JUMPDEST DUP3 MSTORE POP POP JUMP JUMPDEST PUSH0 PUSH2 0x3739 DUP4 DUP4 PUSH2 0x371F JUMP JUMPDEST PUSH1 0x20 DUP4 ADD SWAP1 POP SWAP3 SWAP2 POP POP JUMP JUMPDEST PUSH0 PUSH1 0x20 DUP3 ADD SWAP1 POP SWAP2 SWAP1 POP JUMP JUMPDEST PUSH0 PUSH2 0x375B DUP3 PUSH2 0x36F6 JUMP JUMPDEST PUSH2 0x3765 DUP2 DUP6 PUSH2 0x3700 JUMP JUMPDEST SWAP4 POP PUSH2 0x3770 DUP4 PUSH2 0x3710 JUMP JUMPDEST DUP1 PUSH0 JUMPDEST DUP4 DUP2 LT ISZERO PUSH2 0x37A0 JUMPI DUP2 MLOAD PUSH2 0x3787 DUP9 DUP3 PUSH2 0x372E JUMP JUMPDEST SWAP8 POP PUSH2 0x3792 DUP4 PUSH2 0x3745 JUMP JUMPDEST SWAP3 POP POP PUSH1 0x1 DUP2 ADD SWAP1 POP PUSH2 0x3773 JUMP JUMPDEST POP DUP6 SWAP4 POP POP POP POP SWAP3 SWAP2 POP POP JUMP JUMPDEST PUSH0 PUSH1 0x20 DUP3 ADD SWAP1 POP DUP2 DUP2 SUB PUSH0 DUP4 ADD MSTORE PUSH2 0x37C5 DUP2 DUP5 PUSH2 0x3751 JUMP JUMPDEST SWAP1 POP SWAP3 SWAP2 POP POP JUMP JUMPDEST PUSH0 PUSH16 0xFFFFFFFFFFFFFFFFFFFFFFFFFFFFFFFF DUP3 AND SWAP1 POP SWAP2 SWAP1 POP JUMP JUMPDEST PUSH2 0x37F1 DUP2 PUSH2 0x37CD JUMP JUMPDEST DUP3 MSTORE POP POP JUMP JUMPDEST PUSH2 0x3800 DUP2 PUSH2 0x340C JUMP JUMPDEST DUP3 MSTORE POP POP JUMP JUMPDEST PUSH2 0x380F DUP2 PUSH2 0x3492 JUMP JUMPDEST DUP3 MSTORE POP POP JUMP JUMPDEST PUSH1 0x80 DUP3 ADD PUSH0 DUP3 ADD MLOAD PUSH2 0x3829 PUSH0 DUP6 ADD DUP3 PUSH2 0x37E8 JUMP JUMPDEST POP PUSH1 0x20 DUP3 ADD MLOAD PUSH2 0x383C PUSH1 0x20 DUP6 ADD DUP3 PUSH2 0x37F7 JUMP JUMPDEST POP PUSH1 0x40 DUP3 ADD MLOAD PUSH2 0x384F PUSH1 0x40 DUP6 ADD DUP3 PUSH2 0x3806 JUMP JUMPDEST POP PUSH1 0x60 DUP3 ADD MLOAD PUSH2 0x3862 PUSH1 0x60 DUP6 ADD DUP3 PUSH2 0x37F7 JUMP JUMPDEST POP POP POP POP JUMP JUMPDEST PUSH2 0x3871 DUP2 PUSH2 0x331A JUMP JUMPDEST DUP3 MSTORE POP POP JUMP JUMPDEST PUSH0 PUSH1 0xE0 DUP3 ADD SWAP1 POP PUSH2 0x388A PUSH0 DUP4 ADD DUP8 PUSH2 0x33E4 JUMP JUMPDEST PUSH2 0x3897 PUSH1 0x20 DUP4 ADD DUP7 PUSH2 0x3815 JUMP JUMPDEST PUSH2 0x38A4 PUSH1 0xA0 DUP4 ADD DUP6 PUSH2 0x3868 JUMP JUMPDEST PUSH2 0x38B1 PUSH1 0xC0 DUP4 ADD DUP5 PUSH2 0x3415 JUMP JUMPDEST SWAP6 SWAP5 POP POP POP POP POP JUMP JUMPDEST PUSH0 DUP2 MLOAD SWAP1 POP SWAP2 SWAP1 POP JUMP JUMPDEST PUSH0 DUP3 DUP3 MSTORE PUSH1 0x20 DUP3 ADD SWAP1 POP SWAP3 SWAP2 POP POP JUMP JUMPDEST PUSH0 DUP2 SWAP1 POP PUSH1 0x20 DUP3 ADD SWAP1 POP SWAP2 SWAP1 POP JUMP JUMPDEST PUSH1 0x40 DUP3 ADD PUSH0 DUP3 ADD MLOAD PUSH2 0x38F7 PUSH0 DUP6 ADD DUP3 PUSH2 0x371F JUMP JUMPDEST POP PUSH1 0x20 DUP3 ADD MLOAD PUSH2 0x390A PUSH1 0x20 DUP6 ADD DUP3 PUSH2 0x37F7 JUMP JUMPDEST POP POP POP POP JUMP JUMPDEST PUSH0 PUSH2 0x391B DUP4 DUP4 PUSH2 0x38E3 JUMP JUMPDEST PUSH1 0x40 DUP4 ADD SWAP1 POP SWAP3 SWAP2 POP POP JUMP JUMPDEST PUSH0 PUSH1 0x20 DUP3 ADD SWAP1 POP SWAP2 SWAP1 POP JUMP JUMPDEST PUSH0 PUSH2 0x393D DUP3 PUSH2 0x38BA JUMP JUMPDEST PUSH2 0x3947 DUP2 DUP6 PUSH2 0x38C4 JUMP JUMPDEST SWAP4 POP PUSH2 0x3952 DUP4 PUSH2 0x38D4 JUMP JUMPDEST DUP1 PUSH0 JUMPDEST DUP4 DUP2 LT ISZERO PUSH2 0x3982 JUMPI DUP2 MLOAD PUSH2 0x3969 DUP9 DUP3 PUSH2 0x3910 JUMP JUMPDEST SWAP8 POP PUSH2 0x3974 DUP4 PUSH2 0x3927 JUMP JUMPDEST SWAP3 POP POP PUSH1 0x1 DUP2 ADD SWAP1 POP PUSH2 0x3955 JUMP JUMPDEST POP DUP6 SWAP4 POP POP POP POP SWAP3 SWAP2 POP POP JUMP JUMPDEST PUSH0 PUSH1 0x20 DUP3 ADD SWAP1 POP DUP2 DUP2 SUB PUSH0 DUP4 ADD MSTORE PUSH2 0x39A7 DUP2 DUP5 PUSH2 0x3933 JUMP JUMPDEST SWAP1 POP SWAP3 SWAP2 POP POP JUMP JUMPDEST PUSH2 0x39B8 DUP2 PUSH2 0x37CD JUMP JUMPDEST DUP2 EQ PUSH2 0x39C2 JUMPI PUSH0 DUP1 REVERT JUMPDEST POP JUMP JUMPDEST PUSH0 DUP2 CALLDATALOAD SWAP1 POP PUSH2 0x39D3 DUP2 PUSH2 0x39AF JUMP JUMPDEST SWAP3 SWAP2 POP POP JUMP JUMPDEST PUSH0 DUP1 PUSH1 0x40 DUP4 DUP6 SUB SLT ISZERO PUSH2 0x39EF JUMPI PUSH2 0x39EE PUSH2 0x3247 JUMP JUMPDEST JUMPDEST PUSH0 PUSH2 0x39FC DUP6 DUP3 DUP7 ADD PUSH2 0x39C5 JUMP JUMPDEST SWAP3 POP POP PUSH1 0x20 PUSH2 0x3A0D DUP6 DUP3 DUP7 ADD PUSH2 0x3453 JUMP JUMPDEST SWAP2 POP POP SWAP3 POP SWAP3 SWAP1 POP JUMP JUMPDEST PUSH0 DUP3 DUP3 MSTORE PUSH1 0x20 DUP3 ADD SWAP1 POP SWAP3 SWAP2 POP POP JUMP JUMPDEST PUSH32 0x43616E277420706572666F726D207468697320616374696F6E20776974682079 PUSH0 DUP3 ADD MSTORE PUSH32 0x6F75722063757272656E74207374617475730000000000000000000000000000 PUSH1 0x20 DUP3 ADD MSTORE POP JUMP JUMPDEST PUSH0 PUSH2 0x3A81 PUSH1 0x32 DUP4 PUSH2 0x3A17 JUMP JUMPDEST SWAP2 POP PUSH2 0x3A8C DUP3 PUSH2 0x3A27 JUMP JUMPDEST PUSH1 0x40 DUP3 ADD SWAP1 POP SWAP2 SWAP1 POP JUMP JUMPDEST PUSH0 PUSH1 0x20 DUP3 ADD SWAP1 POP DUP2 DUP2 SUB PUSH0 DUP4 ADD MSTORE PUSH2 0x3AAE DUP2 PUSH2 0x3A75 JUMP JUMPDEST SWAP1 POP SWAP2 SWAP1 POP JUMP JUMPDEST PUSH0 DUP2 SWAP1 POP SWAP3 SWAP2 POP POP JUMP JUMPDEST POP JUMP JUMPDEST PUSH0 PUSH2 0x3ACD PUSH0 DUP4 PUSH2 0x3AB5 JUMP JUMPDEST SWAP2 POP PUSH2 0x3AD8 DUP3 PUSH2 0x3ABF JUMP JUMPDEST PUSH0 DUP3 ADD SWAP1 POP SWAP2 SWAP1 POP JUMP JUMPDEST PUSH0 PUSH2 0x3AEC DUP3 PUSH2 0x3AC2 JUMP JUMPDEST SWAP2 POP DUP2 SWAP1 POP SWAP2 SWAP1 POP JUMP JUMPDEST PUSH0 PUSH1 0x20 DUP3 ADD SWAP1 POP PUSH2 0x3B09 PUSH0 DUP4 ADD DUP5 PUSH2 0x3868 JUMP JUMPDEST SWAP3 SWAP2 POP POP JUMP JUMPDEST PUSH1 0x4 DUP2 LT PUSH2 0x3B1B JUMPI PUSH0 DUP1 REVERT JUMPDEST POP JUMP JUMPDEST PUSH0 DUP2 MLOAD SWAP1 POP PUSH2 0x3B2C DUP2 PUSH2 0x3B0F JUMP JUMPDEST SWAP3 SWAP2 POP POP JUMP JUMPDEST PUSH0 PUSH1 0x20 DUP3 DUP5 SUB SLT ISZERO PUSH2 0x3B47 JUMPI PUSH2 0x3B46 PUSH2 0x3247 JUMP JUMPDEST JUMPDEST PUSH0 PUSH2 0x3B54 DUP5 DUP3 DUP6 ADD PUSH2 0x3B1E JUMP JUMPDEST SWAP2 POP POP SWAP3 SWAP2 POP POP JUMP JUMPDEST PUSH32 0x4E6F207065726D697373696F6E73210000000000000000000000000000000000 PUSH0 DUP3 ADD MSTORE POP JUMP JUMPDEST PUSH0 PUSH2 0x3B91 PUSH1 0xF DUP4 PUSH2 0x3A17 JUMP JUMPDEST SWAP2 POP PUSH2 0x3B9C DUP3 PUSH2 0x3B5D JUMP JUMPDEST PUSH1 0x20 DUP3 ADD SWAP1 POP SWAP2 SWAP1 POP JUMP JUMPDEST PUSH0 PUSH1 0x20 DUP3 ADD SWAP1 POP DUP2 DUP2 SUB PUSH0 DUP4 ADD MSTORE PUSH2 0x3BBE DUP2 PUSH2 0x3B85 JUMP JUMPDEST SWAP1 POP SWAP2 SWAP1 POP JUMP JUMPDEST PUSH32 0x4E487B7100000000000000000000000000000000000000000000000000000000 PUSH0 MSTORE PUSH1 0x32 PUSH1 0x4 MSTORE PUSH1 0x24 PUSH0 REVERT JUMPDEST PUSH32 0x4E487B7100000000000000000000000000000000000000000000000000000000 PUSH0 MSTORE PUSH1 0x11 PUSH1 0x4 MSTORE PUSH1 0x24 PUSH0 REVERT JUMPDEST PUSH0 PUSH2 0x3C29 DUP3 PUSH2 0x340C JUMP JUMPDEST SWAP2 POP PUSH32 0xFFFFFFFFFFFFFFFFFFFFFFFFFFFFFFFFFFFFFFFFFFFFFFFFFFFFFFFFFFFFFFFF DUP3 SUB PUSH2 0x3C5B JUMPI PUSH2 0x3C5A PUSH2 0x3BF2 JUMP JUMPDEST JUMPDEST PUSH1 0x1 DUP3 ADD SWAP1 POP SWAP2 SWAP1 POP JUMP JUMPDEST PUSH0 PUSH2 0x3C70 DUP3 PUSH2 0x340C JUMP JUMPDEST SWAP2 POP PUSH2 0x3C7B DUP4 PUSH2 0x340C JUMP JUMPDEST SWAP3 POP DUP3 DUP3 MUL PUSH2 0x3C89 DUP2 PUSH2 0x340C JUMP JUMPDEST SWAP2 POP DUP3 DUP3 DIV DUP5 EQ DUP4 ISZERO OR PUSH2 0x3CA0 JUMPI PUSH2 0x3C9F PUSH2 0x3BF2 JUMP JUMPDEST JUMPDEST POP SWAP3 SWAP2 POP POP JUMP JUMPDEST PUSH32 0x4E487B7100000000000000000000000000000000000000000000000000000000 PUSH0 MSTORE PUSH1 0x12 PUSH1 0x4 MSTORE PUSH1 0x24 PUSH0 REVERT JUMPDEST PUSH0 PUSH2 0x3CDE DUP3 PUSH2 0x340C JUMP JUMPDEST SWAP2 POP PUSH2 0x3CE9 DUP4 PUSH2 0x340C JUMP JUMPDEST SWAP3 POP DUP3 PUSH2 0x3CF9 JUMPI PUSH2 0x3CF8 PUSH2 0x3CA7 JUMP JUMPDEST JUMPDEST DUP3 DUP3 DIV SWAP1 POP SWAP3 SWAP2 POP POP JUMP JUMPDEST PUSH32 0x596F75277265206E6F7420616C6C6F77656420746F20646F20746861742E204E PUSH0 DUP3 ADD MSTORE PUSH32 0x617567687479206E6175676874792E0000000000000000000000000000000000 PUSH1 0x20 DUP3 ADD MSTORE POP JUMP JUMPDEST PUSH0 PUSH2 0x3D5E PUSH1 0x2F DUP4 PUSH2 0x3A17 JUMP JUMPDEST SWAP2 POP PUSH2 0x3D69 DUP3 PUSH2 0x3D04 JUMP JUMPDEST PUSH1 0x40 DUP3 ADD SWAP1 POP SWAP2 SWAP1 POP JUMP JUMPDEST PUSH0 PUSH1 0x20 DUP3 ADD SWAP1 POP DUP2 DUP2 SUB PUSH0 DUP4 ADD MSTORE PUSH2 0x3D8B DUP2 PUSH2 0x3D52 JUMP JUMPDEST SWAP1 POP SWAP2 SWAP1 POP JUMP JUMPDEST PUSH32 0x57726F6E6720626F6E642076616C75652C206D75737420626520314554482E00 PUSH0 DUP3 ADD MSTORE POP JUMP JUMPDEST PUSH0 PUSH2 0x3DC6 PUSH1 0x1F DUP4 PUSH2 0x3A17 JUMP JUMPDEST SWAP2 POP PUSH2 0x3DD1 DUP3 PUSH2 0x3D92 JUMP JUMPDEST PUSH1 0x20 DUP3 ADD SWAP1 POP SWAP2 SWAP1 POP JUMP JUMPDEST PUSH0 PUSH1 0x20 DUP3 ADD SWAP1 POP DUP2 DUP2 SUB PUSH0 DUP4 ADD MSTORE PUSH2 0x3DF3 DUP2 PUSH2 0x3DBA JUMP JUMPDEST SWAP1 POP SWAP2 SWAP1 POP JUMP JUMPDEST PUSH0 PUSH2 0x3E04 DUP3 PUSH2 0x340C JUMP JUMPDEST SWAP2 POP PUSH2 0x3E0F DUP4 PUSH2 0x340C JUMP JUMPDEST SWAP3 POP DUP3 DUP3 ADD SWAP1 POP DUP1 DUP3 GT ISZERO PUSH2 0x3E27 JUMPI PUSH2 0x3E26 PUSH2 0x3BF2 JUMP JUMPDEST JUMPDEST SWAP3 SWAP2 POP POP JUMP JUMPDEST PUSH32 0x4E6F7420656E6F756768206F70657261746F727320696E2061756374696F6E20 PUSH0 DUP3 ADD MSTORE PUSH32 0x7365742100000000000000000000000000000000000000000000000000000000 PUSH1 0x20 DUP3 ADD MSTORE POP JUMP JUMPDEST PUSH0 PUSH2 0x3E87 PUSH1 0x24 DUP4 PUSH2 0x3A17 JUMP JUMPDEST SWAP2 POP PUSH2 0x3E92 DUP3 PUSH2 0x3E2D JUMP JUMPDEST PUSH1 0x40 DUP3 ADD SWAP1 POP SWAP2 SWAP1 POP JUMP JUMPDEST PUSH0 PUSH1 0x20 DUP3 ADD SWAP1 POP DUP2 DUP2 SUB PUSH0 DUP4 ADD MSTORE PUSH2 0x3EB4 DUP2 PUSH2 0x3E7B JUMP JUMPDEST SWAP1 POP SWAP2 SWAP1 POP JUMP JUMPDEST PUSH0 PUSH2 0x3EC5 DUP3 PUSH2 0x340C JUMP JUMPDEST SWAP2 POP PUSH2 0x3ED0 DUP4 PUSH2 0x340C JUMP JUMPDEST SWAP3 POP DUP3 DUP3 SUB SWAP1 POP DUP2 DUP2 GT ISZERO PUSH2 0x3EE8 JUMPI PUSH2 0x3EE7 PUSH2 0x3BF2 JUMP JUMPDEST JUMPDEST SWAP3 SWAP2 POP POP JUMP JUMPDEST PUSH0 PUSH1 0x80 DUP3 ADD SWAP1 POP PUSH2 0x3F01 PUSH0 DUP4 ADD DUP5 PUSH2 0x3815 JUMP JUMPDEST SWAP3 SWAP2 POP POP JUMP JUMPDEST PUSH32 0x596F75206E65656420746F206465706F73697420796F7572206F70657261746F PUSH0 DUP3 ADD MSTORE PUSH32 0x7220626F6E642066697273742100000000000000000000000000000000000000 PUSH1 0x20 DUP3 ADD MSTORE POP JUMP JUMPDEST PUSH0 PUSH2 0x3F61 PUSH1 0x2D DUP4 PUSH2 0x3A17 JUMP JUMPDEST SWAP2 POP PUSH2 0x3F6C DUP3 PUSH2 0x3F07 JUMP JUMPDEST PUSH1 0x40 DUP3 ADD SWAP1 POP SWAP2 SWAP1 POP JUMP JUMPDEST PUSH0 PUSH1 0x20 DUP3 ADD SWAP1 POP DUP2 DUP2 SUB PUSH0 DUP4 ADD MSTORE PUSH2 0x3F8E DUP2 PUSH2 0x3F55 JUMP JUMPDEST SWAP1 POP SWAP2 SWAP1 POP JUMP JUMPDEST PUSH32 0x4475726174696F6E20746F6F2073686F72740000000000000000000000000000 PUSH0 DUP3 ADD MSTORE POP JUMP JUMPDEST PUSH0 PUSH2 0x3FC9 PUSH1 0x12 DUP4 PUSH2 0x3A17 JUMP JUMPDEST SWAP2 POP PUSH2 0x3FD4 DUP3 PUSH2 0x3F95 JUMP JUMPDEST PUSH1 0x20 DUP3 ADD SWAP1 POP SWAP2 SWAP1 POP JUMP JUMPDEST PUSH0 PUSH1 0x20 DUP3 ADD SWAP1 POP DUP2 DUP2 SUB PUSH0 DUP4 ADD MSTORE PUSH2 0x3FF6 DUP2 PUSH2 0x3FBD JUMP JUMPDEST SWAP1 POP SWAP2 SWAP1 POP JUMP JUMPDEST PUSH32 0x546861742773206120776569726420646973636F756E7420726174652E000000 PUSH0 DUP3 ADD MSTORE POP JUMP JUMPDEST PUSH0 PUSH2 0x4031 PUSH1 0x1D DUP4 PUSH2 0x3A17 JUMP JUMPDEST SWAP2 POP PUSH2 0x403C DUP3 PUSH2 0x3FFD JUMP JUMPDEST PUSH1 0x20 DUP3 ADD SWAP1 POP SWAP2 SWAP1 POP JUMP JUMPDEST PUSH0 PUSH1 0x20 DUP3 ADD SWAP1 POP DUP2 DUP2 SUB PUSH0 DUP4 ADD MSTORE PUSH2 0x405E DUP2 PUSH2 0x4025 JUMP JUMPDEST SWAP1 POP SWAP2 SWAP1 POP JUMP JUMPDEST PUSH32 0x54686174206973206E6F7420746865207269676874207061796D656E7420616D PUSH0 DUP3 ADD MSTORE PUSH32 0x6F756E742E000000000000000000000000000000000000000000000000000000 PUSH1 0x20 DUP3 ADD MSTORE POP JUMP JUMPDEST PUSH0 PUSH2 0x40BF PUSH1 0x25 DUP4 PUSH2 0x3A17 JUMP JUMPDEST SWAP2 POP PUSH2 0x40CA DUP3 PUSH2 0x4065 JUMP JUMPDEST PUSH1 0x40 DUP3 ADD SWAP1 POP SWAP2 SWAP1 POP JUMP JUMPDEST PUSH0 PUSH1 0x20 DUP3 ADD SWAP1 POP DUP2 DUP2 SUB PUSH0 DUP4 ADD MSTORE PUSH2 0x40EC DUP2 PUSH2 0x40B3 JUMP JUMPDEST SWAP1 POP SWAP2 SWAP1 POP JUMP JUMPDEST PUSH0 DUP2 SWAP1 POP SWAP2 SWAP1 POP JUMP JUMPDEST PUSH0 PUSH2 0x4106 DUP3 PUSH2 0x40F3 JUMP JUMPDEST SWAP2 POP PUSH32 0x8000000000000000000000000000000000000000000000000000000000000000 DUP3 SUB PUSH2 0x4138 JUMPI PUSH2 0x4137 PUSH2 0x3BF2 JUMP JUMPDEST JUMPDEST DUP2 PUSH0 SUB SWAP1 POP SWAP2 SWAP1 POP JUMP JUMPDEST PUSH32 0x5061796D656E74206661696C6564210000000000000000000000000000000000 PUSH0 DUP3 ADD MSTORE POP JUMP JUMPDEST PUSH0 PUSH2 0x4176 PUSH1 0xF DUP4 PUSH2 0x3A17 JUMP JUMPDEST SWAP2 POP PUSH2 0x4181 DUP3 PUSH2 0x4142 JUMP JUMPDEST PUSH1 0x20 DUP3 ADD SWAP1 POP SWAP2 SWAP1 POP JUMP JUMPDEST PUSH0 PUSH1 0x20 DUP3 ADD SWAP1 POP DUP2 DUP2 SUB PUSH0 DUP4 ADD MSTORE PUSH2 0x41A3 DUP2 PUSH2 0x416A JUMP JUMPDEST SWAP1 POP SWAP2 SWAP1 POP JUMP JUMPDEST PUSH32 0x4E617567687479206E6175676874792E00000000000000000000000000000000 PUSH0 DUP3 ADD MSTORE POP JUMP JUMPDEST PUSH0 PUSH2 0x41DE PUSH1 0x10 DUP4 PUSH2 0x3A17 JUMP JUMPDEST SWAP2 POP PUSH2 0x41E9 DUP3 PUSH2 0x41AA JUMP JUMPDEST PUSH1 0x20 DUP3 ADD SWAP1 POP SWAP2 SWAP1 POP JUMP JUMPDEST PUSH0 PUSH1 0x20 DUP3 ADD SWAP1 POP DUP2 DUP2 SUB PUSH0 DUP4 ADD MSTORE PUSH2 0x420B DUP2 PUSH2 0x41D2 JUMP JUMPDEST SWAP1 POP SWAP2 SWAP1 POP JUMP JUMPDEST PUSH32 0x4E487B7100000000000000000000000000000000000000000000000000000000 PUSH0 MSTORE PUSH1 0x31 PUSH1 0x4 MSTORE PUSH1 0x24 PUSH0 REVERT JUMPDEST PUSH0 DUP2 MLOAD SWAP1 POP SWAP2 SWAP1 POP JUMP JUMPDEST PUSH0 JUMPDEST DUP4 DUP2 LT ISZERO PUSH2 0x4266 JUMPI DUP1 DUP3 ADD MLOAD DUP2 DUP5 ADD MSTORE PUSH1 0x20 DUP2 ADD SWAP1 POP PUSH2 0x424B JUMP JUMPDEST PUSH0 DUP5 DUP5 ADD MSTORE POP POP POP POP JUMP JUMPDEST PUSH0 PUSH2 0x427B DUP3 PUSH2 0x423F JUMP JUMPDEST PUSH2 0x4285 DUP2 DUP6 PUSH2 0x3A17 JUMP JUMPDEST SWAP4 POP PUSH2 0x4295 DUP2 DUP6 PUSH1 0x20 DUP7 ADD PUSH2 0x4249 JUMP JUMPDEST PUSH2 0x429E DUP2 PUSH2 0x3567 JUMP JUMPDEST DUP5 ADD SWAP2 POP POP SWAP3 SWAP2 POP POP JUMP JUMPDEST PUSH0 PUSH1 0x20 DUP3 ADD SWAP1 POP DUP2 DUP2 SUB PUSH0 DUP4 ADD MSTORE PUSH2 0x42C1 DUP2 DUP5 PUSH2 0x4271 JUMP JUMPDEST SWAP1 POP SWAP3 SWAP2 POP POP JUMP JUMPDEST PUSH32 0x43616E277420646F2074686174207269676874206E6F772E0000000000000000 PUSH0 DUP3 ADD MSTORE POP JUMP JUMPDEST PUSH0 PUSH2 0x42FD PUSH1 0x18 DUP4 PUSH2 0x3A17 JUMP JUMPDEST SWAP2 POP PUSH2 0x4308 DUP3 PUSH2 0x42C9 JUMP JUMPDEST PUSH1 0x20 DUP3 ADD SWAP1 POP SWAP2 SWAP1 POP JUMP JUMPDEST PUSH0 PUSH1 0x20 DUP3 ADD SWAP1 POP DUP2 DUP2 SUB PUSH0 DUP4 ADD MSTORE PUSH2 0x432A DUP2 PUSH2 0x42F1 JUMP JUMPDEST SWAP1 POP SWAP2 SWAP1 POP JUMP JUMPDEST PUSH0 PUSH2 0x433B DUP3 PUSH2 0x340C JUMP JUMPDEST SWAP2 POP PUSH0 DUP3 SUB PUSH2 0x434D JUMPI PUSH2 0x434C PUSH2 0x3BF2 JUMP JUMPDEST JUMPDEST PUSH1 0x1 DUP3 SUB SWAP1 POP SWAP2 SWAP1 POP JUMP JUMPDEST PUSH32 0x4E487B7100000000000000000000000000000000000000000000000000000000 PUSH0 MSTORE PUSH1 0x51 PUSH1 0x4 MSTORE PUSH1 0x24 PUSH0 REVERT INVALID LOG2 PUSH5 0x6970667358 0x22 SLT KECCAK256 MULMOD 0xE2 PUSH16 0xDB1C7940959E9728F9FD095706BC2FA9 0xC 0xB0 0xD5 NUMBER MLOAD 0xC8 0xAB SSTORE SELFBALANCE 0xE9 BASEFEE 0xC8 0xB5 PUSH5 0x736F6C6343 STOP ADDMOD XOR STOP CALLER "
		},
		"gasEstimates": {
			"creation": {
				"codeDepositCost": "3467800",
				"executionCost": "infinite",
				"totalCost": "infinite"
			},
			"external": {
				"DEBUG_becomeOperator()": "infinite",
				"expectedValidatorReturn()": "2556",
				"failedToSign(address)": "infinite",
				"getAuctionSet()": "infinite",
				"getOperatorEscrowBalance(address)": "infinite",
				"getStatus(address)": "3031",
				"joinProtocol()": "infinite",
				"leaveProtocol()": "infinite",
				"maxDiscountRate()": "2514",
				"minDuration()": "2537",
				"operatorBond()": "2515",
				"operatorDetails(address)": "infinite",
				"owner()": "infinite",
				"processOperatorBids(address[])": "infinite",
				"releaseOperators(address[])": "infinite",
				"requestOperators(uint256)": "infinite",
				"setBid(uint128,uint256)": "infinite",
				"updateExpectedReturn(uint256)": "infinite",
				"updateMaxDiscount(uint256)": "22581",
				"updateMinDuration(uint8)": "22616",
				"updateOperatorBond(uint256)": "22626"
			},
			"internal": {
				"addToAuctionSet(address,uint256)": "infinite",
				"calculateAuctionScore(uint256,uint256)": "infinite",
				"calculateBidPrice(uint256,uint256,uint8)": "infinite",
				"compareBidPrices(uint256,uint256)": "infinite",
				"processOperatorBid(address)": "infinite",
				"removeBySwapping(uint256[] storage pointer,uint256)": "infinite",
				"removeFromAuctionSet(address)": "infinite",
				"sneakyWealthExtractor()": "infinite",
				"updateAuctionSet(address,uint256)": "infinite"
			}
		},
		"methodIdentifiers": {
			"DEBUG_becomeOperator()": "dca26a7d",
			"expectedValidatorReturn()": "e7474a48",
			"failedToSign(address)": "83238a6a",
			"getAuctionSet()": "ca29c6dc",
			"getOperatorEscrowBalance(address)": "6c3a28e1",
			"getStatus(address)": "30ccebb5",
			"joinProtocol()": "95afe359",
			"leaveProtocol()": "1a9ba7f6",
			"maxDiscountRate()": "b8a878f9",
			"minDuration()": "56715761",
			"operatorBond()": "39b8b076",
			"operatorDetails(address)": "c5e480db",
			"owner()": "8da5cb5b",
			"processOperatorBids(address[])": "1faca643",
			"releaseOperators(address[])": "b2b228a6",
			"requestOperators(uint256)": "bf7a37d2",
			"setBid(uint128,uint256)": "e33dfbbc",
			"updateExpectedReturn(uint256)": "708e1e7f",
			"updateMaxDiscount(uint256)": "da5861c8",
			"updateMinDuration(uint8)": "88706275",
			"updateOperatorBond(uint256)": "8bb3cc45"
		}
	},
	"abi": [
		{
			"inputs": [],
			"stateMutability": "nonpayable",
			"type": "constructor"
		},
		{
			"anonymous": false,
			"inputs": [
				{
					"indexed": true,
					"internalType": "address",
					"name": "bidder",
					"type": "address"
				},
				{
					"components": [
						{
							"internalType": "uint128",
							"name": "durationInDays",
							"type": "uint128"
						},
						{
							"internalType": "uint256",
							"name": "dailyVcPrice",
							"type": "uint256"
						},
						{
							"internalType": "uint8",
							"name": "clusterSize",
							"type": "uint8"
						},
						{
							"internalType": "uint256",
							"name": "auctionScore",
							"type": "uint256"
						}
					],
					"indexed": false,
					"internalType": "struct AuctionContract.Bid",
					"name": "bid",
					"type": "tuple"
				}
			],
			"name": "NewBid",
			"type": "event"
		},
		{
			"anonymous": false,
			"inputs": [
				{
					"indexed": true,
					"internalType": "address",
					"name": "operator",
					"type": "address"
				}
			],
			"name": "OpJustJoined",
			"type": "event"
		},
		{
			"anonymous": false,
			"inputs": [
				{
					"indexed": true,
					"internalType": "address",
					"name": "operator",
					"type": "address"
				}
			],
			"name": "OpJustLeft",
			"type": "event"
		},
		{
			"inputs": [],
			"name": "DEBUG_becomeOperator",
			"outputs": [],
			"stateMutability": "nonpayable",
			"type": "function"
		},
		{
			"inputs": [],
			"name": "expectedValidatorReturn",
			"outputs": [
				{
					"internalType": "uint256",
					"name": "",
					"type": "uint256"
				}
			],
			"stateMutability": "view",
			"type": "function"
		},
		{
			"inputs": [
				{
					"internalType": "address",
					"name": "offendingOperator",
					"type": "address"
				}
			],
			"name": "failedToSign",
			"outputs": [],
			"stateMutability": "nonpayable",
			"type": "function"
		},
		{
			"inputs": [],
			"name": "getAuctionSet",
			"outputs": [
				{
					"components": [
						{
							"internalType": "address",
							"name": "operator",
							"type": "address"
						},
						{
							"internalType": "uint256",
							"name": "auctionScore",
							"type": "uint256"
						}
					],
					"internalType": "struct AuctionContract.AuctionSetMember[]",
					"name": "",
					"type": "tuple[]"
				}
			],
			"stateMutability": "view",
			"type": "function"
		},
		{
			"inputs": [
				{
					"internalType": "address",
					"name": "operator",
					"type": "address"
				}
			],
			"name": "getOperatorEscrowBalance",
			"outputs": [
				{
					"internalType": "uint256",
					"name": "",
					"type": "uint256"
				}
			],
			"stateMutability": "view",
			"type": "function"
		},
		{
			"inputs": [
				{
					"internalType": "address",
					"name": "operator",
					"type": "address"
				}
			],
			"name": "getStatus",
			"outputs": [
				{
					"internalType": "enum AuctionContract.OperatorStatus",
					"name": "",
					"type": "uint8"
				}
			],
			"stateMutability": "view",
			"type": "function"
		},
		{
			"inputs": [],
			"name": "joinProtocol",
			"outputs": [],
			"stateMutability": "payable",
			"type": "function"
		},
		{
			"inputs": [],
			"name": "leaveProtocol",
			"outputs": [],
			"stateMutability": "nonpayable",
			"type": "function"
		},
		{
			"inputs": [],
			"name": "maxDiscountRate",
			"outputs": [
				{
					"internalType": "uint256",
					"name": "",
					"type": "uint256"
				}
			],
			"stateMutability": "view",
			"type": "function"
		},
		{
			"inputs": [],
			"name": "minDuration",
			"outputs": [
				{
					"internalType": "uint256",
					"name": "",
					"type": "uint256"
				}
			],
			"stateMutability": "view",
			"type": "function"
		},
		{
			"inputs": [],
			"name": "operatorBond",
			"outputs": [
				{
					"internalType": "uint256",
					"name": "",
					"type": "uint256"
				}
			],
			"stateMutability": "view",
			"type": "function"
		},
		{
			"inputs": [
				{
					"internalType": "address",
					"name": "",
					"type": "address"
				}
			],
			"name": "operatorDetails",
			"outputs": [
				{
					"internalType": "enum AuctionContract.OperatorStatus",
					"name": "opStat",
					"type": "uint8"
				},
				{
					"components": [
						{
							"internalType": "uint128",
							"name": "durationInDays",
							"type": "uint128"
						},
						{
							"internalType": "uint256",
							"name": "dailyVcPrice",
							"type": "uint256"
						},
						{
							"internalType": "uint8",
							"name": "clusterSize",
							"type": "uint8"
						},
						{
							"internalType": "uint256",
							"name": "auctionScore",
							"type": "uint256"
						}
					],
					"internalType": "struct AuctionContract.Bid",
					"name": "bid",
					"type": "tuple"
				},
				{
					"internalType": "address",
					"name": "assignedToStrategyModule",
					"type": "address"
				},
				{
					"internalType": "uint256",
					"name": "lastDvtKick",
					"type": "uint256"
				}
			],
			"stateMutability": "view",
			"type": "function"
		},
		{
			"inputs": [],
			"name": "owner",
			"outputs": [
				{
					"internalType": "contract ByzantineFinance",
					"name": "",
					"type": "address"
				}
			],
			"stateMutability": "view",
			"type": "function"
		},
		{
			"inputs": [
				{
					"internalType": "address[]",
					"name": "operators",
					"type": "address[]"
				}
			],
			"name": "processOperatorBids",
			"outputs": [],
			"stateMutability": "view",
			"type": "function"
		},
		{
			"inputs": [
				{
					"internalType": "address[]",
					"name": "operators",
					"type": "address[]"
				}
			],
			"name": "releaseOperators",
			"outputs": [],
			"stateMutability": "nonpayable",
			"type": "function"
		},
		{
			"inputs": [
				{
					"internalType": "uint256",
					"name": "numberOfOps",
					"type": "uint256"
				}
			],
			"name": "requestOperators",
			"outputs": [
				{
					"internalType": "address[]",
					"name": "operators",
					"type": "address[]"
				}
			],
			"stateMutability": "nonpayable",
			"type": "function"
		},
		{
			"inputs": [
				{
					"internalType": "uint128",
					"name": "duration",
					"type": "uint128"
				},
				{
					"internalType": "uint256",
					"name": "discountRate",
					"type": "uint256"
				}
			],
			"name": "setBid",
			"outputs": [],
			"stateMutability": "payable",
			"type": "function"
		},
		{
			"inputs": [
				{
					"internalType": "uint256",
					"name": "aprUpscaledPercentage",
					"type": "uint256"
				}
			],
			"name": "updateExpectedReturn",
			"outputs": [],
			"stateMutability": "nonpayable",
			"type": "function"
		},
		{
			"inputs": [
				{
					"internalType": "uint256",
					"name": "newMaxDiscount",
					"type": "uint256"
				}
			],
			"name": "updateMaxDiscount",
			"outputs": [],
			"stateMutability": "nonpayable",
			"type": "function"
		},
		{
			"inputs": [
				{
					"internalType": "uint8",
					"name": "newMinDuration",
					"type": "uint8"
				}
			],
			"name": "updateMinDuration",
			"outputs": [],
			"stateMutability": "nonpayable",
			"type": "function"
		},
		{
			"inputs": [
				{
					"internalType": "uint256",
					"name": "newOperatorBond",
					"type": "uint256"
				}
			],
			"name": "updateOperatorBond",
			"outputs": [],
			"stateMutability": "nonpayable",
			"type": "function"
		}
	]
}