{
	"data": {
		"bytecode": {
			"linkReferences": {},
			"object": "608060405260405162001245380380620012458339818101604052810190620000299190620005fc565b6801bc16d674ec800000341462000077576040517f08c379a00000000000000000000000000000000000000000000000000000000081526004016200006e90620006d9565b60405180910390fd5b620000bd6040518060400160405280601881526020017f73746172746564206275696c64696e6720636c757374657200000000000000008152506200039b60201b60201c565b815f806101000a81548173ffffffffffffffffffffffffffffffffffffffff021916908373ffffffffffffffffffffffffffffffffffffffff1602179055503360015f6101000a81548173ffffffffffffffffffffffffffffffffffffffff021916908373ffffffffffffffffffffffffffffffffffffffff1602179055508060025f6101000a81548173ffffffffffffffffffffffffffffffffffffffff021916908373ffffffffffffffffffffffffffffffffffffffff16021790555082600260146101000a81548160ff021916908360ff16021790555060015f9054906101000a900473ffffffffffffffffffffffffffffffffffffffff1673ffffffffffffffffffffffffffffffffffffffff1663a0729c485f8054906101000a900473ffffffffffffffffffffffffffffffffffffffff166040518263ffffffff1660e01b815260040162000212919062000760565b5f604051808303815f87803b1580156200022a575f80fd5b505af11580156200023d573d5f803e3d5ffd5b505050508260ff1667ffffffffffffffff8111156200026157620002606200077b565b5b604051908082528060200260200182016040528015620002905781602001602082028036833780820191505090505b5060039080519060200190620002a89291906200049a565b50620002ef6040518060400160405280601281526020017f676f696e67207072657474792077656c6c2100000000000000000000000000008152506200039b60201b60201c565b60025f9054906101000a900473ffffffffffffffffffffffffffffffffffffffff1673ffffffffffffffffffffffffffffffffffffffff1663bf7a37d2846040518263ffffffff1660e01b81526004016200034b9190620007e9565b5f604051808303815f875af115801562000367573d5f803e3d5ffd5b505050506040513d5f823e3d601f19601f8201168201806040525081019062000391919062000943565b5050505062000a55565b6200043b81604051602401620003b2919062000a06565b6040516020818303038152906040527f41304fac000000000000000000000000000000000000000000000000000000007bffffffffffffffffffffffffffffffffffffffffffffffffffffffff19166020820180517bffffffffffffffffffffffffffffffffffffffffffffffffffffffff83818316178352505050506200043e60201b60201c565b50565b62000464816200045f6200046760201b620002a3176200048660201b60201c565b60201c565b50565b5f6a636f6e736f6c652e6c6f6790505f80835160208501845afa505050565b6200052660201b620003c317819050919050565b828054828255905f5260205f2090810192821562000513579160200282015b8281111562000512578251825f6101000a81548173ffffffffffffffffffffffffffffffffffffffff021916908373ffffffffffffffffffffffffffffffffffffffff16021790555091602001919060010190620004b9565b5b50905062000522919062000532565b5090565b6200053062000a28565b565b5b808211156200054b575f815f90555060010162000533565b5090565b5f604051905090565b5f80fd5b5f80fd5b5f60ff82169050919050565b620005778162000560565b811462000582575f80fd5b50565b5f8151905062000595816200056c565b92915050565b5f73ffffffffffffffffffffffffffffffffffffffff82169050919050565b5f620005c6826200059b565b9050919050565b620005d881620005ba565b8114620005e3575f80fd5b50565b5f81519050620005f681620005cd565b92915050565b5f805f6060848603121562000616576200061562000558565b5b5f620006258682870162000585565b93505060206200063886828701620005e6565b92505060406200064b86828701620005e6565b9150509250925092565b5f82825260208201905092915050565b7f4e6f7420656e6f7567682045544820746f2066756e64207468697320737472615f8201527f74656779206d6f64756c65210000000000000000000000000000000000000000602082015250565b5f620006c1602c8362000655565b9150620006ce8262000665565b604082019050919050565b5f6020820190508181035f830152620006f281620006b3565b9050919050565b5f819050919050565b5f620007226200071c62000716846200059b565b620006f9565b6200059b565b9050919050565b5f620007358262000702565b9050919050565b5f620007488262000729565b9050919050565b6200075a816200073c565b82525050565b5f602082019050620007755f8301846200074f565b92915050565b7f4e487b71000000000000000000000000000000000000000000000000000000005f52604160045260245ffd5b5f819050919050565b5f620007d1620007cb620007c58462000560565b620006f9565b620007a8565b9050919050565b620007e381620007b1565b82525050565b5f602082019050620007fe5f830184620007d8565b92915050565b5f80fd5b5f601f19601f8301169050919050565b620008238262000808565b810181811067ffffffffffffffff821117156200084557620008446200077b565b5b80604052505050565b5f620008596200054f565b905062000867828262000818565b919050565b5f67ffffffffffffffff8211156200088957620008886200077b565b5b602082029050602081019050919050565b5f80fd5b5f620008b4620008ae846200086c565b6200084e565b90508083825260208201905060208402830185811115620008da57620008d96200089a565b5b835b81811015620009075780620008f28882620005e6565b845260208401935050602081019050620008dc565b5050509392505050565b5f82601f83011262000928576200092762000804565b5b81516200093a8482602086016200089e565b91505092915050565b5f602082840312156200095b576200095a62000558565b5b5f82015167ffffffffffffffff8111156200097b576200097a6200055c565b5b620009898482850162000911565b91505092915050565b5f81519050919050565b5f5b83811015620009bb5780820151818401526020810190506200099e565b5f8484015250505050565b5f620009d28262000992565b620009de818562000655565b9350620009f08185602086016200099c565b620009fb8162000808565b840191505092915050565b5f6020820190508181035f83015262000a208184620009c6565b905092915050565b7f4e487b71000000000000000000000000000000000000000000000000000000005f52605160045260245ffd5b6107e28062000a635f395ff3fe608060405234801561000f575f80fd5b506004361061004a575f3560e01c80630ab8afac1461004e57806336917a4c1461006c578063d518c0c31461009c578063f4b3a197146100ba575b5f80fd5b6100566100d8565b6040516100639190610447565b60405180910390f35b61008660048036038101906100819190610497565b6100fd565b60405161009391906104e2565b60405180910390f35b6100a4610138565b6040516100b1919061051b565b60405180910390f35b6100c261015d565b6040516100cf919061054e565b60405180910390f35b60025f9054906101000a900473ffffffffffffffffffffffffffffffffffffffff1681565b6003818154811061010c575f80fd5b905f5260205f20015f915054906101000a900473ffffffffffffffffffffffffffffffffffffffff1681565b60015f9054906101000a900473ffffffffffffffffffffffffffffffffffffffff1681565b5f805f9054906101000a900473ffffffffffffffffffffffffffffffffffffffff1673ffffffffffffffffffffffffffffffffffffffff163373ffffffffffffffffffffffffffffffffffffffff161480610204575060015f9054906101000a900473ffffffffffffffffffffffffffffffffffffffff1673ffffffffffffffffffffffffffffffffffffffff163373ffffffffffffffffffffffffffffffffffffffff16145b61020c575f80fd5b6102146102c2565b5f805f9054906101000a900473ffffffffffffffffffffffffffffffffffffffff1673ffffffffffffffffffffffffffffffffffffffff164760405161025990610594565b5f6040518083038185875af1925050503d805f8114610293576040519150601f19603f3d011682016040523d82523d5f602084013e610298565b606091505b505090508091505090565b5f6a636f6e736f6c652e6c6f6790505f80835160208501845afa505050565b60025f9054906101000a900473ffffffffffffffffffffffffffffffffffffffff1673ffffffffffffffffffffffffffffffffffffffff1663b2b228a660036040518263ffffffff1660e01b815260040161031d91906106be565b5f604051808303815f87803b158015610334575f80fd5b505af1158015610346573d5f803e3d5ffd5b505050505f5b5f81116103c0575f60038281548110610368576103676106de565b5b905f5260205f20015f6101000a81548173ffffffffffffffffffffffffffffffffffffffff021916908373ffffffffffffffffffffffffffffffffffffffff16021790555080806103b890610738565b91505061034c565b50565b6103cb61077f565b565b5f73ffffffffffffffffffffffffffffffffffffffff82169050919050565b5f819050919050565b5f61040f61040a610405846103cd565b6103ec565b6103cd565b9050919050565b5f610420826103f5565b9050919050565b5f61043182610416565b9050919050565b61044181610427565b82525050565b5f60208201905061045a5f830184610438565b92915050565b5f80fd5b5f819050919050565b61047681610464565b8114610480575f80fd5b50565b5f813590506104918161046d565b92915050565b5f602082840312156104ac576104ab610460565b5b5f6104b984828501610483565b91505092915050565b5f6104cc826103cd565b9050919050565b6104dc816104c2565b82525050565b5f6020820190506104f55f8301846104d3565b92915050565b5f61050582610416565b9050919050565b610515816104fb565b82525050565b5f60208201905061052e5f83018461050c565b92915050565b5f8115159050919050565b61054881610534565b82525050565b5f6020820190506105615f83018461053f565b92915050565b5f81905092915050565b50565b5f61057f5f83610567565b915061058a82610571565b5f82019050919050565b5f61059e82610574565b9150819050919050565b5f81549050919050565b5f82825260208201905092915050565b5f819050815f5260205f209050919050565b6105dd816104c2565b82525050565b5f6105ee83836105d4565b60208301905092915050565b5f815f1c9050919050565b5f73ffffffffffffffffffffffffffffffffffffffff82169050919050565b5f610636610631836105fa565b610605565b9050919050565b5f6106488254610624565b9050919050565b5f600182019050919050565b5f610665826105a8565b61066f81856105b2565b935061067a836105c2565b805f5b838110156106b15761068e8261063d565b61069888826105e3565b97506106a38361064f565b92505060018101905061067d565b5085935050505092915050565b5f6020820190508181035f8301526106d6818461065b565b905092915050565b7f4e487b71000000000000000000000000000000000000000000000000000000005f52603260045260245ffd5b7f4e487b71000000000000000000000000000000000000000000000000000000005f52601160045260245ffd5b5f61074282610464565b91507fffffffffffffffffffffffffffffffffffffffffffffffffffffffffffffffff82036107745761077361070b565b5b600182019050919050565b7f4e487b71000000000000000000000000000000000000000000000000000000005f52605160045260245ffdfea26469706673582212207114dca29408c8bbf4cb1a2e3bf062711079e09184c131379468da729ce57fcf64736f6c63430008180033",
			"opcodes": "PUSH1 0x80 PUSH1 0x40 MSTORE PUSH1 0x40 MLOAD PUSH3 0x1245 CODESIZE SUB DUP1 PUSH3 0x1245 DUP4 CODECOPY DUP2 DUP2 ADD PUSH1 0x40 MSTORE DUP2 ADD SWAP1 PUSH3 0x29 SWAP2 SWAP1 PUSH3 0x5FC JUMP JUMPDEST PUSH9 0x1BC16D674EC800000 CALLVALUE EQ PUSH3 0x77 JUMPI PUSH1 0x40 MLOAD PUSH32 0x8C379A000000000000000000000000000000000000000000000000000000000 DUP2 MSTORE PUSH1 0x4 ADD PUSH3 0x6E SWAP1 PUSH3 0x6D9 JUMP JUMPDEST PUSH1 0x40 MLOAD DUP1 SWAP2 SUB SWAP1 REVERT JUMPDEST PUSH3 0xBD PUSH1 0x40 MLOAD DUP1 PUSH1 0x40 ADD PUSH1 0x40 MSTORE DUP1 PUSH1 0x18 DUP2 MSTORE PUSH1 0x20 ADD PUSH32 0x73746172746564206275696C64696E6720636C75737465720000000000000000 DUP2 MSTORE POP PUSH3 0x39B PUSH1 0x20 SHL PUSH1 0x20 SHR JUMP JUMPDEST DUP2 PUSH0 DUP1 PUSH2 0x100 EXP DUP2 SLOAD DUP2 PUSH20 0xFFFFFFFFFFFFFFFFFFFFFFFFFFFFFFFFFFFFFFFF MUL NOT AND SWAP1 DUP4 PUSH20 0xFFFFFFFFFFFFFFFFFFFFFFFFFFFFFFFFFFFFFFFF AND MUL OR SWAP1 SSTORE POP CALLER PUSH1 0x1 PUSH0 PUSH2 0x100 EXP DUP2 SLOAD DUP2 PUSH20 0xFFFFFFFFFFFFFFFFFFFFFFFFFFFFFFFFFFFFFFFF MUL NOT AND SWAP1 DUP4 PUSH20 0xFFFFFFFFFFFFFFFFFFFFFFFFFFFFFFFFFFFFFFFF AND MUL OR SWAP1 SSTORE POP DUP1 PUSH1 0x2 PUSH0 PUSH2 0x100 EXP DUP2 SLOAD DUP2 PUSH20 0xFFFFFFFFFFFFFFFFFFFFFFFFFFFFFFFFFFFFFFFF MUL NOT AND SWAP1 DUP4 PUSH20 0xFFFFFFFFFFFFFFFFFFFFFFFFFFFFFFFFFFFFFFFF AND MUL OR SWAP1 SSTORE POP DUP3 PUSH1 0x2 PUSH1 0x14 PUSH2 0x100 EXP DUP2 SLOAD DUP2 PUSH1 0xFF MUL NOT AND SWAP1 DUP4 PUSH1 0xFF AND MUL OR SWAP1 SSTORE POP PUSH1 0x1 PUSH0 SWAP1 SLOAD SWAP1 PUSH2 0x100 EXP SWAP1 DIV PUSH20 0xFFFFFFFFFFFFFFFFFFFFFFFFFFFFFFFFFFFFFFFF AND PUSH20 0xFFFFFFFFFFFFFFFFFFFFFFFFFFFFFFFFFFFFFFFF AND PUSH4 0xA0729C48 PUSH0 DUP1 SLOAD SWAP1 PUSH2 0x100 EXP SWAP1 DIV PUSH20 0xFFFFFFFFFFFFFFFFFFFFFFFFFFFFFFFFFFFFFFFF AND PUSH1 0x40 MLOAD DUP3 PUSH4 0xFFFFFFFF AND PUSH1 0xE0 SHL DUP2 MSTORE PUSH1 0x4 ADD PUSH3 0x212 SWAP2 SWAP1 PUSH3 0x760 JUMP JUMPDEST PUSH0 PUSH1 0x40 MLOAD DUP1 DUP4 SUB DUP2 PUSH0 DUP8 DUP1 EXTCODESIZE ISZERO DUP1 ISZERO PUSH3 0x22A JUMPI PUSH0 DUP1 REVERT JUMPDEST POP GAS CALL ISZERO DUP1 ISZERO PUSH3 0x23D JUMPI RETURNDATASIZE PUSH0 DUP1 RETURNDATACOPY RETURNDATASIZE PUSH0 REVERT JUMPDEST POP POP POP POP DUP3 PUSH1 0xFF AND PUSH8 0xFFFFFFFFFFFFFFFF DUP2 GT ISZERO PUSH3 0x261 JUMPI PUSH3 0x260 PUSH3 0x77B JUMP JUMPDEST JUMPDEST PUSH1 0x40 MLOAD SWAP1 DUP1 DUP3 MSTORE DUP1 PUSH1 0x20 MUL PUSH1 0x20 ADD DUP3 ADD PUSH1 0x40 MSTORE DUP1 ISZERO PUSH3 0x290 JUMPI DUP2 PUSH1 0x20 ADD PUSH1 0x20 DUP3 MUL DUP1 CALLDATASIZE DUP4 CALLDATACOPY DUP1 DUP3 ADD SWAP2 POP POP SWAP1 POP JUMPDEST POP PUSH1 0x3 SWAP1 DUP1 MLOAD SWAP1 PUSH1 0x20 ADD SWAP1 PUSH3 0x2A8 SWAP3 SWAP2 SWAP1 PUSH3 0x49A JUMP JUMPDEST POP PUSH3 0x2EF PUSH1 0x40 MLOAD DUP1 PUSH1 0x40 ADD PUSH1 0x40 MSTORE DUP1 PUSH1 0x12 DUP2 MSTORE PUSH1 0x20 ADD PUSH32 0x676F696E67207072657474792077656C6C210000000000000000000000000000 DUP2 MSTORE POP PUSH3 0x39B PUSH1 0x20 SHL PUSH1 0x20 SHR JUMP JUMPDEST PUSH1 0x2 PUSH0 SWAP1 SLOAD SWAP1 PUSH2 0x100 EXP SWAP1 DIV PUSH20 0xFFFFFFFFFFFFFFFFFFFFFFFFFFFFFFFFFFFFFFFF AND PUSH20 0xFFFFFFFFFFFFFFFFFFFFFFFFFFFFFFFFFFFFFFFF AND PUSH4 0xBF7A37D2 DUP5 PUSH1 0x40 MLOAD DUP3 PUSH4 0xFFFFFFFF AND PUSH1 0xE0 SHL DUP2 MSTORE PUSH1 0x4 ADD PUSH3 0x34B SWAP2 SWAP1 PUSH3 0x7E9 JUMP JUMPDEST PUSH0 PUSH1 0x40 MLOAD DUP1 DUP4 SUB DUP2 PUSH0 DUP8 GAS CALL ISZERO DUP1 ISZERO PUSH3 0x367 JUMPI RETURNDATASIZE PUSH0 DUP1 RETURNDATACOPY RETURNDATASIZE PUSH0 REVERT JUMPDEST POP POP POP POP PUSH1 0x40 MLOAD RETURNDATASIZE PUSH0 DUP3 RETURNDATACOPY RETURNDATASIZE PUSH1 0x1F NOT PUSH1 0x1F DUP3 ADD AND DUP3 ADD DUP1 PUSH1 0x40 MSTORE POP DUP2 ADD SWAP1 PUSH3 0x391 SWAP2 SWAP1 PUSH3 0x943 JUMP JUMPDEST POP POP POP POP PUSH3 0xA55 JUMP JUMPDEST PUSH3 0x43B DUP2 PUSH1 0x40 MLOAD PUSH1 0x24 ADD PUSH3 0x3B2 SWAP2 SWAP1 PUSH3 0xA06 JUMP JUMPDEST PUSH1 0x40 MLOAD PUSH1 0x20 DUP2 DUP4 SUB SUB DUP2 MSTORE SWAP1 PUSH1 0x40 MSTORE PUSH32 0x41304FAC00000000000000000000000000000000000000000000000000000000 PUSH28 0xFFFFFFFFFFFFFFFFFFFFFFFFFFFFFFFFFFFFFFFFFFFFFFFFFFFFFFFF NOT AND PUSH1 0x20 DUP3 ADD DUP1 MLOAD PUSH28 0xFFFFFFFFFFFFFFFFFFFFFFFFFFFFFFFFFFFFFFFFFFFFFFFFFFFFFFFF DUP4 DUP2 DUP4 AND OR DUP4 MSTORE POP POP POP POP PUSH3 0x43E PUSH1 0x20 SHL PUSH1 0x20 SHR JUMP JUMPDEST POP JUMP JUMPDEST PUSH3 0x464 DUP2 PUSH3 0x45F PUSH3 0x467 PUSH1 0x20 SHL PUSH3 0x2A3 OR PUSH3 0x486 PUSH1 0x20 SHL PUSH1 0x20 SHR JUMP JUMPDEST PUSH1 0x20 SHR JUMP JUMPDEST POP JUMP JUMPDEST PUSH0 PUSH11 0x636F6E736F6C652E6C6F67 SWAP1 POP PUSH0 DUP1 DUP4 MLOAD PUSH1 0x20 DUP6 ADD DUP5 GAS STATICCALL POP POP POP JUMP JUMPDEST PUSH3 0x526 PUSH1 0x20 SHL PUSH3 0x3C3 OR DUP2 SWAP1 POP SWAP2 SWAP1 POP JUMP JUMPDEST DUP3 DUP1 SLOAD DUP3 DUP3 SSTORE SWAP1 PUSH0 MSTORE PUSH1 0x20 PUSH0 KECCAK256 SWAP1 DUP2 ADD SWAP3 DUP3 ISZERO PUSH3 0x513 JUMPI SWAP2 PUSH1 0x20 MUL DUP3 ADD JUMPDEST DUP3 DUP2 GT ISZERO PUSH3 0x512 JUMPI DUP3 MLOAD DUP3 PUSH0 PUSH2 0x100 EXP DUP2 SLOAD DUP2 PUSH20 0xFFFFFFFFFFFFFFFFFFFFFFFFFFFFFFFFFFFFFFFF MUL NOT AND SWAP1 DUP4 PUSH20 0xFFFFFFFFFFFFFFFFFFFFFFFFFFFFFFFFFFFFFFFF AND MUL OR SWAP1 SSTORE POP SWAP2 PUSH1 0x20 ADD SWAP2 SWAP1 PUSH1 0x1 ADD SWAP1 PUSH3 0x4B9 JUMP JUMPDEST JUMPDEST POP SWAP1 POP PUSH3 0x522 SWAP2 SWAP1 PUSH3 0x532 JUMP JUMPDEST POP SWAP1 JUMP JUMPDEST PUSH3 0x530 PUSH3 0xA28 JUMP JUMPDEST JUMP JUMPDEST JUMPDEST DUP1 DUP3 GT ISZERO PUSH3 0x54B JUMPI PUSH0 DUP2 PUSH0 SWAP1 SSTORE POP PUSH1 0x1 ADD PUSH3 0x533 JUMP JUMPDEST POP SWAP1 JUMP JUMPDEST PUSH0 PUSH1 0x40 MLOAD SWAP1 POP SWAP1 JUMP JUMPDEST PUSH0 DUP1 REVERT JUMPDEST PUSH0 DUP1 REVERT JUMPDEST PUSH0 PUSH1 0xFF DUP3 AND SWAP1 POP SWAP2 SWAP1 POP JUMP JUMPDEST PUSH3 0x577 DUP2 PUSH3 0x560 JUMP JUMPDEST DUP2 EQ PUSH3 0x582 JUMPI PUSH0 DUP1 REVERT JUMPDEST POP JUMP JUMPDEST PUSH0 DUP2 MLOAD SWAP1 POP PUSH3 0x595 DUP2 PUSH3 0x56C JUMP JUMPDEST SWAP3 SWAP2 POP POP JUMP JUMPDEST PUSH0 PUSH20 0xFFFFFFFFFFFFFFFFFFFFFFFFFFFFFFFFFFFFFFFF DUP3 AND SWAP1 POP SWAP2 SWAP1 POP JUMP JUMPDEST PUSH0 PUSH3 0x5C6 DUP3 PUSH3 0x59B JUMP JUMPDEST SWAP1 POP SWAP2 SWAP1 POP JUMP JUMPDEST PUSH3 0x5D8 DUP2 PUSH3 0x5BA JUMP JUMPDEST DUP2 EQ PUSH3 0x5E3 JUMPI PUSH0 DUP1 REVERT JUMPDEST POP JUMP JUMPDEST PUSH0 DUP2 MLOAD SWAP1 POP PUSH3 0x5F6 DUP2 PUSH3 0x5CD JUMP JUMPDEST SWAP3 SWAP2 POP POP JUMP JUMPDEST PUSH0 DUP1 PUSH0 PUSH1 0x60 DUP5 DUP7 SUB SLT ISZERO PUSH3 0x616 JUMPI PUSH3 0x615 PUSH3 0x558 JUMP JUMPDEST JUMPDEST PUSH0 PUSH3 0x625 DUP7 DUP3 DUP8 ADD PUSH3 0x585 JUMP JUMPDEST SWAP4 POP POP PUSH1 0x20 PUSH3 0x638 DUP7 DUP3 DUP8 ADD PUSH3 0x5E6 JUMP JUMPDEST SWAP3 POP POP PUSH1 0x40 PUSH3 0x64B DUP7 DUP3 DUP8 ADD PUSH3 0x5E6 JUMP JUMPDEST SWAP2 POP POP SWAP3 POP SWAP3 POP SWAP3 JUMP JUMPDEST PUSH0 DUP3 DUP3 MSTORE PUSH1 0x20 DUP3 ADD SWAP1 POP SWAP3 SWAP2 POP POP JUMP JUMPDEST PUSH32 0x4E6F7420656E6F7567682045544820746F2066756E6420746869732073747261 PUSH0 DUP3 ADD MSTORE PUSH32 0x74656779206D6F64756C65210000000000000000000000000000000000000000 PUSH1 0x20 DUP3 ADD MSTORE POP JUMP JUMPDEST PUSH0 PUSH3 0x6C1 PUSH1 0x2C DUP4 PUSH3 0x655 JUMP JUMPDEST SWAP2 POP PUSH3 0x6CE DUP3 PUSH3 0x665 JUMP JUMPDEST PUSH1 0x40 DUP3 ADD SWAP1 POP SWAP2 SWAP1 POP JUMP JUMPDEST PUSH0 PUSH1 0x20 DUP3 ADD SWAP1 POP DUP2 DUP2 SUB PUSH0 DUP4 ADD MSTORE PUSH3 0x6F2 DUP2 PUSH3 0x6B3 JUMP JUMPDEST SWAP1 POP SWAP2 SWAP1 POP JUMP JUMPDEST PUSH0 DUP2 SWAP1 POP SWAP2 SWAP1 POP JUMP JUMPDEST PUSH0 PUSH3 0x722 PUSH3 0x71C PUSH3 0x716 DUP5 PUSH3 0x59B JUMP JUMPDEST PUSH3 0x6F9 JUMP JUMPDEST PUSH3 0x59B JUMP JUMPDEST SWAP1 POP SWAP2 SWAP1 POP JUMP JUMPDEST PUSH0 PUSH3 0x735 DUP3 PUSH3 0x702 JUMP JUMPDEST SWAP1 POP SWAP2 SWAP1 POP JUMP JUMPDEST PUSH0 PUSH3 0x748 DUP3 PUSH3 0x729 JUMP JUMPDEST SWAP1 POP SWAP2 SWAP1 POP JUMP JUMPDEST PUSH3 0x75A DUP2 PUSH3 0x73C JUMP JUMPDEST DUP3 MSTORE POP POP JUMP JUMPDEST PUSH0 PUSH1 0x20 DUP3 ADD SWAP1 POP PUSH3 0x775 PUSH0 DUP4 ADD DUP5 PUSH3 0x74F JUMP JUMPDEST SWAP3 SWAP2 POP POP JUMP JUMPDEST PUSH32 0x4E487B7100000000000000000000000000000000000000000000000000000000 PUSH0 MSTORE PUSH1 0x41 PUSH1 0x4 MSTORE PUSH1 0x24 PUSH0 REVERT JUMPDEST PUSH0 DUP2 SWAP1 POP SWAP2 SWAP1 POP JUMP JUMPDEST PUSH0 PUSH3 0x7D1 PUSH3 0x7CB PUSH3 0x7C5 DUP5 PUSH3 0x560 JUMP JUMPDEST PUSH3 0x6F9 JUMP JUMPDEST PUSH3 0x7A8 JUMP JUMPDEST SWAP1 POP SWAP2 SWAP1 POP JUMP JUMPDEST PUSH3 0x7E3 DUP2 PUSH3 0x7B1 JUMP JUMPDEST DUP3 MSTORE POP POP JUMP JUMPDEST PUSH0 PUSH1 0x20 DUP3 ADD SWAP1 POP PUSH3 0x7FE PUSH0 DUP4 ADD DUP5 PUSH3 0x7D8 JUMP JUMPDEST SWAP3 SWAP2 POP POP JUMP JUMPDEST PUSH0 DUP1 REVERT JUMPDEST PUSH0 PUSH1 0x1F NOT PUSH1 0x1F DUP4 ADD AND SWAP1 POP SWAP2 SWAP1 POP JUMP JUMPDEST PUSH3 0x823 DUP3 PUSH3 0x808 JUMP JUMPDEST DUP2 ADD DUP2 DUP2 LT PUSH8 0xFFFFFFFFFFFFFFFF DUP3 GT OR ISZERO PUSH3 0x845 JUMPI PUSH3 0x844 PUSH3 0x77B JUMP JUMPDEST JUMPDEST DUP1 PUSH1 0x40 MSTORE POP POP POP JUMP JUMPDEST PUSH0 PUSH3 0x859 PUSH3 0x54F JUMP JUMPDEST SWAP1 POP PUSH3 0x867 DUP3 DUP3 PUSH3 0x818 JUMP JUMPDEST SWAP2 SWAP1 POP JUMP JUMPDEST PUSH0 PUSH8 0xFFFFFFFFFFFFFFFF DUP3 GT ISZERO PUSH3 0x889 JUMPI PUSH3 0x888 PUSH3 0x77B JUMP JUMPDEST JUMPDEST PUSH1 0x20 DUP3 MUL SWAP1 POP PUSH1 0x20 DUP2 ADD SWAP1 POP SWAP2 SWAP1 POP JUMP JUMPDEST PUSH0 DUP1 REVERT JUMPDEST PUSH0 PUSH3 0x8B4 PUSH3 0x8AE DUP5 PUSH3 0x86C JUMP JUMPDEST PUSH3 0x84E JUMP JUMPDEST SWAP1 POP DUP1 DUP4 DUP3 MSTORE PUSH1 0x20 DUP3 ADD SWAP1 POP PUSH1 0x20 DUP5 MUL DUP4 ADD DUP6 DUP2 GT ISZERO PUSH3 0x8DA JUMPI PUSH3 0x8D9 PUSH3 0x89A JUMP JUMPDEST JUMPDEST DUP4 JUMPDEST DUP2 DUP2 LT ISZERO PUSH3 0x907 JUMPI DUP1 PUSH3 0x8F2 DUP9 DUP3 PUSH3 0x5E6 JUMP JUMPDEST DUP5 MSTORE PUSH1 0x20 DUP5 ADD SWAP4 POP POP PUSH1 0x20 DUP2 ADD SWAP1 POP PUSH3 0x8DC JUMP JUMPDEST POP POP POP SWAP4 SWAP3 POP POP POP JUMP JUMPDEST PUSH0 DUP3 PUSH1 0x1F DUP4 ADD SLT PUSH3 0x928 JUMPI PUSH3 0x927 PUSH3 0x804 JUMP JUMPDEST JUMPDEST DUP2 MLOAD PUSH3 0x93A DUP5 DUP3 PUSH1 0x20 DUP7 ADD PUSH3 0x89E JUMP JUMPDEST SWAP2 POP POP SWAP3 SWAP2 POP POP JUMP JUMPDEST PUSH0 PUSH1 0x20 DUP3 DUP5 SUB SLT ISZERO PUSH3 0x95B JUMPI PUSH3 0x95A PUSH3 0x558 JUMP JUMPDEST JUMPDEST PUSH0 DUP3 ADD MLOAD PUSH8 0xFFFFFFFFFFFFFFFF DUP2 GT ISZERO PUSH3 0x97B JUMPI PUSH3 0x97A PUSH3 0x55C JUMP JUMPDEST JUMPDEST PUSH3 0x989 DUP5 DUP3 DUP6 ADD PUSH3 0x911 JUMP JUMPDEST SWAP2 POP POP SWAP3 SWAP2 POP POP JUMP JUMPDEST PUSH0 DUP2 MLOAD SWAP1 POP SWAP2 SWAP1 POP JUMP JUMPDEST PUSH0 JUMPDEST DUP4 DUP2 LT ISZERO PUSH3 0x9BB JUMPI DUP1 DUP3 ADD MLOAD DUP2 DUP5 ADD MSTORE PUSH1 0x20 DUP2 ADD SWAP1 POP PUSH3 0x99E JUMP JUMPDEST PUSH0 DUP5 DUP5 ADD MSTORE POP POP POP POP JUMP JUMPDEST PUSH0 PUSH3 0x9D2 DUP3 PUSH3 0x992 JUMP JUMPDEST PUSH3 0x9DE DUP2 DUP6 PUSH3 0x655 JUMP JUMPDEST SWAP4 POP PUSH3 0x9F0 DUP2 DUP6 PUSH1 0x20 DUP7 ADD PUSH3 0x99C JUMP JUMPDEST PUSH3 0x9FB DUP2 PUSH3 0x808 JUMP JUMPDEST DUP5 ADD SWAP2 POP POP SWAP3 SWAP2 POP POP JUMP JUMPDEST PUSH0 PUSH1 0x20 DUP3 ADD SWAP1 POP DUP2 DUP2 SUB PUSH0 DUP4 ADD MSTORE PUSH3 0xA20 DUP2 DUP5 PUSH3 0x9C6 JUMP JUMPDEST SWAP1 POP SWAP3 SWAP2 POP POP JUMP JUMPDEST PUSH32 0x4E487B7100000000000000000000000000000000000000000000000000000000 PUSH0 MSTORE PUSH1 0x51 PUSH1 0x4 MSTORE PUSH1 0x24 PUSH0 REVERT JUMPDEST PUSH2 0x7E2 DUP1 PUSH3 0xA63 PUSH0 CODECOPY PUSH0 RETURN INVALID PUSH1 0x80 PUSH1 0x40 MSTORE CALLVALUE DUP1 ISZERO PUSH2 0xF JUMPI PUSH0 DUP1 REVERT JUMPDEST POP PUSH1 0x4 CALLDATASIZE LT PUSH2 0x4A JUMPI PUSH0 CALLDATALOAD PUSH1 0xE0 SHR DUP1 PUSH4 0xAB8AFAC EQ PUSH2 0x4E JUMPI DUP1 PUSH4 0x36917A4C EQ PUSH2 0x6C JUMPI DUP1 PUSH4 0xD518C0C3 EQ PUSH2 0x9C JUMPI DUP1 PUSH4 0xF4B3A197 EQ PUSH2 0xBA JUMPI JUMPDEST PUSH0 DUP1 REVERT JUMPDEST PUSH2 0x56 PUSH2 0xD8 JUMP JUMPDEST PUSH1 0x40 MLOAD PUSH2 0x63 SWAP2 SWAP1 PUSH2 0x447 JUMP JUMPDEST PUSH1 0x40 MLOAD DUP1 SWAP2 SUB SWAP1 RETURN JUMPDEST PUSH2 0x86 PUSH1 0x4 DUP1 CALLDATASIZE SUB DUP2 ADD SWAP1 PUSH2 0x81 SWAP2 SWAP1 PUSH2 0x497 JUMP JUMPDEST PUSH2 0xFD JUMP JUMPDEST PUSH1 0x40 MLOAD PUSH2 0x93 SWAP2 SWAP1 PUSH2 0x4E2 JUMP JUMPDEST PUSH1 0x40 MLOAD DUP1 SWAP2 SUB SWAP1 RETURN JUMPDEST PUSH2 0xA4 PUSH2 0x138 JUMP JUMPDEST PUSH1 0x40 MLOAD PUSH2 0xB1 SWAP2 SWAP1 PUSH2 0x51B JUMP JUMPDEST PUSH1 0x40 MLOAD DUP1 SWAP2 SUB SWAP1 RETURN JUMPDEST PUSH2 0xC2 PUSH2 0x15D JUMP JUMPDEST PUSH1 0x40 MLOAD PUSH2 0xCF SWAP2 SWAP1 PUSH2 0x54E JUMP JUMPDEST PUSH1 0x40 MLOAD DUP1 SWAP2 SUB SWAP1 RETURN JUMPDEST PUSH1 0x2 PUSH0 SWAP1 SLOAD SWAP1 PUSH2 0x100 EXP SWAP1 DIV PUSH20 0xFFFFFFFFFFFFFFFFFFFFFFFFFFFFFFFFFFFFFFFF AND DUP2 JUMP JUMPDEST PUSH1 0x3 DUP2 DUP2 SLOAD DUP2 LT PUSH2 0x10C JUMPI PUSH0 DUP1 REVERT JUMPDEST SWAP1 PUSH0 MSTORE PUSH1 0x20 PUSH0 KECCAK256 ADD PUSH0 SWAP2 POP SLOAD SWAP1 PUSH2 0x100 EXP SWAP1 DIV PUSH20 0xFFFFFFFFFFFFFFFFFFFFFFFFFFFFFFFFFFFFFFFF AND DUP2 JUMP JUMPDEST PUSH1 0x1 PUSH0 SWAP1 SLOAD SWAP1 PUSH2 0x100 EXP SWAP1 DIV PUSH20 0xFFFFFFFFFFFFFFFFFFFFFFFFFFFFFFFFFFFFFFFF AND DUP2 JUMP JUMPDEST PUSH0 DUP1 PUSH0 SWAP1 SLOAD SWAP1 PUSH2 0x100 EXP SWAP1 DIV PUSH20 0xFFFFFFFFFFFFFFFFFFFFFFFFFFFFFFFFFFFFFFFF AND PUSH20 0xFFFFFFFFFFFFFFFFFFFFFFFFFFFFFFFFFFFFFFFF AND CALLER PUSH20 0xFFFFFFFFFFFFFFFFFFFFFFFFFFFFFFFFFFFFFFFF AND EQ DUP1 PUSH2 0x204 JUMPI POP PUSH1 0x1 PUSH0 SWAP1 SLOAD SWAP1 PUSH2 0x100 EXP SWAP1 DIV PUSH20 0xFFFFFFFFFFFFFFFFFFFFFFFFFFFFFFFFFFFFFFFF AND PUSH20 0xFFFFFFFFFFFFFFFFFFFFFFFFFFFFFFFFFFFFFFFF AND CALLER PUSH20 0xFFFFFFFFFFFFFFFFFFFFFFFFFFFFFFFFFFFFFFFF AND EQ JUMPDEST PUSH2 0x20C JUMPI PUSH0 DUP1 REVERT JUMPDEST PUSH2 0x214 PUSH2 0x2C2 JUMP JUMPDEST PUSH0 DUP1 PUSH0 SWAP1 SLOAD SWAP1 PUSH2 0x100 EXP SWAP1 DIV PUSH20 0xFFFFFFFFFFFFFFFFFFFFFFFFFFFFFFFFFFFFFFFF AND PUSH20 0xFFFFFFFFFFFFFFFFFFFFFFFFFFFFFFFFFFFFFFFF AND SELFBALANCE PUSH1 0x40 MLOAD PUSH2 0x259 SWAP1 PUSH2 0x594 JUMP JUMPDEST PUSH0 PUSH1 0x40 MLOAD DUP1 DUP4 SUB DUP2 DUP6 DUP8 GAS CALL SWAP3 POP POP POP RETURNDATASIZE DUP1 PUSH0 DUP2 EQ PUSH2 0x293 JUMPI PUSH1 0x40 MLOAD SWAP2 POP PUSH1 0x1F NOT PUSH1 0x3F RETURNDATASIZE ADD AND DUP3 ADD PUSH1 0x40 MSTORE RETURNDATASIZE DUP3 MSTORE RETURNDATASIZE PUSH0 PUSH1 0x20 DUP5 ADD RETURNDATACOPY PUSH2 0x298 JUMP JUMPDEST PUSH1 0x60 SWAP2 POP JUMPDEST POP POP SWAP1 POP DUP1 SWAP2 POP POP SWAP1 JUMP JUMPDEST PUSH0 PUSH11 0x636F6E736F6C652E6C6F67 SWAP1 POP PUSH0 DUP1 DUP4 MLOAD PUSH1 0x20 DUP6 ADD DUP5 GAS STATICCALL POP POP POP JUMP JUMPDEST PUSH1 0x2 PUSH0 SWAP1 SLOAD SWAP1 PUSH2 0x100 EXP SWAP1 DIV PUSH20 0xFFFFFFFFFFFFFFFFFFFFFFFFFFFFFFFFFFFFFFFF AND PUSH20 0xFFFFFFFFFFFFFFFFFFFFFFFFFFFFFFFFFFFFFFFF AND PUSH4 0xB2B228A6 PUSH1 0x3 PUSH1 0x40 MLOAD DUP3 PUSH4 0xFFFFFFFF AND PUSH1 0xE0 SHL DUP2 MSTORE PUSH1 0x4 ADD PUSH2 0x31D SWAP2 SWAP1 PUSH2 0x6BE JUMP JUMPDEST PUSH0 PUSH1 0x40 MLOAD DUP1 DUP4 SUB DUP2 PUSH0 DUP8 DUP1 EXTCODESIZE ISZERO DUP1 ISZERO PUSH2 0x334 JUMPI PUSH0 DUP1 REVERT JUMPDEST POP GAS CALL ISZERO DUP1 ISZERO PUSH2 0x346 JUMPI RETURNDATASIZE PUSH0 DUP1 RETURNDATACOPY RETURNDATASIZE PUSH0 REVERT JUMPDEST POP POP POP POP PUSH0 JUMPDEST PUSH0 DUP2 GT PUSH2 0x3C0 JUMPI PUSH0 PUSH1 0x3 DUP3 DUP2 SLOAD DUP2 LT PUSH2 0x368 JUMPI PUSH2 0x367 PUSH2 0x6DE JUMP JUMPDEST JUMPDEST SWAP1 PUSH0 MSTORE PUSH1 0x20 PUSH0 KECCAK256 ADD PUSH0 PUSH2 0x100 EXP DUP2 SLOAD DUP2 PUSH20 0xFFFFFFFFFFFFFFFFFFFFFFFFFFFFFFFFFFFFFFFF MUL NOT AND SWAP1 DUP4 PUSH20 0xFFFFFFFFFFFFFFFFFFFFFFFFFFFFFFFFFFFFFFFF AND MUL OR SWAP1 SSTORE POP DUP1 DUP1 PUSH2 0x3B8 SWAP1 PUSH2 0x738 JUMP JUMPDEST SWAP2 POP POP PUSH2 0x34C JUMP JUMPDEST POP JUMP JUMPDEST PUSH2 0x3CB PUSH2 0x77F JUMP JUMPDEST JUMP JUMPDEST PUSH0 PUSH20 0xFFFFFFFFFFFFFFFFFFFFFFFFFFFFFFFFFFFFFFFF DUP3 AND SWAP1 POP SWAP2 SWAP1 POP JUMP JUMPDEST PUSH0 DUP2 SWAP1 POP SWAP2 SWAP1 POP JUMP JUMPDEST PUSH0 PUSH2 0x40F PUSH2 0x40A PUSH2 0x405 DUP5 PUSH2 0x3CD JUMP JUMPDEST PUSH2 0x3EC JUMP JUMPDEST PUSH2 0x3CD JUMP JUMPDEST SWAP1 POP SWAP2 SWAP1 POP JUMP JUMPDEST PUSH0 PUSH2 0x420 DUP3 PUSH2 0x3F5 JUMP JUMPDEST SWAP1 POP SWAP2 SWAP1 POP JUMP JUMPDEST PUSH0 PUSH2 0x431 DUP3 PUSH2 0x416 JUMP JUMPDEST SWAP1 POP SWAP2 SWAP1 POP JUMP JUMPDEST PUSH2 0x441 DUP2 PUSH2 0x427 JUMP JUMPDEST DUP3 MSTORE POP POP JUMP JUMPDEST PUSH0 PUSH1 0x20 DUP3 ADD SWAP1 POP PUSH2 0x45A PUSH0 DUP4 ADD DUP5 PUSH2 0x438 JUMP JUMPDEST SWAP3 SWAP2 POP POP JUMP JUMPDEST PUSH0 DUP1 REVERT JUMPDEST PUSH0 DUP2 SWAP1 POP SWAP2 SWAP1 POP JUMP JUMPDEST PUSH2 0x476 DUP2 PUSH2 0x464 JUMP JUMPDEST DUP2 EQ PUSH2 0x480 JUMPI PUSH0 DUP1 REVERT JUMPDEST POP JUMP JUMPDEST PUSH0 DUP2 CALLDATALOAD SWAP1 POP PUSH2 0x491 DUP2 PUSH2 0x46D JUMP JUMPDEST SWAP3 SWAP2 POP POP JUMP JUMPDEST PUSH0 PUSH1 0x20 DUP3 DUP5 SUB SLT ISZERO PUSH2 0x4AC JUMPI PUSH2 0x4AB PUSH2 0x460 JUMP JUMPDEST JUMPDEST PUSH0 PUSH2 0x4B9 DUP5 DUP3 DUP6 ADD PUSH2 0x483 JUMP JUMPDEST SWAP2 POP POP SWAP3 SWAP2 POP POP JUMP JUMPDEST PUSH0 PUSH2 0x4CC DUP3 PUSH2 0x3CD JUMP JUMPDEST SWAP1 POP SWAP2 SWAP1 POP JUMP JUMPDEST PUSH2 0x4DC DUP2 PUSH2 0x4C2 JUMP JUMPDEST DUP3 MSTORE POP POP JUMP JUMPDEST PUSH0 PUSH1 0x20 DUP3 ADD SWAP1 POP PUSH2 0x4F5 PUSH0 DUP4 ADD DUP5 PUSH2 0x4D3 JUMP JUMPDEST SWAP3 SWAP2 POP POP JUMP JUMPDEST PUSH0 PUSH2 0x505 DUP3 PUSH2 0x416 JUMP JUMPDEST SWAP1 POP SWAP2 SWAP1 POP JUMP JUMPDEST PUSH2 0x515 DUP2 PUSH2 0x4FB JUMP JUMPDEST DUP3 MSTORE POP POP JUMP JUMPDEST PUSH0 PUSH1 0x20 DUP3 ADD SWAP1 POP PUSH2 0x52E PUSH0 DUP4 ADD DUP5 PUSH2 0x50C JUMP JUMPDEST SWAP3 SWAP2 POP POP JUMP JUMPDEST PUSH0 DUP2 ISZERO ISZERO SWAP1 POP SWAP2 SWAP1 POP JUMP JUMPDEST PUSH2 0x548 DUP2 PUSH2 0x534 JUMP JUMPDEST DUP3 MSTORE POP POP JUMP JUMPDEST PUSH0 PUSH1 0x20 DUP3 ADD SWAP1 POP PUSH2 0x561 PUSH0 DUP4 ADD DUP5 PUSH2 0x53F JUMP JUMPDEST SWAP3 SWAP2 POP POP JUMP JUMPDEST PUSH0 DUP2 SWAP1 POP SWAP3 SWAP2 POP POP JUMP JUMPDEST POP JUMP JUMPDEST PUSH0 PUSH2 0x57F PUSH0 DUP4 PUSH2 0x567 JUMP JUMPDEST SWAP2 POP PUSH2 0x58A DUP3 PUSH2 0x571 JUMP JUMPDEST PUSH0 DUP3 ADD SWAP1 POP SWAP2 SWAP1 POP JUMP JUMPDEST PUSH0 PUSH2 0x59E DUP3 PUSH2 0x574 JUMP JUMPDEST SWAP2 POP DUP2 SWAP1 POP SWAP2 SWAP1 POP JUMP JUMPDEST PUSH0 DUP2 SLOAD SWAP1 POP SWAP2 SWAP1 POP JUMP JUMPDEST PUSH0 DUP3 DUP3 MSTORE PUSH1 0x20 DUP3 ADD SWAP1 POP SWAP3 SWAP2 POP POP JUMP JUMPDEST PUSH0 DUP2 SWAP1 POP DUP2 PUSH0 MSTORE PUSH1 0x20 PUSH0 KECCAK256 SWAP1 POP SWAP2 SWAP1 POP JUMP JUMPDEST PUSH2 0x5DD DUP2 PUSH2 0x4C2 JUMP JUMPDEST DUP3 MSTORE POP POP JUMP JUMPDEST PUSH0 PUSH2 0x5EE DUP4 DUP4 PUSH2 0x5D4 JUMP JUMPDEST PUSH1 0x20 DUP4 ADD SWAP1 POP SWAP3 SWAP2 POP POP JUMP JUMPDEST PUSH0 DUP2 PUSH0 SHR SWAP1 POP SWAP2 SWAP1 POP JUMP JUMPDEST PUSH0 PUSH20 0xFFFFFFFFFFFFFFFFFFFFFFFFFFFFFFFFFFFFFFFF DUP3 AND SWAP1 POP SWAP2 SWAP1 POP JUMP JUMPDEST PUSH0 PUSH2 0x636 PUSH2 0x631 DUP4 PUSH2 0x5FA JUMP JUMPDEST PUSH2 0x605 JUMP JUMPDEST SWAP1 POP SWAP2 SWAP1 POP JUMP JUMPDEST PUSH0 PUSH2 0x648 DUP3 SLOAD PUSH2 0x624 JUMP JUMPDEST SWAP1 POP SWAP2 SWAP1 POP JUMP JUMPDEST PUSH0 PUSH1 0x1 DUP3 ADD SWAP1 POP SWAP2 SWAP1 POP JUMP JUMPDEST PUSH0 PUSH2 0x665 DUP3 PUSH2 0x5A8 JUMP JUMPDEST PUSH2 0x66F DUP2 DUP6 PUSH2 0x5B2 JUMP JUMPDEST SWAP4 POP PUSH2 0x67A DUP4 PUSH2 0x5C2 JUMP JUMPDEST DUP1 PUSH0 JUMPDEST DUP4 DUP2 LT ISZERO PUSH2 0x6B1 JUMPI PUSH2 0x68E DUP3 PUSH2 0x63D JUMP JUMPDEST PUSH2 0x698 DUP9 DUP3 PUSH2 0x5E3 JUMP JUMPDEST SWAP8 POP PUSH2 0x6A3 DUP4 PUSH2 0x64F JUMP JUMPDEST SWAP3 POP POP PUSH1 0x1 DUP2 ADD SWAP1 POP PUSH2 0x67D JUMP JUMPDEST POP DUP6 SWAP4 POP POP POP POP SWAP3 SWAP2 POP POP JUMP JUMPDEST PUSH0 PUSH1 0x20 DUP3 ADD SWAP1 POP DUP2 DUP2 SUB PUSH0 DUP4 ADD MSTORE PUSH2 0x6D6 DUP2 DUP5 PUSH2 0x65B JUMP JUMPDEST SWAP1 POP SWAP3 SWAP2 POP POP JUMP JUMPDEST PUSH32 0x4E487B7100000000000000000000000000000000000000000000000000000000 PUSH0 MSTORE PUSH1 0x32 PUSH1 0x4 MSTORE PUSH1 0x24 PUSH0 REVERT JUMPDEST PUSH32 0x4E487B7100000000000000000000000000000000000000000000000000000000 PUSH0 MSTORE PUSH1 0x11 PUSH1 0x4 MSTORE PUSH1 0x24 PUSH0 REVERT JUMPDEST PUSH0 PUSH2 0x742 DUP3 PUSH2 0x464 JUMP JUMPDEST SWAP2 POP PUSH32 0xFFFFFFFFFFFFFFFFFFFFFFFFFFFFFFFFFFFFFFFFFFFFFFFFFFFFFFFFFFFFFFFF DUP3 SUB PUSH2 0x774 JUMPI PUSH2 0x773 PUSH2 0x70B JUMP JUMPDEST JUMPDEST PUSH1 0x1 DUP3 ADD SWAP1 POP SWAP2 SWAP1 POP JUMP JUMPDEST PUSH32 0x4E487B7100000000000000000000000000000000000000000000000000000000 PUSH0 MSTORE PUSH1 0x51 PUSH1 0x4 MSTORE PUSH1 0x24 PUSH0 REVERT INVALID LOG2 PUSH5 0x6970667358 0x22 SLT KECCAK256 PUSH18 0x14DCA29408C8BBF4CB1A2E3BF062711079E0 SWAP2 DUP5 0xC1 BALANCE CALLDATACOPY SWAP5 PUSH9 0xDA729CE57FCF64736F PUSH13 0x63430008180033000000000000 "
		},
		"gasEstimates": {
			"creation": {
				"codeDepositCost": "403600",
				"executionCost": "infinite",
				"totalCost": "infinite"
			},
			"external": {
				"auctionContract()": "infinite",
				"byzHQ()": "infinite",
				"exitRequest()": "infinite",
				"operatorSet(uint256)": "4944"
			},
			"internal": {
				"releaseOperators()": "infinite"
			}
		},
		"methodIdentifiers": {
			"auctionContract()": "0ab8afac",
			"byzHQ()": "d518c0c3",
			"exitRequest()": "f4b3a197",
			"operatorSet(uint256)": "36917a4c"
		}
	},
	"abi": [
		{
			"inputs": [
				{
					"internalType": "uint8",
					"name": "_dvtClusterSize",
					"type": "uint8"
				},
				{
					"internalType": "address",
					"name": "_stratModOwner",
					"type": "address"
				},
				{
					"internalType": "address",
					"name": "_auctionContract",
					"type": "address"
				}
			],
			"stateMutability": "payable",
			"type": "constructor"
		},
		{
			"inputs": [],
			"name": "auctionContract",
			"outputs": [
				{
					"internalType": "contract AuctionContract",
					"name": "",
					"type": "address"
				}
			],
			"stateMutability": "view",
			"type": "function"
		},
		{
			"inputs": [],
			"name": "byzHQ",
			"outputs": [
				{
					"internalType": "contract iByzantineFinance",
					"name": "",
					"type": "address"
				}
			],
			"stateMutability": "view",
			"type": "function"
		},
		{
			"inputs": [],
			"name": "exitRequest",
			"outputs": [
				{
					"internalType": "bool",
					"name": "success",
					"type": "bool"
				}
			],
			"stateMutability": "nonpayable",
			"type": "function"
		},
		{
			"inputs": [
				{
					"internalType": "uint256",
					"name": "",
					"type": "uint256"
				}
			],
			"name": "operatorSet",
			"outputs": [
				{
					"internalType": "address",
					"name": "",
					"type": "address"
				}
			],
			"stateMutability": "view",
			"type": "function"
		}
	]
}